{
  "_format": "hh-sol-artifact-1",
  "contractName": "ExampleIPARemixRegistration",
  "sourceName": "contracts/RegistrarIPARemix.sol",
  "abi": [
    {
      "inputs": [
        {
          "internalType": "address",
          "name": "registry",
          "type": "address"
        },
        {
          "internalType": "address",
          "name": "resolverAddr",
          "type": "address"
        }
      ],
      "stateMutability": "nonpayable",
      "type": "constructor"
    },
    {
      "inputs": [],
      "name": "MIN_ROYALTY",
      "outputs": [
        {
          "internalType": "uint256",
          "name": "",
          "type": "uint256"
        }
      ],
      "stateMutability": "view",
      "type": "function"
    },
    {
      "inputs": [],
      "name": "REGISTRY",
      "outputs": [
        {
          "internalType": "contract IPAssetRegistry",
          "name": "",
          "type": "address"
        }
      ],
      "stateMutability": "view",
      "type": "function"
    },
    {
      "inputs": [
        {
          "internalType": "uint256[]",
          "name": "licenseIds",
          "type": "uint256[]"
        },
        {
          "internalType": "address",
          "name": "tokenContract",
          "type": "address"
        },
        {
          "internalType": "uint256",
          "name": "tokenId",
          "type": "uint256"
        }
      ],
      "name": "remix",
      "outputs": [
        {
          "internalType": "address",
          "name": "",
          "type": "address"
        }
      ],
      "stateMutability": "nonpayable",
      "type": "function"
    },
    {
      "inputs": [],
      "name": "resolver",
      "outputs": [
        {
          "internalType": "contract IPResolver",
          "name": "",
          "type": "address"
        }
      ],
      "stateMutability": "view",
      "type": "function"
    }
  ],
  "bytecode": "0x60a060405260405180606001604052806024815260200162000da360249139600090816200002e919062000359565b503480156200003c57600080fd5b5060405162000dc738038062000dc78339818101604052810190620000629190620004aa565b8173ffffffffffffffffffffffffffffffffffffffff1660808173ffffffffffffffffffffffffffffffffffffffff168152505080600160006101000a81548173ffffffffffffffffffffffffffffffffffffffff021916908373ffffffffffffffffffffffffffffffffffffffff1602179055505050620004f1565b600081519050919050565b7f4e487b7100000000000000000000000000000000000000000000000000000000600052604160045260246000fd5b7f4e487b7100000000000000000000000000000000000000000000000000000000600052602260045260246000fd5b600060028204905060018216806200016157607f821691505b60208210810362000177576200017662000119565b5b50919050565b60008190508160005260206000209050919050565b60006020601f8301049050919050565b600082821b905092915050565b600060088302620001e17fffffffffffffffffffffffffffffffffffffffffffffffffffffffffffffffff82620001a2565b620001ed8683620001a2565b95508019841693508086168417925050509392505050565b6000819050919050565b6000819050919050565b60006200023a620002346200022e8462000205565b6200020f565b62000205565b9050919050565b6000819050919050565b620002568362000219565b6200026e620002658262000241565b848454620001af565b825550505050565b600090565b6200028562000276565b620002928184846200024b565b505050565b5b81811015620002ba57620002ae6000826200027b565b60018101905062000298565b5050565b601f8211156200030957620002d3816200017d565b620002de8462000192565b81016020851015620002ee578190505b62000306620002fd8562000192565b83018262000297565b50505b505050565b600082821c905092915050565b60006200032e600019846008026200030e565b1980831691505092915050565b60006200034983836200031b565b9150826002028217905092915050565b6200036482620000df565b67ffffffffffffffff81111562000380576200037f620000ea565b5b6200038c825462000148565b62000399828285620002be565b600060209050601f831160018114620003d15760008415620003bc578287015190505b620003c885826200033b565b86555062000438565b601f198416620003e1866200017d565b60005b828110156200040b57848901518255600182019150602085019450602081019050620003e4565b868310156200042b578489015162000427601f8916826200031b565b8355505b6001600288020188555050505b505050505050565b600080fd5b600073ffffffffffffffffffffffffffffffffffffffff82169050919050565b6000620004728262000445565b9050919050565b620004848162000465565b81146200049057600080fd5b50565b600081519050620004a48162000479565b92915050565b60008060408385031215620004c457620004c362000440565b5b6000620004d48582860162000493565b9250506020620004e78582860162000493565b9150509250929050565b60805161088f62000514600039600081816101030152610206015261088f6000f3fe608060405234801561001057600080fd5b506004361061004c5760003560e01c806304f3bcec1461005157806306433b1b1461006f5780630c8211d21461008d5780635b4b3cab146100ab575b600080fd5b6100596100db565b604051610066919061035c565b60405180910390f35b610077610101565b6040516100849190610398565b60405180910390f35b610095610125565b6040516100a291906103cc565b60405180910390f35b6100c560048036038101906100c091906104c0565b61012a565b6040516100d29190610543565b60405180910390f35b600160009054906101000a900473ffffffffffffffffffffffffffffffffffffffff1681565b7f000000000000000000000000000000000000000000000000000000000000000081565b600a81565b6000806040518060a001604052806040518060400160405280601681526020017f6e616d6520666f7220796f75722049502061737365740000000000000000000081525081526020017f796f757220495020617373657420636f6e74656e74206861736800000000000081526020014267ffffffffffffffff1681526020013373ffffffffffffffffffffffffffffffffffffffff1681526020016040518060600160405280602c815260200161082e602c91398152506040516020016101f191906106b6565b604051602081830303815290604052905060007f000000000000000000000000000000000000000000000000000000000000000073ffffffffffffffffffffffffffffffffffffffff166306d61f3d60018787600160009054906101000a900473ffffffffffffffffffffffffffffffffffffffff166001886040518763ffffffff1660e01b815260040161028b96959493929190610783565b6020604051808303816000875af11580156102aa573d6000803e3d6000fd5b505050506040513d601f19601f820116820180604052508101906102ce9190610800565b90508092505050949350505050565b600073ffffffffffffffffffffffffffffffffffffffff82169050919050565b6000819050919050565b600061032261031d610318846102dd565b6102fd565b6102dd565b9050919050565b600061033482610307565b9050919050565b600061034682610329565b9050919050565b6103568161033b565b82525050565b6000602082019050610371600083018461034d565b92915050565b600061038282610329565b9050919050565b61039281610377565b82525050565b60006020820190506103ad6000830184610389565b92915050565b6000819050919050565b6103c6816103b3565b82525050565b60006020820190506103e160008301846103bd565b92915050565b600080fd5b600080fd5b600080fd5b600080fd5b600080fd5b60008083601f840112610416576104156103f1565b5b8235905067ffffffffffffffff811115610433576104326103f6565b5b60208301915083602082028301111561044f5761044e6103fb565b5b9250929050565b6000610461826102dd565b9050919050565b61047181610456565b811461047c57600080fd5b50565b60008135905061048e81610468565b92915050565b61049d816103b3565b81146104a857600080fd5b50565b6000813590506104ba81610494565b92915050565b600080600080606085870312156104da576104d96103e7565b5b600085013567ffffffffffffffff8111156104f8576104f76103ec565b5b61050487828801610400565b945094505060206105178782880161047f565b9250506040610528878288016104ab565b91505092959194509250565b61053d81610456565b82525050565b60006020820190506105586000830184610534565b92915050565b600081519050919050565b600082825260208201905092915050565b60005b8381101561059857808201518184015260208101905061057d565b60008484015250505050565b6000601f19601f8301169050919050565b60006105c08261055e565b6105ca8185610569565b93506105da81856020860161057a565b6105e3816105a4565b840191505092915050565b6000819050919050565b610601816105ee565b82525050565b600067ffffffffffffffff82169050919050565b61062481610607565b82525050565b61063381610456565b82525050565b600060a083016000830151848203600086015261065682826105b5565b915050602083015161066b60208601826105f8565b50604083015161067e604086018261061b565b506060830151610691606086018261062a565b50608083015184820360808601526106a982826105b5565b9150508091505092915050565b600060208201905081810360008301526106d08184610639565b905092915050565b6000819050919050565b60006106fd6106f86106f3846106d8565b6102fd565b6103b3565b9050919050565b61070d816106e2565b82525050565b60008115159050919050565b61072881610713565b82525050565b600081519050919050565b600082825260208201905092915050565b60006107558261072e565b61075f8185610739565b935061076f81856020860161057a565b610778816105a4565b840191505092915050565b600060c0820190506107986000830189610704565b6107a56020830188610534565b6107b260408301876103bd565b6107bf6060830186610534565b6107cc608083018561071f565b81810360a08301526107de818461074a565b9050979650505050505050565b6000815190506107fa81610468565b92915050565b600060208284031215610816576108156103e7565b5b6000610824848285016107eb565b9150509291505056fe68747470733a2f2f796f757269702e78797a2f6d657461646174612d726567617264696e672d6974732d6970a26469706673582212206cf658bb53f305d11ce436ad3dccd40da53bad467d5077aca236bc98ab479eec64736f6c6343000817003354686973206973206c6f79616c74792066656520666f7220746865206c6963656e73652e",
  "linkReferences": {},
  "deployedLinkReferences": {}
}