{
  "_format": "hh-sol-artifact-1",
  "contractName": "IPAPolicyCreation",
  "sourceName": "contracts/IPAPolicyCreation.sol",
  "abi": [
    {
      "inputs": [
        {
          "internalType": "address",
          "name": "pilPolicyManager",
          "type": "address"
        },
        {
          "internalType": "address",
          "name": "licensingModule",
          "type": "address"
        }
      ],
      "stateMutability": "nonpayable",
      "type": "constructor"
    },
    {
      "inputs": [],
      "name": "LICENSING_MODULE",
      "outputs": [
        {
          "internalType": "contract LicensingModule",
          "name": "",
          "type": "address"
        }
      ],
      "stateMutability": "view",
      "type": "function"
    },
    {
      "inputs": [],
      "name": "MINTING_FEE",
      "outputs": [
        {
          "internalType": "uint256",
          "name": "",
          "type": "uint256"
        }
      ],
      "stateMutability": "view",
      "type": "function"
    },
    {
      "inputs": [],
      "name": "MINTING_FEE_TOKEN",
      "outputs": [
        {
          "internalType": "address",
          "name": "",
          "type": "address"
        }
      ],
      "stateMutability": "view",
      "type": "function"
    },
    {
      "inputs": [],
      "name": "PIL_POLICY_MANAGER",
      "outputs": [
        {
          "internalType": "contract PILPolicyFrameworkManager",
          "name": "",
          "type": "address"
        }
      ],
      "stateMutability": "view",
      "type": "function"
    },
    {
      "inputs": [],
      "name": "ROYALTY_POLICY",
      "outputs": [
        {
          "internalType": "address",
          "name": "",
          "type": "address"
        }
      ],
      "stateMutability": "view",
      "type": "function"
    },
    {
      "inputs": [
        {
          "internalType": "uint256",
          "name": "policyID",
          "type": "uint256"
        },
        {
          "internalType": "address",
          "name": "ipId",
          "type": "address"
        }
      ],
      "name": "addPolicyToIPA",
      "outputs": [
        {
          "internalType": "uint256",
          "name": "",
          "type": "uint256"
        }
      ],
      "stateMutability": "nonpayable",
      "type": "function"
    },
    {
      "inputs": [],
      "name": "getFlavorEnum",
      "outputs": [
        {
          "internalType": "enum IPAPolicyCreation.PolicyFlavor",
          "name": "",
          "type": "uint8"
        }
      ],
      "stateMutability": "pure",
      "type": "function"
    },
    {
      "inputs": [
        {
          "internalType": "enum IPAPolicyCreation.PolicyFlavor",
          "name": "flavor",
          "type": "uint8"
        }
      ],
      "name": "registerPolicy",
      "outputs": [
        {
          "internalType": "uint256",
          "name": "",
          "type": "uint256"
        }
      ],
      "stateMutability": "nonpayable",
      "type": "function"
    }
  ],
  "bytecode": "0x60806040523480156200001157600080fd5b506040516200173e3803806200173e83398181016040528101906200003791906200012a565b816000806101000a81548173ffffffffffffffffffffffffffffffffffffffff021916908373ffffffffffffffffffffffffffffffffffffffff16021790555080600160006101000a81548173ffffffffffffffffffffffffffffffffffffffff021916908373ffffffffffffffffffffffffffffffffffffffff160217905550505062000171565b600080fd5b600073ffffffffffffffffffffffffffffffffffffffff82169050919050565b6000620000f282620000c5565b9050919050565b6200010481620000e5565b81146200011057600080fd5b50565b6000815190506200012481620000f9565b92915050565b60008060408385031215620001445762000143620000c0565b5b6000620001548582860162000113565b9250506020620001678582860162000113565b9150509250929050565b6115bd80620001816000396000f3fe608060405234801561001057600080fd5b50600436106100885760003560e01c806365165aa51161005b57806365165aa51461012957806366e89edd14610147578063d642b4b114610165578063e499d3071461018357610088565b806324649db51461008d5780632ef47279146100bd57806333ff4acc146100db57806349e91902146100f9575b600080fd5b6100a760048036038101906100a29190610e0e565b6101a1565b6040516100b49190610e54565b60405180910390f35b6100c561025a565b6040516100d29190610eb0565b60405180910390f35b6100e3610280565b6040516100f09190610f42565b60405180910390f35b610113600480360381019061010e9190610fb5565b610285565b6040516101209190610e54565b60405180910390f35b610131610334565b60405161013e9190611054565b60405180910390f35b61014f61035a565b60405161015c9190610eb0565b60405180910390f35b61016d610380565b60405161017a9190610e54565b60405180910390f35b61018b610386565b6040516101989190611090565b60405180910390f35b6000806101ad836103aa565b905060008060009054906101000a900473ffffffffffffffffffffffffffffffffffffffff1673ffffffffffffffffffffffffffffffffffffffff16632421d9a4836040518263ffffffff1660e01b815260040161020b919061144e565b6020604051808303816000875af115801561022a573d6000803e3d6000fd5b505050506040513d601f19601f8201168201806040525081019061024e9190611485565b90508092505050919050565b600260009054906101000a900473ffffffffffffffffffffffffffffffffffffffff1681565b600090565b600080600160009054906101000a900473ffffffffffffffffffffffffffffffffffffffff1673ffffffffffffffffffffffffffffffffffffffff16637305424f84866040518363ffffffff1660e01b81526004016102e59291906114b2565b6020604051808303816000875af1158015610304573d6000803e3d6000fd5b505050506040513d601f19601f820116820180604052508101906103289190611485565b90508091505092915050565b600160009054906101000a900473ffffffffffffffffffffffffffffffffffffffff1681565b600460009054906101000a900473ffffffffffffffffffffffffffffffffffffffff1681565b60035481565b60008054906101000a900473ffffffffffffffffffffffffffffffffffffffff1681565b6103b2610cef565b600060038111156103c6576103c5610ecb565b5b8260038111156103d9576103d8610ecb565b5b036103ed576103e66104e5565b90506104e0565b6001600381111561040157610400610ecb565b5b82600381111561041457610413610ecb565b5b036104285761042161055f565b90506104e0565b6002600381111561043c5761043b610ecb565b5b82600381111561044f5761044e610ecb565b5b036104685761046160008060006105cc565b90506104e0565b60038081111561047b5761047a610ecb565b5b82600381111561048e5761048d610ecb565b5b036104a55761049e60008061063a565b90506104e0565b6040517f08c379a00000000000000000000000000000000000000000000000000000000081526004016104d790611538565b60405180910390fd5b919050565b6104ed610cef565b60006104f76106aa565b90506040518060a00160405280600115158152602001600073ffffffffffffffffffffffffffffffffffffffff16815260200160008152602001600073ffffffffffffffffffffffffffffffffffffffff1681526020016105566106aa565b81525091505090565b610567610cef565b6040518060a00160405280600115158152602001600073ffffffffffffffffffffffffffffffffffffffff16815260200160008152602001600073ffffffffffffffffffffffffffffffffffffffff1681526020016105c461083b565b815250905090565b6105d4610cef565b6040518060a001604052806001151581526020018373ffffffffffffffffffffffffffffffffffffffff1681526020018581526020018473ffffffffffffffffffffffffffffffffffffffff16815260200161062e6109cc565b81525090509392505050565b610642610cef565b6040518060a001604052806001151581526020018373ffffffffffffffffffffffffffffffffffffffff16815260200160008152602001600073ffffffffffffffffffffffffffffffffffffffff16815260200161069f85610b5d565b815250905092915050565b6106b2610d52565b604051806101a00160405280600015158152602001600015158152602001600015158152602001600073ffffffffffffffffffffffffffffffffffffffff168152602001604051806020016040528060008152508152602001600063ffffffff168152602001600015158152602001600015158152602001600015158152602001600015158152602001600067ffffffffffffffff81111561075757610756611558565b5b60405190808252806020026020018201604052801561078a57816020015b60608152602001906001900390816107755790505b508152602001600067ffffffffffffffff8111156107ab576107aa611558565b5b6040519080825280602002602001820160405280156107de57816020015b60608152602001906001900390816107c95790505b508152602001600067ffffffffffffffff8111156107ff576107fe611558565b5b60405190808252806020026020018201604052801561083257816020015b606081526020019060019003908161081d5790505b50815250905090565b610843610d52565b604051806101a00160405280600115158152602001600015158152602001600015158152602001600073ffffffffffffffffffffffffffffffffffffffff168152602001604051806020016040528060008152508152602001600063ffffffff168152602001600115158152602001600115158152602001600015158152602001600115158152602001600067ffffffffffffffff8111156108e8576108e7611558565b5b60405190808252806020026020018201604052801561091b57816020015b60608152602001906001900390816109065790505b508152602001600067ffffffffffffffff81111561093c5761093b611558565b5b60405190808252806020026020018201604052801561096f57816020015b606081526020019060019003908161095a5790505b508152602001600067ffffffffffffffff8111156109905761098f611558565b5b6040519080825280602002602001820160405280156109c357816020015b60608152602001906001900390816109ae5790505b50815250905090565b6109d4610d52565b604051806101a00160405280600115158152602001600115158152602001600115158152602001600073ffffffffffffffffffffffffffffffffffffffff168152602001604051806020016040528060008152508152602001600063ffffffff168152602001600115158152602001600115158152602001600015158152602001600015158152602001600067ffffffffffffffff811115610a7957610a78611558565b5b604051908082528060200260200182016040528015610aac57816020015b6060815260200190600190039081610a975790505b508152602001600067ffffffffffffffff811115610acd57610acc611558565b5b604051908082528060200260200182016040528015610b0057816020015b6060815260200190600190039081610aeb5790505b508152602001600067ffffffffffffffff811115610b2157610b20611558565b5b604051908082528060200260200182016040528015610b5457816020015b6060815260200190600190039081610b3f5790505b50815250905090565b610b65610d52565b604051806101a00160405280600115158152602001600115158152602001600115158152602001600073ffffffffffffffffffffffffffffffffffffffff1681526020016040518060200160405280600081525081526020018363ffffffff168152602001600115158152602001600115158152602001600015158152602001600115158152602001600067ffffffffffffffff811115610c0957610c08611558565b5b604051908082528060200260200182016040528015610c3c57816020015b6060815260200190600190039081610c275790505b508152602001600067ffffffffffffffff811115610c5d57610c5c611558565b5b604051908082528060200260200182016040528015610c9057816020015b6060815260200190600190039081610c7b5790505b508152602001600067ffffffffffffffff811115610cb157610cb0611558565b5b604051908082528060200260200182016040528015610ce457816020015b6060815260200190600190039081610ccf5790505b508152509050919050565b6040518060a00160405280600015158152602001600073ffffffffffffffffffffffffffffffffffffffff16815260200160008152602001600073ffffffffffffffffffffffffffffffffffffffff168152602001610d4c610d52565b81525090565b604051806101a00160405280600015158152602001600015158152602001600015158152602001600073ffffffffffffffffffffffffffffffffffffffff16815260200160608152602001600063ffffffff1681526020016000151581526020016000151581526020016000151581526020016000151581526020016060815260200160608152602001606081525090565b600080fd5b60048110610df657600080fd5b50565b600081359050610e0881610de9565b92915050565b600060208284031215610e2457610e23610de4565b5b6000610e3284828501610df9565b91505092915050565b6000819050919050565b610e4e81610e3b565b82525050565b6000602082019050610e696000830184610e45565b92915050565b600073ffffffffffffffffffffffffffffffffffffffff82169050919050565b6000610e9a82610e6f565b9050919050565b610eaa81610e8f565b82525050565b6000602082019050610ec56000830184610ea1565b92915050565b7f4e487b7100000000000000000000000000000000000000000000000000000000600052602160045260246000fd5b60048110610f0b57610f0a610ecb565b5b50565b6000819050610f1c82610efa565b919050565b6000610f2c82610f0e565b9050919050565b610f3c81610f21565b82525050565b6000602082019050610f576000830184610f33565b92915050565b610f6681610e3b565b8114610f7157600080fd5b50565b600081359050610f8381610f5d565b92915050565b610f9281610e8f565b8114610f9d57600080fd5b50565b600081359050610faf81610f89565b92915050565b60008060408385031215610fcc57610fcb610de4565b5b6000610fda85828601610f74565b9250506020610feb85828601610fa0565b9150509250929050565b6000819050919050565b600061101a61101561101084610e6f565b610ff5565b610e6f565b9050919050565b600061102c82610fff565b9050919050565b600061103e82611021565b9050919050565b61104e81611033565b82525050565b60006020820190506110696000830184611045565b92915050565b600061107a82611021565b9050919050565b61108a8161106f565b82525050565b60006020820190506110a56000830184611081565b92915050565b60008115159050919050565b6110c0816110ab565b82525050565b6110cf81610e8f565b82525050565b6110de81610e3b565b82525050565b600081519050919050565b600082825260208201905092915050565b60005b8381101561111e578082015181840152602081019050611103565b60008484015250505050565b6000601f19601f8301169050919050565b6000611146826110e4565b61115081856110ef565b9350611160818560208601611100565b6111698161112a565b840191505092915050565b600063ffffffff82169050919050565b61118d81611174565b82525050565b600081519050919050565b600082825260208201905092915050565b6000819050602082019050919050565b600081519050919050565b600082825260208201905092915050565b60006111e6826111bf565b6111f081856111ca565b9350611200818560208601611100565b6112098161112a565b840191505092915050565b600061122083836111db565b905092915050565b6000602082019050919050565b600061124082611193565b61124a818561119e565b93508360208202850161125c856111af565b8060005b8581101561129857848403895281516112798582611214565b945061128483611228565b925060208a01995050600181019050611260565b50829750879550505050505092915050565b60006101a0830160008301516112c360008601826110b7565b5060208301516112d660208601826110b7565b5060408301516112e960408601826110b7565b5060608301516112fc60608601826110c6565b5060808301518482036080860152611314828261113b565b91505060a083015161132960a0860182611184565b5060c083015161133c60c08601826110b7565b5060e083015161134f60e08601826110b7565b506101008301516113646101008601826110b7565b506101208301516113796101208601826110b7565b506101408301518482036101408601526113938282611235565b9150506101608301518482036101608601526113af8282611235565b9150506101808301518482036101808601526113cb8282611235565b9150508091505092915050565b600060a0830160008301516113f060008601826110b7565b50602083015161140360208601826110c6565b50604083015161141660408601826110d5565b50606083015161142960608601826110c6565b506080830151848203608086015261144182826112aa565b9150508091505092915050565b6000602082019050818103600083015261146881846113d8565b905092915050565b60008151905061147f81610f5d565b92915050565b60006020828403121561149b5761149a610de4565b5b60006114a984828501611470565b91505092915050565b60006040820190506114c76000830185610ea1565b6114d46020830184610e45565b9392505050565b600082825260208201905092915050565b7f496e76616c696420706f6c69637920666c61766f720000000000000000000000600082015250565b60006115226015836114db565b915061152d826114ec565b602082019050919050565b6000602082019050818103600083015261155181611515565b9050919050565b7f4e487b7100000000000000000000000000000000000000000000000000000000600052604160045260246000fdfea2646970667358221220869b0b603cf82737d7bba058c289072db21002f3b15c8c56402834cac388084d64736f6c63430008170033",
  "linkReferences": {},
  "deployedLinkReferences": {}
}