{
  "_format": "hh-sol-artifact-1",
  "contractName": "IPAPolicyCreation",
  "sourceName": "contracts/IPAPolicyCreation.sol",
  "abi": [
    {
      "inputs": [
        {
          "internalType": "address",
          "name": "royaltyPolicy",
          "type": "address"
        },
        {
          "internalType": "uint256",
          "name": "mintingFee",
          "type": "uint256"
        },
        {
          "internalType": "address",
          "name": "mintingFeeToken",
          "type": "address"
        },
        {
          "internalType": "address",
          "name": "spg",
          "type": "address"
        }
      ],
      "stateMutability": "nonpayable",
      "type": "constructor"
    },
    {
      "inputs": [],
      "name": "MINTING_FEE",
      "outputs": [
        {
          "internalType": "uint256",
          "name": "",
          "type": "uint256"
        }
      ],
      "stateMutability": "view",
      "type": "function"
    },
    {
      "inputs": [],
      "name": "MINTING_FEE_TOKEN",
      "outputs": [
        {
          "internalType": "address",
          "name": "",
          "type": "address"
        }
      ],
      "stateMutability": "view",
      "type": "function"
    },
    {
      "inputs": [],
      "name": "ROYALTY_POLICY",
      "outputs": [
        {
          "internalType": "address",
          "name": "",
          "type": "address"
        }
      ],
      "stateMutability": "view",
      "type": "function"
    },
    {
      "inputs": [],
      "name": "SPG",
      "outputs": [
        {
          "internalType": "contract StoryProtocolGateway",
          "name": "",
          "type": "address"
        }
      ],
      "stateMutability": "view",
      "type": "function"
    },
    {
      "inputs": [
        {
          "components": [
            {
              "internalType": "bool",
              "name": "attribution",
              "type": "bool"
            },
            {
              "internalType": "bool",
              "name": "commercialUse",
              "type": "bool"
            },
            {
              "internalType": "bool",
              "name": "commercialAttribution",
              "type": "bool"
            },
            {
              "internalType": "address",
              "name": "commercializerChecker",
              "type": "address"
            },
            {
              "internalType": "bytes",
              "name": "commercializerCheckerData",
              "type": "bytes"
            },
            {
              "internalType": "uint32",
              "name": "commercialRevShare",
              "type": "uint32"
            },
            {
              "internalType": "bool",
              "name": "derivativesAllowed",
              "type": "bool"
            },
            {
              "internalType": "bool",
              "name": "derivativesAttribution",
              "type": "bool"
            },
            {
              "internalType": "bool",
              "name": "derivativesApproval",
              "type": "bool"
            },
            {
              "internalType": "bool",
              "name": "derivativesReciprocal",
              "type": "bool"
            },
            {
              "internalType": "string[]",
              "name": "territories",
              "type": "string[]"
            },
            {
              "internalType": "string[]",
              "name": "distributionChannels",
              "type": "string[]"
            },
            {
              "internalType": "string[]",
              "name": "contentRestrictions",
              "type": "string[]"
            }
          ],
          "internalType": "struct PILPolicy",
          "name": "pilPolicy",
          "type": "tuple"
        },
        {
          "internalType": "address",
          "name": "ipId",
          "type": "address"
        }
      ],
      "name": "addPolicyToIPA",
      "outputs": [],
      "stateMutability": "nonpayable",
      "type": "function"
    },
    {
      "inputs": [
        {
          "components": [
            {
              "internalType": "bool",
              "name": "attribution",
              "type": "bool"
            },
            {
              "internalType": "bool",
              "name": "commercialUse",
              "type": "bool"
            },
            {
              "internalType": "bool",
              "name": "commercialAttribution",
              "type": "bool"
            },
            {
              "internalType": "address",
              "name": "commercializerChecker",
              "type": "address"
            },
            {
              "internalType": "bytes",
              "name": "commercializerCheckerData",
              "type": "bytes"
            },
            {
              "internalType": "uint32",
              "name": "commercialRevShare",
              "type": "uint32"
            },
            {
              "internalType": "bool",
              "name": "derivativesAllowed",
              "type": "bool"
            },
            {
              "internalType": "bool",
              "name": "derivativesAttribution",
              "type": "bool"
            },
            {
              "internalType": "bool",
              "name": "derivativesApproval",
              "type": "bool"
            },
            {
              "internalType": "bool",
              "name": "derivativesReciprocal",
              "type": "bool"
            },
            {
              "internalType": "string[]",
              "name": "territories",
              "type": "string[]"
            },
            {
              "internalType": "string[]",
              "name": "distributionChannels",
              "type": "string[]"
            },
            {
              "internalType": "string[]",
              "name": "contentRestrictions",
              "type": "string[]"
            }
          ],
          "internalType": "struct PILPolicy",
          "name": "pilPolicy",
          "type": "tuple"
        }
      ],
      "name": "registerPolicy",
      "outputs": [],
      "stateMutability": "nonpayable",
      "type": "function"
    }
  ],
  "bytecode": "0x60806040523480156200001157600080fd5b5060405162001110380380620011108339818101604052810190620000379190620001af565b83600160006101000a81548173ffffffffffffffffffffffffffffffffffffffff021916908373ffffffffffffffffffffffffffffffffffffffff1602179055508260028190555081600360006101000a81548173ffffffffffffffffffffffffffffffffffffffff021916908373ffffffffffffffffffffffffffffffffffffffff160217905550806000806101000a81548173ffffffffffffffffffffffffffffffffffffffff021916908373ffffffffffffffffffffffffffffffffffffffff1602179055505050505062000221565b600080fd5b600073ffffffffffffffffffffffffffffffffffffffff82169050919050565b60006200013c826200010f565b9050919050565b6200014e816200012f565b81146200015a57600080fd5b50565b6000815190506200016e8162000143565b92915050565b6000819050919050565b620001898162000174565b81146200019557600080fd5b50565b600081519050620001a9816200017e565b92915050565b60008060008060808587031215620001cc57620001cb6200010a565b5b6000620001dc878288016200015d565b9450506020620001ef8782880162000198565b935050604062000202878288016200015d565b925050606062000215878288016200015d565b91505092959194509250565b610edf80620002316000396000f3fe608060405234801561001057600080fd5b50600436106100625760003560e01c80632ef472791461006757806366e89edd14610085578063c8deacf6146100a3578063cd5146af146100bf578063d642b4b1146100dd578063e0ad2453146100fb575b600080fd5b61006f610117565b60405161007c91906103ad565b60405180910390f35b61008d61013d565b60405161009a91906103ad565b60405180910390f35b6100bd60048036038101906100b891906108fb565b610163565b005b6100c7610254565b6040516100d491906109b6565b60405180910390f35b6100e5610278565b6040516100f291906109ea565b60405180910390f35b61011560048036038101906101109190610a05565b61027e565b005b600160009054906101000a900473ffffffffffffffffffffffffffffffffffffffff1681565b600360009054906101000a900473ffffffffffffffffffffffffffffffffffffffff1681565b60008054906101000a900473ffffffffffffffffffffffffffffffffffffffff1673ffffffffffffffffffffffffffffffffffffffff16632c9ee2b98360018060009054906101000a900473ffffffffffffffffffffffffffffffffffffffff16600254600360009054906101000a900473ffffffffffffffffffffffffffffffffffffffff16876040518763ffffffff1660e01b815260040161020c96959493929190610d4e565b60408051808303816000875af115801561022a573d6000803e3d6000fd5b505050506040513d601f19601f8201168201806040525081019061024e9190610de2565b50505050565b60008054906101000a900473ffffffffffffffffffffffffffffffffffffffff1681565b60025481565b60008054906101000a900473ffffffffffffffffffffffffffffffffffffffff1673ffffffffffffffffffffffffffffffffffffffff16635d197c968260018060009054906101000a900473ffffffffffffffffffffffffffffffffffffffff16600254600360009054906101000a900473ffffffffffffffffffffffffffffffffffffffff166040518663ffffffff1660e01b8152600401610325959493929190610e22565b6020604051808303816000875af1158015610344573d6000803e3d6000fd5b505050506040513d601f19601f820116820180604052508101906103689190610e7c565b5050565b600073ffffffffffffffffffffffffffffffffffffffff82169050919050565b60006103978261036c565b9050919050565b6103a78161038c565b82525050565b60006020820190506103c2600083018461039e565b92915050565b6000604051905090565b600080fd5b600080fd5b600080fd5b6000601f19601f8301169050919050565b7f4e487b7100000000000000000000000000000000000000000000000000000000600052604160045260246000fd5b61042a826103e1565b810181811067ffffffffffffffff82111715610449576104486103f2565b5b80604052505050565b600061045c6103c8565b90506104688282610421565b919050565b600080fd5b60008115159050919050565b61048781610472565b811461049257600080fd5b50565b6000813590506104a48161047e565b92915050565b6104b38161038c565b81146104be57600080fd5b50565b6000813590506104d0816104aa565b92915050565b600080fd5b600080fd5b600067ffffffffffffffff8211156104fb576104fa6103f2565b5b610504826103e1565b9050602081019050919050565b82818337600083830152505050565b600061053361052e846104e0565b610452565b90508281526020810184848401111561054f5761054e6104db565b5b61055a848285610511565b509392505050565b600082601f830112610577576105766104d6565b5b8135610587848260208601610520565b91505092915050565b600063ffffffff82169050919050565b6105a981610590565b81146105b457600080fd5b50565b6000813590506105c6816105a0565b92915050565b600067ffffffffffffffff8211156105e7576105e66103f2565b5b602082029050602081019050919050565b600080fd5b600067ffffffffffffffff821115610618576106176103f2565b5b610621826103e1565b9050602081019050919050565b600061064161063c846105fd565b610452565b90508281526020810184848401111561065d5761065c6104db565b5b610668848285610511565b509392505050565b600082601f830112610685576106846104d6565b5b813561069584826020860161062e565b91505092915050565b60006106b16106ac846105cc565b610452565b905080838252602082019050602084028301858111156106d4576106d36105f8565b5b835b8181101561071b57803567ffffffffffffffff8111156106f9576106f86104d6565b5b8086016107068982610670565b855260208501945050506020810190506106d6565b5050509392505050565b600082601f83011261073a576107396104d6565b5b813561074a84826020860161069e565b91505092915050565b60006101a0828403121561076a576107696103dc565b5b6107756101a0610452565b9050600061078584828501610495565b600083015250602061079984828501610495565b60208301525060406107ad84828501610495565b60408301525060606107c1848285016104c1565b606083015250608082013567ffffffffffffffff8111156107e5576107e461046d565b5b6107f184828501610562565b60808301525060a0610805848285016105b7565b60a08301525060c061081984828501610495565b60c08301525060e061082d84828501610495565b60e08301525061010061084284828501610495565b6101008301525061012061085884828501610495565b6101208301525061014082013567ffffffffffffffff81111561087e5761087d61046d565b5b61088a84828501610725565b6101408301525061016082013567ffffffffffffffff8111156108b0576108af61046d565b5b6108bc84828501610725565b6101608301525061018082013567ffffffffffffffff8111156108e2576108e161046d565b5b6108ee84828501610725565b6101808301525092915050565b60008060408385031215610912576109116103d2565b5b600083013567ffffffffffffffff8111156109305761092f6103d7565b5b61093c85828601610753565b925050602061094d858286016104c1565b9150509250929050565b6000819050919050565b600061097c6109776109728461036c565b610957565b61036c565b9050919050565b600061098e82610961565b9050919050565b60006109a082610983565b9050919050565b6109b081610995565b82525050565b60006020820190506109cb60008301846109a7565b92915050565b6000819050919050565b6109e4816109d1565b82525050565b60006020820190506109ff60008301846109db565b92915050565b600060208284031215610a1b57610a1a6103d2565b5b600082013567ffffffffffffffff811115610a3957610a386103d7565b5b610a4584828501610753565b91505092915050565b610a5781610472565b82525050565b610a668161038c565b82525050565b600081519050919050565b600082825260208201905092915050565b60005b83811015610aa6578082015181840152602081019050610a8b565b60008484015250505050565b6000610abd82610a6c565b610ac78185610a77565b9350610ad7818560208601610a88565b610ae0816103e1565b840191505092915050565b610af481610590565b82525050565b600081519050919050565b600082825260208201905092915050565b6000819050602082019050919050565b600081519050919050565b600082825260208201905092915050565b6000610b4d82610b26565b610b578185610b31565b9350610b67818560208601610a88565b610b70816103e1565b840191505092915050565b6000610b878383610b42565b905092915050565b6000602082019050919050565b6000610ba782610afa565b610bb18185610b05565b935083602082028501610bc385610b16565b8060005b85811015610bff5784840389528151610be08582610b7b565b9450610beb83610b8f565b925060208a01995050600181019050610bc7565b50829750879550505050505092915050565b60006101a083016000830151610c2a6000860182610a4e565b506020830151610c3d6020860182610a4e565b506040830151610c506040860182610a4e565b506060830151610c636060860182610a5d565b5060808301518482036080860152610c7b8282610ab2565b91505060a0830151610c9060a0860182610aeb565b5060c0830151610ca360c0860182610a4e565b5060e0830151610cb660e0860182610a4e565b50610100830151610ccb610100860182610a4e565b50610120830151610ce0610120860182610a4e565b50610140830151848203610140860152610cfa8282610b9c565b915050610160830151848203610160860152610d168282610b9c565b915050610180830151848203610180860152610d328282610b9c565b9150508091505092915050565b610d4881610472565b82525050565b600060c0820190508181036000830152610d688189610c11565b9050610d776020830188610d3f565b610d84604083018761039e565b610d9160608301866109db565b610d9e608083018561039e565b610dab60a083018461039e565b979650505050505050565b610dbf816109d1565b8114610dca57600080fd5b50565b600081519050610ddc81610db6565b92915050565b60008060408385031215610df957610df86103d2565b5b6000610e0785828601610dcd565b9250506020610e1885828601610dcd565b9150509250929050565b600060a0820190508181036000830152610e3c8188610c11565b9050610e4b6020830187610d3f565b610e58604083018661039e565b610e6560608301856109db565b610e72608083018461039e565b9695505050505050565b600060208284031215610e9257610e916103d2565b5b6000610ea084828501610dcd565b9150509291505056fea26469706673582212200d70d7e21f3b3c0ef5ce2e7708c9efb5b97b616a89cb1b0f0817ac717a12539764736f6c63430008170033",
  "linkReferences": {},
  "deployedLinkReferences": {}
}