{
  "_format": "hh-sol-artifact-1",
  "contractName": "IPARegistrar",
  "sourceName": "contracts/IPARegistrar.sol",
  "abi": [
    {
      "inputs": [
        {
          "internalType": "address",
          "name": "ipAssetRegistry",
          "type": "address"
        },
        {
          "internalType": "address",
          "name": "resolver",
          "type": "address"
        },
        {
          "internalType": "address",
          "name": "nft",
          "type": "address"
        }
      ],
      "stateMutability": "nonpayable",
      "type": "constructor"
    },
    {
      "anonymous": false,
      "inputs": [
        {
          "indexed": true,
          "internalType": "uint256",
          "name": "tokenId",
          "type": "uint256"
        },
        {
          "indexed": true,
          "internalType": "address",
          "name": "to",
          "type": "address"
        }
      ],
      "name": "ModelNFTMint",
      "type": "event"
    },
    {
      "inputs": [],
      "name": "IPA_REGISTRY",
      "outputs": [
        {
          "internalType": "contract IPAssetRegistry",
          "name": "",
          "type": "address"
        }
      ],
      "stateMutability": "view",
      "type": "function"
    },
    {
      "inputs": [],
      "name": "IP_RESOLVER",
      "outputs": [
        {
          "internalType": "address",
          "name": "",
          "type": "address"
        }
      ],
      "stateMutability": "view",
      "type": "function"
    },
    {
      "inputs": [],
      "name": "NFT",
      "outputs": [
        {
          "internalType": "contract IModelNFT",
          "name": "",
          "type": "address"
        }
      ],
      "stateMutability": "view",
      "type": "function"
    },
    {
      "inputs": [],
      "name": "getAllModelInfo",
      "outputs": [
        {
          "components": [
            {
              "internalType": "uint256",
              "name": "tokenId",
              "type": "uint256"
            },
            {
              "components": [
                {
                  "internalType": "address",
                  "name": "creator",
                  "type": "address"
                },
                {
                  "internalType": "string",
                  "name": "createdAt",
                  "type": "string"
                },
                {
                  "internalType": "string",
                  "name": "numParams",
                  "type": "string"
                },
                {
                  "internalType": "string",
                  "name": "modelName",
                  "type": "string"
                }
              ],
              "internalType": "struct IPARegistrar.ModelInfo",
              "name": "modelInfo",
              "type": "tuple"
            }
          ],
          "internalType": "struct IPARegistrar.TokenModelInfo[]",
          "name": "",
          "type": "tuple[]"
        }
      ],
      "stateMutability": "view",
      "type": "function"
    },
    {
      "inputs": [
        {
          "internalType": "uint256",
          "name": "tokenId",
          "type": "uint256"
        }
      ],
      "name": "getModelInfo",
      "outputs": [
        {
          "components": [
            {
              "internalType": "address",
              "name": "creator",
              "type": "address"
            },
            {
              "internalType": "string",
              "name": "createdAt",
              "type": "string"
            },
            {
              "internalType": "string",
              "name": "numParams",
              "type": "string"
            },
            {
              "internalType": "string",
              "name": "modelName",
              "type": "string"
            }
          ],
          "internalType": "struct IPARegistrar.ModelInfo",
          "name": "",
          "type": "tuple"
        }
      ],
      "stateMutability": "view",
      "type": "function"
    },
    {
      "inputs": [
        {
          "internalType": "string",
          "name": "ipName",
          "type": "string"
        },
        {
          "internalType": "string",
          "name": "createdAt",
          "type": "string"
        },
        {
          "internalType": "string",
          "name": "numParams",
          "type": "string"
        },
        {
          "internalType": "string",
          "name": "modelName",
          "type": "string"
        }
      ],
      "name": "register",
      "outputs": [
        {
          "internalType": "address",
          "name": "",
          "type": "address"
        }
      ],
      "stateMutability": "nonpayable",
      "type": "function"
    }
  ],
  "bytecode": "0x60e06040523480156200001157600080fd5b506040516200183b3803806200183b833981810160405281019062000037919062000146565b8273ffffffffffffffffffffffffffffffffffffffff1660c08173ffffffffffffffffffffffffffffffffffffffff16815250508173ffffffffffffffffffffffffffffffffffffffff1660a08173ffffffffffffffffffffffffffffffffffffffff16815250508073ffffffffffffffffffffffffffffffffffffffff1660808173ffffffffffffffffffffffffffffffffffffffff1681525050505050620001a2565b600080fd5b600073ffffffffffffffffffffffffffffffffffffffff82169050919050565b60006200010e82620000e1565b9050919050565b620001208162000101565b81146200012c57600080fd5b50565b600081519050620001408162000115565b92915050565b600080600060608486031215620001625762000161620000dc565b5b600062000172868287016200012f565b935050602062000185868287016200012f565b925050604062000198868287016200012f565b9150509250925092565b60805160a05160c05161163f620001fc60003960008181610408015261054501526000818161046801526104fd0152600081816102ed01528181610446015281816105210152818161056d0152610663015261163f6000f3fe608060405234801561001057600080fd5b50600436106100625760003560e01c80630e24c52c1461006757806339ff42fb146100975780637c0b8de2146100b5578063d2faf8b0146100d3578063d4d168a2146100f1578063efb66ee81461010f575b600080fd5b610081600480360381019061007c9190610b45565b61013f565b60405161008e9190610c5d565b60405180910390f35b61009f6104fb565b6040516100ac9190610c5d565b60405180910390f35b6100bd61051f565b6040516100ca9190610cd7565b60405180910390f35b6100db610543565b6040516100e89190610d13565b60405180910390f35b6100f9610567565b6040516101069190610f45565b60405180910390f35b61012960048036038101906101249190610f93565b610755565b6040516101369190611031565b60405180910390f35b60008060405180608001604052803373ffffffffffffffffffffffffffffffffffffffff16815260200186815260200185815260200184815250905080600080600254815260200190815260200160002060008201518160000160006101000a81548173ffffffffffffffffffffffffffffffffffffffff021916908373ffffffffffffffffffffffffffffffffffffffff16021790555060208201518160010190816101ec9190611255565b5060408201518160020190816102029190611255565b5060608201518160030190816102189190611255565b5090505060405180604001604052806002548152602001828152506001600060025481526020019081526020016000206000820151816000015560208201518160010160008201518160000160006101000a81548173ffffffffffffffffffffffffffffffffffffffff021916908373ffffffffffffffffffffffffffffffffffffffff16021790555060208201518160010190816102b79190611255565b5060408201518160020190816102cd9190611255565b5060608201518160030190816102e39190611255565b50505090505060007f000000000000000000000000000000000000000000000000000000000000000073ffffffffffffffffffffffffffffffffffffffff16636e91a358336040518263ffffffff1660e01b81526004016103449190610c5d565b6020604051808303816000875af1158015610363573d6000803e3d6000fd5b505050506040513d601f19601f82011682018060405250810190610387919061133c565b905060006040518060a00160405280898152602001600080191681526020014267ffffffffffffffff1681526020013373ffffffffffffffffffffffffffffffffffffffff168152602001604051806020016040528060008152508152506040516020016103f59190611422565b60405160208183030381529060405290507f000000000000000000000000000000000000000000000000000000000000000073ffffffffffffffffffffffffffffffffffffffff166306d61f3d60017f0000000000000000000000000000000000000000000000000000000000000000857f00000000000000000000000000000000000000000000000000000000000000006001876040518763ffffffff1660e01b81526004016104ab969594939291906114fe565b6020604051808303816000875af11580156104ca573d6000803e3d6000fd5b505050506040513d601f19601f820116820180604052508101906104ee9190611592565b9350505050949350505050565b7f000000000000000000000000000000000000000000000000000000000000000081565b7f000000000000000000000000000000000000000000000000000000000000000081565b7f000000000000000000000000000000000000000000000000000000000000000081565b606060007f000000000000000000000000000000000000000000000000000000000000000073ffffffffffffffffffffffffffffffffffffffff1663c4e41b226040518163ffffffff1660e01b8152600401602060405180830381865afa1580156105d6573d6000803e3d6000fd5b505050506040513d601f19601f820116820180604052508101906105fa919061133c565b905060008167ffffffffffffffff81111561061857610617610a1a565b5b60405190808252806020026020018201604052801561065157816020015b61063e61098d565b8152602001906001900390816106365790505b50905060005b8281101561074c5760007f000000000000000000000000000000000000000000000000000000000000000073ffffffffffffffffffffffffffffffffffffffff1663644b7a43836040518263ffffffff1660e01b81526004016106ba91906115bf565b602060405180830381865afa1580156106d7573d6000803e3d6000fd5b505050506040513d601f19601f820116820180604052508101906106fb919061133c565b9050600061070882610755565b9050604051806040016040528083815260200182815250848481518110610732576107316115da565b5b602002602001018190525050508080600101915050610657565b50809250505090565b61075d6109ad565b6000808381526020019081526020016000206040518060800160405290816000820160009054906101000a900473ffffffffffffffffffffffffffffffffffffffff1673ffffffffffffffffffffffffffffffffffffffff1673ffffffffffffffffffffffffffffffffffffffff1681526020016001820180546107e090611082565b80601f016020809104026020016040519081016040528092919081815260200182805461080c90611082565b80156108595780601f1061082e57610100808354040283529160200191610859565b820191906000526020600020905b81548152906001019060200180831161083c57829003601f168201915b5050505050815260200160028201805461087290611082565b80601f016020809104026020016040519081016040528092919081815260200182805461089e90611082565b80156108eb5780601f106108c0576101008083540402835291602001916108eb565b820191906000526020600020905b8154815290600101906020018083116108ce57829003601f168201915b5050505050815260200160038201805461090490611082565b80601f016020809104026020016040519081016040528092919081815260200182805461093090611082565b801561097d5780601f106109525761010080835404028352916020019161097d565b820191906000526020600020905b81548152906001019060200180831161096057829003601f168201915b5050505050815250509050919050565b6040518060400160405280600081526020016109a76109ad565b81525090565b6040518060800160405280600073ffffffffffffffffffffffffffffffffffffffff1681526020016060815260200160608152602001606081525090565b6000604051905090565b600080fd5b600080fd5b600080fd5b600080fd5b6000601f19601f8301169050919050565b7f4e487b7100000000000000000000000000000000000000000000000000000000600052604160045260246000fd5b610a5282610a09565b810181811067ffffffffffffffff82111715610a7157610a70610a1a565b5b80604052505050565b6000610a846109eb565b9050610a908282610a49565b919050565b600067ffffffffffffffff821115610ab057610aaf610a1a565b5b610ab982610a09565b9050602081019050919050565b82818337600083830152505050565b6000610ae8610ae384610a95565b610a7a565b905082815260208101848484011115610b0457610b03610a04565b5b610b0f848285610ac6565b509392505050565b600082601f830112610b2c57610b2b6109ff565b5b8135610b3c848260208601610ad5565b91505092915050565b60008060008060808587031215610b5f57610b5e6109f5565b5b600085013567ffffffffffffffff811115610b7d57610b7c6109fa565b5b610b8987828801610b17565b945050602085013567ffffffffffffffff811115610baa57610ba96109fa565b5b610bb687828801610b17565b935050604085013567ffffffffffffffff811115610bd757610bd66109fa565b5b610be387828801610b17565b925050606085013567ffffffffffffffff811115610c0457610c036109fa565b5b610c1087828801610b17565b91505092959194509250565b600073ffffffffffffffffffffffffffffffffffffffff82169050919050565b6000610c4782610c1c565b9050919050565b610c5781610c3c565b82525050565b6000602082019050610c726000830184610c4e565b92915050565b6000819050919050565b6000610c9d610c98610c9384610c1c565b610c78565b610c1c565b9050919050565b6000610caf82610c82565b9050919050565b6000610cc182610ca4565b9050919050565b610cd181610cb6565b82525050565b6000602082019050610cec6000830184610cc8565b92915050565b6000610cfd82610ca4565b9050919050565b610d0d81610cf2565b82525050565b6000602082019050610d286000830184610d04565b92915050565b600081519050919050565b600082825260208201905092915050565b6000819050602082019050919050565b6000819050919050565b610d6d81610d5a565b82525050565b610d7c81610c3c565b82525050565b600081519050919050565b600082825260208201905092915050565b60005b83811015610dbc578082015181840152602081019050610da1565b60008484015250505050565b6000610dd382610d82565b610ddd8185610d8d565b9350610ded818560208601610d9e565b610df681610a09565b840191505092915050565b6000608083016000830151610e196000860182610d73565b5060208301518482036020860152610e318282610dc8565b91505060408301518482036040860152610e4b8282610dc8565b91505060608301518482036060860152610e658282610dc8565b9150508091505092915050565b6000604083016000830151610e8a6000860182610d64565b5060208301518482036020860152610ea28282610e01565b9150508091505092915050565b6000610ebb8383610e72565b905092915050565b6000602082019050919050565b6000610edb82610d2e565b610ee58185610d39565b935083602082028501610ef785610d4a565b8060005b85811015610f335784840389528151610f148582610eaf565b9450610f1f83610ec3565b925060208a01995050600181019050610efb565b50829750879550505050505092915050565b60006020820190508181036000830152610f5f8184610ed0565b905092915050565b610f7081610d5a565b8114610f7b57600080fd5b50565b600081359050610f8d81610f67565b92915050565b600060208284031215610fa957610fa86109f5565b5b6000610fb784828501610f7e565b91505092915050565b6000608083016000830151610fd86000860182610d73565b5060208301518482036020860152610ff08282610dc8565b9150506040830151848203604086015261100a8282610dc8565b915050606083015184820360608601526110248282610dc8565b9150508091505092915050565b6000602082019050818103600083015261104b8184610fc0565b905092915050565b7f4e487b7100000000000000000000000000000000000000000000000000000000600052602260045260246000fd5b6000600282049050600182168061109a57607f821691505b6020821081036110ad576110ac611053565b5b50919050565b60008190508160005260206000209050919050565b60006020601f8301049050919050565b600082821b905092915050565b6000600883026111157fffffffffffffffffffffffffffffffffffffffffffffffffffffffffffffffff826110d8565b61111f86836110d8565b95508019841693508086168417925050509392505050565b600061115261114d61114884610d5a565b610c78565b610d5a565b9050919050565b6000819050919050565b61116c83611137565b61118061117882611159565b8484546110e5565b825550505050565b600090565b611195611188565b6111a0818484611163565b505050565b5b818110156111c4576111b960008261118d565b6001810190506111a6565b5050565b601f821115611209576111da816110b3565b6111e3846110c8565b810160208510156111f2578190505b6112066111fe856110c8565b8301826111a5565b50505b505050565b600082821c905092915050565b600061122c6000198460080261120e565b1980831691505092915050565b6000611245838361121b565b9150826002028217905092915050565b61125e82610d82565b67ffffffffffffffff81111561127757611276610a1a565b5b6112818254611082565b61128c8282856111c8565b600060209050601f8311600181146112bf57600084156112ad578287015190505b6112b78582611239565b86555061131f565b601f1984166112cd866110b3565b60005b828110156112f5578489015182556001820191506020850194506020810190506112d0565b86831015611312578489015161130e601f89168261121b565b8355505b6001600288020188555050505b505050505050565b60008151905061133681610f67565b92915050565b600060208284031215611352576113516109f5565b5b600061136084828501611327565b91505092915050565b6000819050919050565b61137c81611369565b82525050565b600067ffffffffffffffff82169050919050565b61139f81611382565b82525050565b600060a08301600083015184820360008601526113c28282610dc8565b91505060208301516113d76020860182611373565b5060408301516113ea6040860182611396565b5060608301516113fd6060860182610d73565b50608083015184820360808601526114158282610dc8565b9150508091505092915050565b6000602082019050818103600083015261143c81846113a5565b905092915050565b6000819050919050565b600061146961146461145f84611444565b610c78565b610d5a565b9050919050565b6114798161144e565b82525050565b61148881610d5a565b82525050565b60008115159050919050565b6114a38161148e565b82525050565b600081519050919050565b600082825260208201905092915050565b60006114d0826114a9565b6114da81856114b4565b93506114ea818560208601610d9e565b6114f381610a09565b840191505092915050565b600060c0820190506115136000830189611470565b6115206020830188610c4e565b61152d604083018761147f565b61153a6060830186610c4e565b611547608083018561149a565b81810360a083015261155981846114c5565b9050979650505050505050565b61156f81610c3c565b811461157a57600080fd5b50565b60008151905061158c81611566565b92915050565b6000602082840312156115a8576115a76109f5565b5b60006115b68482850161157d565b91505092915050565b60006020820190506115d4600083018461147f565b92915050565b7f4e487b7100000000000000000000000000000000000000000000000000000000600052603260045260246000fdfea264697066735822122087c28d7209fd772af30b81c768dde7f1eb113f3cd637def2f4289d61ce3b9bd364736f6c63430008170033",
  "linkReferences": {},
  "deployedLinkReferences": {}
}