{
  "_format": "hh-sol-artifact-1",
  "contractName": "IPARegistrar",
  "sourceName": "contracts/RegistrarIPA.sol",
  "abi": [
    {
      "inputs": [
        {
          "internalType": "address",
          "name": "ipAssetRegistry",
          "type": "address"
        },
        {
          "internalType": "address",
          "name": "resolver",
          "type": "address"
        },
        {
          "internalType": "contract IModelNFT",
          "name": "nft",
          "type": "address"
        }
      ],
      "stateMutability": "nonpayable",
      "type": "constructor"
    },
    {
      "inputs": [],
      "name": "IPA_REGISTRY",
      "outputs": [
        {
          "internalType": "contract IPAssetRegistry",
          "name": "",
          "type": "address"
        }
      ],
      "stateMutability": "view",
      "type": "function"
    },
    {
      "inputs": [],
      "name": "IP_RESOLVER",
      "outputs": [
        {
          "internalType": "address",
          "name": "",
          "type": "address"
        }
      ],
      "stateMutability": "view",
      "type": "function"
    },
    {
      "inputs": [],
      "name": "NFT",
      "outputs": [
        {
          "internalType": "contract IModelNFT",
          "name": "",
          "type": "address"
        }
      ],
      "stateMutability": "view",
      "type": "function"
    },
    {
      "inputs": [
        {
          "internalType": "string",
          "name": "ipName",
          "type": "string"
        },
        {
          "internalType": "string",
          "name": "createdAt",
          "type": "string"
        },
        {
          "internalType": "string",
          "name": "numParams",
          "type": "string"
        },
        {
          "internalType": "string",
          "name": "modelName",
          "type": "string"
        }
      ],
      "name": "register",
      "outputs": [
        {
          "internalType": "address",
          "name": "",
          "type": "address"
        }
      ],
      "stateMutability": "nonpayable",
      "type": "function"
    }
  ],
  "bytecode": "0x60e06040523480156200001157600080fd5b5060405162000e2e38038062000e2e83398181016040528101906200003791906200018b565b8273ffffffffffffffffffffffffffffffffffffffff1660c08173ffffffffffffffffffffffffffffffffffffffff16815250508173ffffffffffffffffffffffffffffffffffffffff1660a08173ffffffffffffffffffffffffffffffffffffffff16815250508073ffffffffffffffffffffffffffffffffffffffff1660808173ffffffffffffffffffffffffffffffffffffffff1681525050505050620001e7565b600080fd5b600073ffffffffffffffffffffffffffffffffffffffff82169050919050565b60006200010e82620000e1565b9050919050565b620001208162000101565b81146200012c57600080fd5b50565b600081519050620001408162000115565b92915050565b6000620001538262000101565b9050919050565b620001658162000146565b81146200017157600080fd5b50565b60008151905062000185816200015a565b92915050565b600080600060608486031215620001a757620001a6620000dc565b5b6000620001b7868287016200012f565b9350506020620001ca868287016200012f565b9250506040620001dd8682870162000174565b9150509250925092565b60805160a05160c051610bf562000239600039600081816102c4015261040101526000818161032401526103b901526000818160e2015281816101b80152818161030201526103dd0152610bf56000f3fe608060405234801561001057600080fd5b506004361061004c5760003560e01c80630e24c52c1461005157806339ff42fb146100815780637c0b8de21461009f578063d2faf8b0146100bd575b600080fd5b61006b6004803603810190610066919061057d565b6100db565b6040516100789190610695565b60405180910390f35b6100896103b7565b6040516100969190610695565b60405180910390f35b6100a76103db565b6040516100b4919061070f565b60405180910390f35b6100c56103ff565b6040516100d2919061074b565b60405180910390f35b60008060017f000000000000000000000000000000000000000000000000000000000000000073ffffffffffffffffffffffffffffffffffffffff166318160ddd6040518163ffffffff1660e01b8152600401602060405180830381865afa15801561014b573d6000803e3d6000fd5b505050506040513d601f19601f8201168201806040525081019061016f919061079c565b61017991906107f8565b9050600060405180608001604052803373ffffffffffffffffffffffffffffffffffffffff1681526020018781526020018681526020018581525090507f000000000000000000000000000000000000000000000000000000000000000073ffffffffffffffffffffffffffffffffffffffff1663a7888fba3384846040518463ffffffff1660e01b81526004016102139392919061093a565b600060405180830381600087803b15801561022d57600080fd5b505af1158015610241573d6000803e3d6000fd5b5050505060006040518060a00160405280898152602001600080191681526020014267ffffffffffffffff1681526020013373ffffffffffffffffffffffffffffffffffffffff168152602001604051806020016040528060008152508152506040516020016102b19190610a31565b60405160208183030381529060405290507f000000000000000000000000000000000000000000000000000000000000000073ffffffffffffffffffffffffffffffffffffffff166306d61f3d60017f0000000000000000000000000000000000000000000000000000000000000000867f00000000000000000000000000000000000000000000000000000000000000006001876040518763ffffffff1660e01b815260040161036796959493929190610afe565b6020604051808303816000875af1158015610386573d6000803e3d6000fd5b505050506040513d601f19601f820116820180604052508101906103aa9190610b92565b9350505050949350505050565b7f000000000000000000000000000000000000000000000000000000000000000081565b7f000000000000000000000000000000000000000000000000000000000000000081565b7f000000000000000000000000000000000000000000000000000000000000000081565b6000604051905090565b600080fd5b600080fd5b600080fd5b600080fd5b6000601f19601f8301169050919050565b7f4e487b7100000000000000000000000000000000000000000000000000000000600052604160045260246000fd5b61048a82610441565b810181811067ffffffffffffffff821117156104a9576104a8610452565b5b80604052505050565b60006104bc610423565b90506104c88282610481565b919050565b600067ffffffffffffffff8211156104e8576104e7610452565b5b6104f182610441565b9050602081019050919050565b82818337600083830152505050565b600061052061051b846104cd565b6104b2565b90508281526020810184848401111561053c5761053b61043c565b5b6105478482856104fe565b509392505050565b600082601f83011261056457610563610437565b5b813561057484826020860161050d565b91505092915050565b600080600080608085870312156105975761059661042d565b5b600085013567ffffffffffffffff8111156105b5576105b4610432565b5b6105c18782880161054f565b945050602085013567ffffffffffffffff8111156105e2576105e1610432565b5b6105ee8782880161054f565b935050604085013567ffffffffffffffff81111561060f5761060e610432565b5b61061b8782880161054f565b925050606085013567ffffffffffffffff81111561063c5761063b610432565b5b6106488782880161054f565b91505092959194509250565b600073ffffffffffffffffffffffffffffffffffffffff82169050919050565b600061067f82610654565b9050919050565b61068f81610674565b82525050565b60006020820190506106aa6000830184610686565b92915050565b6000819050919050565b60006106d56106d06106cb84610654565b6106b0565b610654565b9050919050565b60006106e7826106ba565b9050919050565b60006106f9826106dc565b9050919050565b610709816106ee565b82525050565b60006020820190506107246000830184610700565b92915050565b6000610735826106dc565b9050919050565b6107458161072a565b82525050565b6000602082019050610760600083018461073c565b92915050565b6000819050919050565b61077981610766565b811461078457600080fd5b50565b60008151905061079681610770565b92915050565b6000602082840312156107b2576107b161042d565b5b60006107c084828501610787565b91505092915050565b7f4e487b7100000000000000000000000000000000000000000000000000000000600052601160045260246000fd5b600061080382610766565b915061080e83610766565b9250828201905080821115610826576108256107c9565b5b92915050565b61083581610766565b82525050565b61084481610674565b82525050565b600081519050919050565b600082825260208201905092915050565b60005b83811015610884578082015181840152602081019050610869565b60008484015250505050565b600061089b8261084a565b6108a58185610855565b93506108b5818560208601610866565b6108be81610441565b840191505092915050565b60006080830160008301516108e1600086018261083b565b50602083015184820360208601526108f98282610890565b915050604083015184820360408601526109138282610890565b9150506060830151848203606086015261092d8282610890565b9150508091505092915050565b600060608201905061094f6000830186610686565b61095c602083018561082c565b818103604083015261096e81846108c9565b9050949350505050565b6000819050919050565b61098b81610978565b82525050565b600067ffffffffffffffff82169050919050565b6109ae81610991565b82525050565b600060a08301600083015184820360008601526109d18282610890565b91505060208301516109e66020860182610982565b5060408301516109f960408601826109a5565b506060830151610a0c606086018261083b565b5060808301518482036080860152610a248282610890565b9150508091505092915050565b60006020820190508181036000830152610a4b81846109b4565b905092915050565b6000819050919050565b6000610a78610a73610a6e84610a53565b6106b0565b610766565b9050919050565b610a8881610a5d565b82525050565b60008115159050919050565b610aa381610a8e565b82525050565b600081519050919050565b600082825260208201905092915050565b6000610ad082610aa9565b610ada8185610ab4565b9350610aea818560208601610866565b610af381610441565b840191505092915050565b600060c082019050610b136000830189610a7f565b610b206020830188610686565b610b2d604083018761082c565b610b3a6060830186610686565b610b476080830185610a9a565b81810360a0830152610b598184610ac5565b9050979650505050505050565b610b6f81610674565b8114610b7a57600080fd5b50565b600081519050610b8c81610b66565b92915050565b600060208284031215610ba857610ba761042d565b5b6000610bb684828501610b7d565b9150509291505056fea26469706673582212205e4b72e9eb12966404c57f450459ed0edcecd4c2f0875904c9869534f2cfe5fa64736f6c63430008170033",
  "linkReferences": {},
  "deployedLinkReferences": {}
}