{
  "_format": "hh-sol-artifact-1",
  "contractName": "IPARegistrar",
  "sourceName": "contracts/IPARegistrar.sol",
  "abi": [
    {
      "inputs": [
        {
          "internalType": "address",
          "name": "ipAssetRegistry",
          "type": "address"
        },
        {
          "internalType": "address",
          "name": "resolver",
          "type": "address"
        },
        {
          "internalType": "address",
          "name": "nft",
          "type": "address"
        }
      ],
      "stateMutability": "nonpayable",
      "type": "constructor"
    },
    {
      "anonymous": false,
      "inputs": [
        {
          "indexed": true,
          "internalType": "uint256",
          "name": "tokenId",
          "type": "uint256"
        },
        {
          "indexed": true,
          "internalType": "address",
          "name": "to",
          "type": "address"
        }
      ],
      "name": "ModelNFTMint",
      "type": "event"
    },
    {
      "inputs": [],
      "name": "IPA_REGISTRY",
      "outputs": [
        {
          "internalType": "contract IPAssetRegistry",
          "name": "",
          "type": "address"
        }
      ],
      "stateMutability": "view",
      "type": "function"
    },
    {
      "inputs": [],
      "name": "IP_RESOLVER",
      "outputs": [
        {
          "internalType": "address",
          "name": "",
          "type": "address"
        }
      ],
      "stateMutability": "view",
      "type": "function"
    },
    {
      "inputs": [],
      "name": "NFT",
      "outputs": [
        {
          "internalType": "contract IModelNFT",
          "name": "",
          "type": "address"
        }
      ],
      "stateMutability": "view",
      "type": "function"
    },
    {
      "inputs": [],
      "name": "getAllModelInfo",
      "outputs": [
        {
          "components": [
            {
              "internalType": "uint256",
              "name": "tokenId",
              "type": "uint256"
            },
            {
              "components": [
                {
                  "internalType": "address",
                  "name": "creator",
                  "type": "address"
                },
                {
                  "internalType": "string",
                  "name": "createdAt",
                  "type": "string"
                },
                {
                  "internalType": "string",
                  "name": "numParams",
                  "type": "string"
                },
                {
                  "internalType": "string",
                  "name": "modelName",
                  "type": "string"
                }
              ],
              "internalType": "struct IPARegistrar.ModelInfo",
              "name": "modelInfo",
              "type": "tuple"
            }
          ],
          "internalType": "struct IPARegistrar.TokenModelInfo[]",
          "name": "",
          "type": "tuple[]"
        }
      ],
      "stateMutability": "view",
      "type": "function"
    },
    {
      "inputs": [
        {
          "internalType": "uint256",
          "name": "tokenId",
          "type": "uint256"
        }
      ],
      "name": "getModelInfo",
      "outputs": [
        {
          "components": [
            {
              "internalType": "address",
              "name": "creator",
              "type": "address"
            },
            {
              "internalType": "string",
              "name": "createdAt",
              "type": "string"
            },
            {
              "internalType": "string",
              "name": "numParams",
              "type": "string"
            },
            {
              "internalType": "string",
              "name": "modelName",
              "type": "string"
            }
          ],
          "internalType": "struct IPARegistrar.ModelInfo",
          "name": "",
          "type": "tuple"
        }
      ],
      "stateMutability": "view",
      "type": "function"
    },
    {
      "inputs": [
        {
          "internalType": "string",
          "name": "ipName",
          "type": "string"
        },
        {
          "internalType": "string",
          "name": "createdAt",
          "type": "string"
        },
        {
          "internalType": "string",
          "name": "numParams",
          "type": "string"
        },
        {
          "internalType": "string",
          "name": "modelName",
          "type": "string"
        }
      ],
      "name": "register",
      "outputs": [
        {
          "internalType": "address",
          "name": "",
          "type": "address"
        }
      ],
      "stateMutability": "nonpayable",
      "type": "function"
    }
  ],
  "bytecode": "0x60e06040523480156200001157600080fd5b506040516200145938038062001459833981810160405281019062000037919062000146565b8273ffffffffffffffffffffffffffffffffffffffff1660c08173ffffffffffffffffffffffffffffffffffffffff16815250508173ffffffffffffffffffffffffffffffffffffffff1660a08173ffffffffffffffffffffffffffffffffffffffff16815250508073ffffffffffffffffffffffffffffffffffffffff1660808173ffffffffffffffffffffffffffffffffffffffff1681525050505050620001a2565b600080fd5b600073ffffffffffffffffffffffffffffffffffffffff82169050919050565b60006200010e82620000e1565b9050919050565b620001208162000101565b81146200012c57600080fd5b50565b600081519050620001408162000115565b92915050565b600080600060608486031215620001625762000161620000dc565b5b600062000172868287016200012f565b935050602062000185868287016200012f565b925050604062000198868287016200012f565b9150509250925092565b60805160a05160c05161125d620001fc6000396000818161029a01526103d70152600081816102fa015261038f01526000818161017f015281816102d8015281816103b3015281816103ff01526104f5015261125d6000f3fe608060405234801561001057600080fd5b50600436106100625760003560e01c80630e24c52c1461006757806339ff42fb146100975780637c0b8de2146100b5578063d2faf8b0146100d3578063d4d168a2146100f1578063efb66ee81461010f575b600080fd5b610081600480360381019061007c91906109d7565b61013f565b60405161008e9190610aef565b60405180910390f35b61009f61038d565b6040516100ac9190610aef565b60405180910390f35b6100bd6103b1565b6040516100ca9190610b69565b60405180910390f35b6100db6103d5565b6040516100e89190610ba5565b60405180910390f35b6100f96103f9565b6040516101069190610dd7565b60405180910390f35b61012960048036038101906101249190610e25565b6105e7565b6040516101369190610ec3565b60405180910390f35b60008060405180608001604052803373ffffffffffffffffffffffffffffffffffffffff16815260200186815260200185815260200184815250905060007f000000000000000000000000000000000000000000000000000000000000000073ffffffffffffffffffffffffffffffffffffffff16636e91a358336040518263ffffffff1660e01b81526004016101d69190610aef565b6020604051808303816000875af11580156101f5573d6000803e3d6000fd5b505050506040513d601f19601f820116820180604052508101906102199190610efa565b905060006040518060a00160405280898152602001600080191681526020014267ffffffffffffffff1681526020013373ffffffffffffffffffffffffffffffffffffffff168152602001604051806020016040528060008152508152506040516020016102879190610fe0565b60405160208183030381529060405290507f000000000000000000000000000000000000000000000000000000000000000073ffffffffffffffffffffffffffffffffffffffff166306d61f3d60017f0000000000000000000000000000000000000000000000000000000000000000857f00000000000000000000000000000000000000000000000000000000000000006001876040518763ffffffff1660e01b815260040161033d969594939291906110bc565b6020604051808303816000875af115801561035c573d6000803e3d6000fd5b505050506040513d601f19601f820116820180604052508101906103809190611150565b9350505050949350505050565b7f000000000000000000000000000000000000000000000000000000000000000081565b7f000000000000000000000000000000000000000000000000000000000000000081565b7f000000000000000000000000000000000000000000000000000000000000000081565b606060007f000000000000000000000000000000000000000000000000000000000000000073ffffffffffffffffffffffffffffffffffffffff1663c4e41b226040518163ffffffff1660e01b8152600401602060405180830381865afa158015610468573d6000803e3d6000fd5b505050506040513d601f19601f8201168201806040525081019061048c9190610efa565b905060008167ffffffffffffffff8111156104aa576104a96108ac565b5b6040519080825280602002602001820160405280156104e357816020015b6104d061081f565b8152602001906001900390816104c85790505b50905060005b828110156105de5760007f000000000000000000000000000000000000000000000000000000000000000073ffffffffffffffffffffffffffffffffffffffff1663644b7a43836040518263ffffffff1660e01b815260040161054c919061117d565b602060405180830381865afa158015610569573d6000803e3d6000fd5b505050506040513d601f19601f8201168201806040525081019061058d9190610efa565b9050600061059a826105e7565b90506040518060400160405280838152602001828152508484815181106105c4576105c3611198565b5b6020026020010181905250505080806001019150506104e9565b50809250505090565b6105ef61083f565b6000808381526020019081526020016000206040518060800160405290816000820160009054906101000a900473ffffffffffffffffffffffffffffffffffffffff1673ffffffffffffffffffffffffffffffffffffffff1673ffffffffffffffffffffffffffffffffffffffff168152602001600182018054610672906111f6565b80601f016020809104026020016040519081016040528092919081815260200182805461069e906111f6565b80156106eb5780601f106106c0576101008083540402835291602001916106eb565b820191906000526020600020905b8154815290600101906020018083116106ce57829003601f168201915b50505050508152602001600282018054610704906111f6565b80601f0160208091040260200160405190810160405280929190818152602001828054610730906111f6565b801561077d5780601f106107525761010080835404028352916020019161077d565b820191906000526020600020905b81548152906001019060200180831161076057829003601f168201915b50505050508152602001600382018054610796906111f6565b80601f01602080910402602001604051908101604052809291908181526020018280546107c2906111f6565b801561080f5780601f106107e45761010080835404028352916020019161080f565b820191906000526020600020905b8154815290600101906020018083116107f257829003601f168201915b5050505050815250509050919050565b60405180604001604052806000815260200161083961083f565b81525090565b6040518060800160405280600073ffffffffffffffffffffffffffffffffffffffff1681526020016060815260200160608152602001606081525090565b6000604051905090565b600080fd5b600080fd5b600080fd5b600080fd5b6000601f19601f8301169050919050565b7f4e487b7100000000000000000000000000000000000000000000000000000000600052604160045260246000fd5b6108e48261089b565b810181811067ffffffffffffffff82111715610903576109026108ac565b5b80604052505050565b600061091661087d565b905061092282826108db565b919050565b600067ffffffffffffffff821115610942576109416108ac565b5b61094b8261089b565b9050602081019050919050565b82818337600083830152505050565b600061097a61097584610927565b61090c565b90508281526020810184848401111561099657610995610896565b5b6109a1848285610958565b509392505050565b600082601f8301126109be576109bd610891565b5b81356109ce848260208601610967565b91505092915050565b600080600080608085870312156109f1576109f0610887565b5b600085013567ffffffffffffffff811115610a0f57610a0e61088c565b5b610a1b878288016109a9565b945050602085013567ffffffffffffffff811115610a3c57610a3b61088c565b5b610a48878288016109a9565b935050604085013567ffffffffffffffff811115610a6957610a6861088c565b5b610a75878288016109a9565b925050606085013567ffffffffffffffff811115610a9657610a9561088c565b5b610aa2878288016109a9565b91505092959194509250565b600073ffffffffffffffffffffffffffffffffffffffff82169050919050565b6000610ad982610aae565b9050919050565b610ae981610ace565b82525050565b6000602082019050610b046000830184610ae0565b92915050565b6000819050919050565b6000610b2f610b2a610b2584610aae565b610b0a565b610aae565b9050919050565b6000610b4182610b14565b9050919050565b6000610b5382610b36565b9050919050565b610b6381610b48565b82525050565b6000602082019050610b7e6000830184610b5a565b92915050565b6000610b8f82610b36565b9050919050565b610b9f81610b84565b82525050565b6000602082019050610bba6000830184610b96565b92915050565b600081519050919050565b600082825260208201905092915050565b6000819050602082019050919050565b6000819050919050565b610bff81610bec565b82525050565b610c0e81610ace565b82525050565b600081519050919050565b600082825260208201905092915050565b60005b83811015610c4e578082015181840152602081019050610c33565b60008484015250505050565b6000610c6582610c14565b610c6f8185610c1f565b9350610c7f818560208601610c30565b610c888161089b565b840191505092915050565b6000608083016000830151610cab6000860182610c05565b5060208301518482036020860152610cc38282610c5a565b91505060408301518482036040860152610cdd8282610c5a565b91505060608301518482036060860152610cf78282610c5a565b9150508091505092915050565b6000604083016000830151610d1c6000860182610bf6565b5060208301518482036020860152610d348282610c93565b9150508091505092915050565b6000610d4d8383610d04565b905092915050565b6000602082019050919050565b6000610d6d82610bc0565b610d778185610bcb565b935083602082028501610d8985610bdc565b8060005b85811015610dc55784840389528151610da68582610d41565b9450610db183610d55565b925060208a01995050600181019050610d8d565b50829750879550505050505092915050565b60006020820190508181036000830152610df18184610d62565b905092915050565b610e0281610bec565b8114610e0d57600080fd5b50565b600081359050610e1f81610df9565b92915050565b600060208284031215610e3b57610e3a610887565b5b6000610e4984828501610e10565b91505092915050565b6000608083016000830151610e6a6000860182610c05565b5060208301518482036020860152610e828282610c5a565b91505060408301518482036040860152610e9c8282610c5a565b91505060608301518482036060860152610eb68282610c5a565b9150508091505092915050565b60006020820190508181036000830152610edd8184610e52565b905092915050565b600081519050610ef481610df9565b92915050565b600060208284031215610f1057610f0f610887565b5b6000610f1e84828501610ee5565b91505092915050565b6000819050919050565b610f3a81610f27565b82525050565b600067ffffffffffffffff82169050919050565b610f5d81610f40565b82525050565b600060a0830160008301518482036000860152610f808282610c5a565b9150506020830151610f956020860182610f31565b506040830151610fa86040860182610f54565b506060830151610fbb6060860182610c05565b5060808301518482036080860152610fd38282610c5a565b9150508091505092915050565b60006020820190508181036000830152610ffa8184610f63565b905092915050565b6000819050919050565b600061102761102261101d84611002565b610b0a565b610bec565b9050919050565b6110378161100c565b82525050565b61104681610bec565b82525050565b60008115159050919050565b6110618161104c565b82525050565b600081519050919050565b600082825260208201905092915050565b600061108e82611067565b6110988185611072565b93506110a8818560208601610c30565b6110b18161089b565b840191505092915050565b600060c0820190506110d1600083018961102e565b6110de6020830188610ae0565b6110eb604083018761103d565b6110f86060830186610ae0565b6111056080830185611058565b81810360a08301526111178184611083565b9050979650505050505050565b61112d81610ace565b811461113857600080fd5b50565b60008151905061114a81611124565b92915050565b60006020828403121561116657611165610887565b5b60006111748482850161113b565b91505092915050565b6000602082019050611192600083018461103d565b92915050565b7f4e487b7100000000000000000000000000000000000000000000000000000000600052603260045260246000fd5b7f4e487b7100000000000000000000000000000000000000000000000000000000600052602260045260246000fd5b6000600282049050600182168061120e57607f821691505b602082108103611221576112206111c7565b5b5091905056fea26469706673582212206a76f5e2802e9f9bd52fe48753cc1af26d5e74f3b9f20e20dacdafd2b963131464736f6c63430008170033",
  "linkReferences": {},
  "deployedLinkReferences": {}
}