{
  "_format": "hh-sol-artifact-1",
  "contractName": "IPARemixRegistrar",
  "sourceName": "contracts/IPARemixRegistrar.sol",
  "abi": [
    {
      "inputs": [
        {
          "internalType": "address",
          "name": "registry",
          "type": "address"
        },
        {
          "internalType": "address",
          "name": "resolverAddr",
          "type": "address"
        }
      ],
      "stateMutability": "nonpayable",
      "type": "constructor"
    },
    {
      "inputs": [],
      "name": "MIN_ROYALTY",
      "outputs": [
        {
          "internalType": "uint256",
          "name": "",
          "type": "uint256"
        }
      ],
      "stateMutability": "view",
      "type": "function"
    },
    {
      "inputs": [],
      "name": "REGISTRY",
      "outputs": [
        {
          "internalType": "contract IPAssetRegistry",
          "name": "",
          "type": "address"
        }
      ],
      "stateMutability": "view",
      "type": "function"
    },
    {
      "inputs": [
        {
          "internalType": "uint256[]",
          "name": "licenseIds",
          "type": "uint256[]"
        },
        {
          "internalType": "address",
          "name": "tokenContract",
          "type": "address"
        },
        {
          "internalType": "uint256",
          "name": "tokenId",
          "type": "uint256"
        }
      ],
      "name": "remix",
      "outputs": [
        {
          "internalType": "address",
          "name": "",
          "type": "address"
        }
      ],
      "stateMutability": "nonpayable",
      "type": "function"
    },
    {
      "inputs": [],
      "name": "resolver",
      "outputs": [
        {
          "internalType": "contract IPResolver",
          "name": "",
          "type": "address"
        }
      ],
      "stateMutability": "view",
      "type": "function"
    }
  ],
  "bytecode": "0x60a060405260405180606001604052806024815260200162000d6760249139600090816200002e919062000359565b503480156200003c57600080fd5b5060405162000d8b38038062000d8b8339818101604052810190620000629190620004aa565b8173ffffffffffffffffffffffffffffffffffffffff1660808173ffffffffffffffffffffffffffffffffffffffff168152505080600160006101000a81548173ffffffffffffffffffffffffffffffffffffffff021916908373ffffffffffffffffffffffffffffffffffffffff1602179055505050620004f1565b600081519050919050565b7f4e487b7100000000000000000000000000000000000000000000000000000000600052604160045260246000fd5b7f4e487b7100000000000000000000000000000000000000000000000000000000600052602260045260246000fd5b600060028204905060018216806200016157607f821691505b60208210810362000177576200017662000119565b5b50919050565b60008190508160005260206000209050919050565b60006020601f8301049050919050565b600082821b905092915050565b600060088302620001e17fffffffffffffffffffffffffffffffffffffffffffffffffffffffffffffffff82620001a2565b620001ed8683620001a2565b95508019841693508086168417925050509392505050565b6000819050919050565b6000819050919050565b60006200023a620002346200022e8462000205565b6200020f565b62000205565b9050919050565b6000819050919050565b620002568362000219565b6200026e620002658262000241565b848454620001af565b825550505050565b600090565b6200028562000276565b620002928184846200024b565b505050565b5b81811015620002ba57620002ae6000826200027b565b60018101905062000298565b5050565b601f8211156200030957620002d3816200017d565b620002de8462000192565b81016020851015620002ee578190505b62000306620002fd8562000192565b83018262000297565b50505b505050565b600082821c905092915050565b60006200032e600019846008026200030e565b1980831691505092915050565b60006200034983836200031b565b9150826002028217905092915050565b6200036482620000df565b67ffffffffffffffff81111562000380576200037f620000ea565b5b6200038c825462000148565b62000399828285620002be565b600060209050601f831160018114620003d15760008415620003bc578287015190505b620003c885826200033b565b86555062000438565b601f198416620003e1866200017d565b60005b828110156200040b57848901518255600182019150602085019450602081019050620003e4565b868310156200042b578489015162000427601f8916826200031b565b8355505b6001600288020188555050505b505050505050565b600080fd5b600073ffffffffffffffffffffffffffffffffffffffff82169050919050565b6000620004728262000445565b9050919050565b620004848162000465565b81146200049057600080fd5b50565b600081519050620004a48162000479565b92915050565b60008060408385031215620004c457620004c362000440565b5b6000620004d48582860162000493565b9250506020620004e78582860162000493565b9150509250929050565b6080516108536200051460003960008181610103015261020601526108536000f3fe608060405234801561001057600080fd5b506004361061004c5760003560e01c806304f3bcec1461005157806306433b1b1461006f5780630c8211d21461008d5780635b4b3cab146100ab575b600080fd5b6100596100db565b604051610066919061035b565b60405180910390f35b610077610101565b6040516100849190610397565b60405180910390f35b610095610125565b6040516100a291906103cb565b60405180910390f35b6100c560048036038101906100c091906104bf565b61012a565b6040516100d29190610542565b60405180910390f35b600160009054906101000a900473ffffffffffffffffffffffffffffffffffffffff1681565b7f000000000000000000000000000000000000000000000000000000000000000081565b600a81565b6000806040518060a001604052806040518060400160405280601681526020017f6e616d6520666f7220796f75722049502061737365740000000000000000000081525081526020017f796f757220495020617373657420636f6e74656e74206861736800000000000081526020014267ffffffffffffffff1681526020013373ffffffffffffffffffffffffffffffffffffffff1681526020016040518060600160405280602c81526020016107f2602c91398152506040516020016101f191906106b5565b604051602081830303815290604052905060007f000000000000000000000000000000000000000000000000000000000000000073ffffffffffffffffffffffffffffffffffffffff166306d61f3d468787600160009054906101000a900473ffffffffffffffffffffffffffffffffffffffff166001886040518763ffffffff1660e01b815260040161028a96959493929190610747565b6020604051808303816000875af11580156102a9573d6000803e3d6000fd5b505050506040513d601f19601f820116820180604052508101906102cd91906107c4565b90508092505050949350505050565b600073ffffffffffffffffffffffffffffffffffffffff82169050919050565b6000819050919050565b600061032161031c610317846102dc565b6102fc565b6102dc565b9050919050565b600061033382610306565b9050919050565b600061034582610328565b9050919050565b6103558161033a565b82525050565b6000602082019050610370600083018461034c565b92915050565b600061038182610328565b9050919050565b61039181610376565b82525050565b60006020820190506103ac6000830184610388565b92915050565b6000819050919050565b6103c5816103b2565b82525050565b60006020820190506103e060008301846103bc565b92915050565b600080fd5b600080fd5b600080fd5b600080fd5b600080fd5b60008083601f840112610415576104146103f0565b5b8235905067ffffffffffffffff811115610432576104316103f5565b5b60208301915083602082028301111561044e5761044d6103fa565b5b9250929050565b6000610460826102dc565b9050919050565b61047081610455565b811461047b57600080fd5b50565b60008135905061048d81610467565b92915050565b61049c816103b2565b81146104a757600080fd5b50565b6000813590506104b981610493565b92915050565b600080600080606085870312156104d9576104d86103e6565b5b600085013567ffffffffffffffff8111156104f7576104f66103eb565b5b610503878288016103ff565b945094505060206105168782880161047e565b9250506040610527878288016104aa565b91505092959194509250565b61053c81610455565b82525050565b60006020820190506105576000830184610533565b92915050565b600081519050919050565b600082825260208201905092915050565b60005b8381101561059757808201518184015260208101905061057c565b60008484015250505050565b6000601f19601f8301169050919050565b60006105bf8261055d565b6105c98185610568565b93506105d9818560208601610579565b6105e2816105a3565b840191505092915050565b6000819050919050565b610600816105ed565b82525050565b600067ffffffffffffffff82169050919050565b61062381610606565b82525050565b61063281610455565b82525050565b600060a083016000830151848203600086015261065582826105b4565b915050602083015161066a60208601826105f7565b50604083015161067d604086018261061a565b5060608301516106906060860182610629565b50608083015184820360808601526106a882826105b4565b9150508091505092915050565b600060208201905081810360008301526106cf8184610638565b905092915050565b60008115159050919050565b6106ec816106d7565b82525050565b600081519050919050565b600082825260208201905092915050565b6000610719826106f2565b61072381856106fd565b9350610733818560208601610579565b61073c816105a3565b840191505092915050565b600060c08201905061075c60008301896103bc565b6107696020830188610533565b61077660408301876103bc565b6107836060830186610533565b61079060808301856106e3565b81810360a08301526107a2818461070e565b9050979650505050505050565b6000815190506107be81610467565b92915050565b6000602082840312156107da576107d96103e6565b5b60006107e8848285016107af565b9150509291505056fe68747470733a2f2f796f757269702e78797a2f6d657461646174612d726567617264696e672d6974732d6970a2646970667358221220096a794a9f2098c5fc97d1aa10e567349ea3d6f2b6f9222c12f38bd465a8249d64736f6c6343000817003354686973206973206c6f79616c74792066656520666f7220746865206c6963656e73652e",
  "linkReferences": {},
  "deployedLinkReferences": {}
}