{
  "_format": "hh-sol-artifact-1",
  "contractName": "IPARegistrar",
  "sourceName": "contracts/RegistrarIPA.sol",
  "abi": [
    {
      "inputs": [
        {
          "internalType": "address",
          "name": "ipAssetRegistry",
          "type": "address"
        },
        {
          "internalType": "address",
          "name": "resolver",
          "type": "address"
        },
        {
          "internalType": "address",
          "name": "nft",
          "type": "address"
        }
      ],
      "stateMutability": "nonpayable",
      "type": "constructor"
    },
    {
      "inputs": [],
      "name": "IPA_REGISTRY",
      "outputs": [
        {
          "internalType": "contract IPAssetRegistry",
          "name": "",
          "type": "address"
        }
      ],
      "stateMutability": "view",
      "type": "function"
    },
    {
      "inputs": [],
      "name": "IP_RESOLVER",
      "outputs": [
        {
          "internalType": "address",
          "name": "",
          "type": "address"
        }
      ],
      "stateMutability": "view",
      "type": "function"
    },
    {
      "inputs": [],
      "name": "NFT",
      "outputs": [
        {
          "internalType": "contract IModelNFT",
          "name": "",
          "type": "address"
        }
      ],
      "stateMutability": "view",
      "type": "function"
    },
    {
      "inputs": [
        {
          "internalType": "string",
          "name": "ipName",
          "type": "string"
        },
        {
          "internalType": "string",
          "name": "createdAt",
          "type": "string"
        },
        {
          "internalType": "string",
          "name": "numParams",
          "type": "string"
        },
        {
          "internalType": "string",
          "name": "modelName",
          "type": "string"
        }
      ],
      "name": "register",
      "outputs": [
        {
          "internalType": "address",
          "name": "",
          "type": "address"
        }
      ],
      "stateMutability": "nonpayable",
      "type": "function"
    }
  ],
  "bytecode": "0x60e060405234801561001057600080fd5b50604051610ccf380380610ccf83398181016040528101906100329190610139565b8273ffffffffffffffffffffffffffffffffffffffff1660c08173ffffffffffffffffffffffffffffffffffffffff16815250508173ffffffffffffffffffffffffffffffffffffffff1660a08173ffffffffffffffffffffffffffffffffffffffff16815250508073ffffffffffffffffffffffffffffffffffffffff1660808173ffffffffffffffffffffffffffffffffffffffff168152505050505061018c565b600080fd5b600073ffffffffffffffffffffffffffffffffffffffff82169050919050565b6000610106826100db565b9050919050565b610116816100fb565b811461012157600080fd5b50565b6000815190506101338161010d565b92915050565b600080600060608486031215610152576101516100d6565b5b600061016086828701610124565b935050602061017186828701610124565b925050604061018286828701610124565b9150509250925092565b60805160a05160c051610af86101d7600039600081816102380152610375015260008181610298015261032d01526000818161011b0152818161027601526103510152610af86000f3fe608060405234801561001057600080fd5b506004361061004c5760003560e01c80630e24c52c1461005157806339ff42fb146100815780637c0b8de21461009f578063d2faf8b0146100bd575b600080fd5b61006b600480360381019061006691906104f1565b6100db565b6040516100789190610609565b60405180910390f35b61008961032b565b6040516100969190610609565b60405180910390f35b6100a761034f565b6040516100b49190610683565b60405180910390f35b6100c5610373565b6040516100d291906106bf565b60405180910390f35b60008060405180608001604052803373ffffffffffffffffffffffffffffffffffffffff16815260200186815260200185815260200184815250905060007f000000000000000000000000000000000000000000000000000000000000000073ffffffffffffffffffffffffffffffffffffffff16638f140c7333846040518363ffffffff1660e01b81526004016101749291906107d9565b6020604051808303816000875af1158015610193573d6000803e3d6000fd5b505050506040513d601f19601f820116820180604052508101906101b7919061083f565b905060006040518060a00160405280898152602001600080191681526020014267ffffffffffffffff1681526020013373ffffffffffffffffffffffffffffffffffffffff168152602001604051806020016040528060008152508152506040516020016102259190610925565b60405160208183030381529060405290507f000000000000000000000000000000000000000000000000000000000000000073ffffffffffffffffffffffffffffffffffffffff166306d61f3d60017f0000000000000000000000000000000000000000000000000000000000000000857f00000000000000000000000000000000000000000000000000000000000000006001876040518763ffffffff1660e01b81526004016102db96959493929190610a01565b6020604051808303816000875af11580156102fa573d6000803e3d6000fd5b505050506040513d601f19601f8201168201806040525081019061031e9190610a95565b9350505050949350505050565b7f000000000000000000000000000000000000000000000000000000000000000081565b7f000000000000000000000000000000000000000000000000000000000000000081565b7f000000000000000000000000000000000000000000000000000000000000000081565b6000604051905090565b600080fd5b600080fd5b600080fd5b600080fd5b6000601f19601f8301169050919050565b7f4e487b7100000000000000000000000000000000000000000000000000000000600052604160045260246000fd5b6103fe826103b5565b810181811067ffffffffffffffff8211171561041d5761041c6103c6565b5b80604052505050565b6000610430610397565b905061043c82826103f5565b919050565b600067ffffffffffffffff82111561045c5761045b6103c6565b5b610465826103b5565b9050602081019050919050565b82818337600083830152505050565b600061049461048f84610441565b610426565b9050828152602081018484840111156104b0576104af6103b0565b5b6104bb848285610472565b509392505050565b600082601f8301126104d8576104d76103ab565b5b81356104e8848260208601610481565b91505092915050565b6000806000806080858703121561050b5761050a6103a1565b5b600085013567ffffffffffffffff811115610529576105286103a6565b5b610535878288016104c3565b945050602085013567ffffffffffffffff811115610556576105556103a6565b5b610562878288016104c3565b935050604085013567ffffffffffffffff811115610583576105826103a6565b5b61058f878288016104c3565b925050606085013567ffffffffffffffff8111156105b0576105af6103a6565b5b6105bc878288016104c3565b91505092959194509250565b600073ffffffffffffffffffffffffffffffffffffffff82169050919050565b60006105f3826105c8565b9050919050565b610603816105e8565b82525050565b600060208201905061061e60008301846105fa565b92915050565b6000819050919050565b600061064961064461063f846105c8565b610624565b6105c8565b9050919050565b600061065b8261062e565b9050919050565b600061066d82610650565b9050919050565b61067d81610662565b82525050565b60006020820190506106986000830184610674565b92915050565b60006106a982610650565b9050919050565b6106b98161069e565b82525050565b60006020820190506106d460008301846106b0565b92915050565b6106e3816105e8565b82525050565b600081519050919050565b600082825260208201905092915050565b60005b83811015610723578082015181840152602081019050610708565b60008484015250505050565b600061073a826106e9565b61074481856106f4565b9350610754818560208601610705565b61075d816103b5565b840191505092915050565b600060808301600083015161078060008601826106da565b5060208301518482036020860152610798828261072f565b915050604083015184820360408601526107b2828261072f565b915050606083015184820360608601526107cc828261072f565b9150508091505092915050565b60006040820190506107ee60008301856105fa565b81810360208301526108008184610768565b90509392505050565b6000819050919050565b61081c81610809565b811461082757600080fd5b50565b60008151905061083981610813565b92915050565b600060208284031215610855576108546103a1565b5b60006108638482850161082a565b91505092915050565b6000819050919050565b61087f8161086c565b82525050565b600067ffffffffffffffff82169050919050565b6108a281610885565b82525050565b600060a08301600083015184820360008601526108c5828261072f565b91505060208301516108da6020860182610876565b5060408301516108ed6040860182610899565b50606083015161090060608601826106da565b5060808301518482036080860152610918828261072f565b9150508091505092915050565b6000602082019050818103600083015261093f81846108a8565b905092915050565b6000819050919050565b600061096c61096761096284610947565b610624565b610809565b9050919050565b61097c81610951565b82525050565b61098b81610809565b82525050565b60008115159050919050565b6109a681610991565b82525050565b600081519050919050565b600082825260208201905092915050565b60006109d3826109ac565b6109dd81856109b7565b93506109ed818560208601610705565b6109f6816103b5565b840191505092915050565b600060c082019050610a166000830189610973565b610a2360208301886105fa565b610a306040830187610982565b610a3d60608301866105fa565b610a4a608083018561099d565b81810360a0830152610a5c81846109c8565b9050979650505050505050565b610a72816105e8565b8114610a7d57600080fd5b50565b600081519050610a8f81610a69565b92915050565b600060208284031215610aab57610aaa6103a1565b5b6000610ab984828501610a80565b9150509291505056fea26469706673582212204ebd82bfef23bcf9629f66cf9820a9fad9f7554334d2082efdc725549f9473ac64736f6c63430008170033",
  "linkReferences": {},
  "deployedLinkReferences": {}
}