{
  "_format": "hh-sol-artifact-1",
  "contractName": "ModelNFTLiecnse",
  "sourceName": "contracts/ModelNFTLiecnse.sol",
  "abi": [
    {
      "inputs": [
        {
          "internalType": "address",
          "name": "spg",
          "type": "address"
        },
        {
          "internalType": "address",
          "name": "royaltyPolicy",
          "type": "address"
        },
        {
          "internalType": "uint256",
          "name": "mintingFee",
          "type": "uint256"
        },
        {
          "internalType": "address",
          "name": "mintingFeeToken",
          "type": "address"
        }
      ],
      "stateMutability": "nonpayable",
      "type": "constructor"
    },
    {
      "inputs": [],
      "name": "MINTING_FEE",
      "outputs": [
        {
          "internalType": "uint256",
          "name": "",
          "type": "uint256"
        }
      ],
      "stateMutability": "view",
      "type": "function"
    },
    {
      "inputs": [],
      "name": "MINTING_FEE_TOKEN",
      "outputs": [
        {
          "internalType": "address",
          "name": "",
          "type": "address"
        }
      ],
      "stateMutability": "view",
      "type": "function"
    },
    {
      "inputs": [],
      "name": "ROYALTY_POLICY",
      "outputs": [
        {
          "internalType": "address",
          "name": "",
          "type": "address"
        }
      ],
      "stateMutability": "view",
      "type": "function"
    },
    {
      "inputs": [],
      "name": "SPG",
      "outputs": [
        {
          "internalType": "contract StoryProtocolGateway",
          "name": "",
          "type": "address"
        }
      ],
      "stateMutability": "view",
      "type": "function"
    },
    {
      "inputs": [
        {
          "components": [
            {
              "internalType": "bool",
              "name": "attribution",
              "type": "bool"
            },
            {
              "internalType": "bool",
              "name": "commercialUse",
              "type": "bool"
            },
            {
              "internalType": "bool",
              "name": "commercialAttribution",
              "type": "bool"
            },
            {
              "internalType": "address",
              "name": "commercializerChecker",
              "type": "address"
            },
            {
              "internalType": "bytes",
              "name": "commercializerCheckerData",
              "type": "bytes"
            },
            {
              "internalType": "uint32",
              "name": "commercialRevShare",
              "type": "uint32"
            },
            {
              "internalType": "bool",
              "name": "derivativesAllowed",
              "type": "bool"
            },
            {
              "internalType": "bool",
              "name": "derivativesAttribution",
              "type": "bool"
            },
            {
              "internalType": "bool",
              "name": "derivativesApproval",
              "type": "bool"
            },
            {
              "internalType": "bool",
              "name": "derivativesReciprocal",
              "type": "bool"
            },
            {
              "internalType": "string[]",
              "name": "territories",
              "type": "string[]"
            },
            {
              "internalType": "string[]",
              "name": "distributionChannels",
              "type": "string[]"
            },
            {
              "internalType": "string[]",
              "name": "contentRestrictions",
              "type": "string[]"
            }
          ],
          "internalType": "struct PILPolicy",
          "name": "pilPolicy",
          "type": "tuple"
        },
        {
          "internalType": "address",
          "name": "licensorIpId",
          "type": "address"
        }
      ],
      "name": "createLicense",
      "outputs": [],
      "stateMutability": "nonpayable",
      "type": "function"
    }
  ],
  "bytecode": "0x60806040526040518060600160405280602481526020016200140e60249139600090816200002e9190620003b0565b503480156200003c57600080fd5b506040516200143238038062001432833981810160405281019062000062919062000532565b83600160006101000a81548173ffffffffffffffffffffffffffffffffffffffff021916908373ffffffffffffffffffffffffffffffffffffffff16021790555082600260006101000a81548173ffffffffffffffffffffffffffffffffffffffff021916908373ffffffffffffffffffffffffffffffffffffffff1602179055508160038190555080600460006101000a81548173ffffffffffffffffffffffffffffffffffffffff021916908373ffffffffffffffffffffffffffffffffffffffff16021790555050505050620005a4565b600081519050919050565b7f4e487b7100000000000000000000000000000000000000000000000000000000600052604160045260246000fd5b7f4e487b7100000000000000000000000000000000000000000000000000000000600052602260045260246000fd5b60006002820490506001821680620001b857607f821691505b602082108103620001ce57620001cd62000170565b5b50919050565b60008190508160005260206000209050919050565b60006020601f8301049050919050565b600082821b905092915050565b600060088302620002387fffffffffffffffffffffffffffffffffffffffffffffffffffffffffffffffff82620001f9565b620002448683620001f9565b95508019841693508086168417925050509392505050565b6000819050919050565b6000819050919050565b6000620002916200028b62000285846200025c565b62000266565b6200025c565b9050919050565b6000819050919050565b620002ad8362000270565b620002c5620002bc8262000298565b84845462000206565b825550505050565b600090565b620002dc620002cd565b620002e9818484620002a2565b505050565b5b81811015620003115762000305600082620002d2565b600181019050620002ef565b5050565b601f82111562000360576200032a81620001d4565b6200033584620001e9565b8101602085101562000345578190505b6200035d6200035485620001e9565b830182620002ee565b50505b505050565b600082821c905092915050565b6000620003856000198460080262000365565b1980831691505092915050565b6000620003a0838362000372565b9150826002028217905092915050565b620003bb8262000136565b67ffffffffffffffff811115620003d757620003d662000141565b5b620003e382546200019f565b620003f082828562000315565b600060209050601f83116001811462000428576000841562000413578287015190505b6200041f858262000392565b8655506200048f565b601f1984166200043886620001d4565b60005b8281101562000462578489015182556001820191506020850194506020810190506200043b565b868310156200048257848901516200047e601f89168262000372565b8355505b6001600288020188555050505b505050505050565b600080fd5b600073ffffffffffffffffffffffffffffffffffffffff82169050919050565b6000620004c9826200049c565b9050919050565b620004db81620004bc565b8114620004e757600080fd5b50565b600081519050620004fb81620004d0565b92915050565b6200050c816200025c565b81146200051857600080fd5b50565b6000815190506200052c8162000501565b92915050565b600080600080608085870312156200054f576200054e62000497565b5b60006200055f87828801620004ea565b94505060206200057287828801620004ea565b935050604062000585878288016200051b565b92505060606200059887828801620004ea565b91505092959194509250565b610e5a80620005b46000396000f3fe608060405234801561001057600080fd5b50600436106100575760003560e01c80632ef472791461005c57806355bf66121461007a57806366e89edd14610096578063cd5146af146100b4578063d642b4b1146100d2575b600080fd5b6100646100f0565b60405161007191906102a2565b60405180910390f35b610094600480360381019061008f91906107f0565b610116565b005b61009e61020f565b6040516100ab91906102a2565b60405180910390f35b6100bc610235565b6040516100c991906108ab565b60405180910390f35b6100da61025b565b6040516100e791906108df565b60405180910390f35b600260009054906101000a900473ffffffffffffffffffffffffffffffffffffffff1681565b600160009054906101000a900473ffffffffffffffffffffffffffffffffffffffff1673ffffffffffffffffffffffffffffffffffffffff1663dce5d8c683836001600080600260009054906101000a900473ffffffffffffffffffffffffffffffffffffffff16600354600460009054906101000a900473ffffffffffffffffffffffffffffffffffffffff166040518963ffffffff1660e01b81526004016101c7989796959493929190610d3f565b6020604051808303816000875af11580156101e6573d6000803e3d6000fd5b505050506040513d601f19601f8201168201806040525081019061020a9190610df7565b505050565b600460009054906101000a900473ffffffffffffffffffffffffffffffffffffffff1681565b600160009054906101000a900473ffffffffffffffffffffffffffffffffffffffff1681565b60035481565b600073ffffffffffffffffffffffffffffffffffffffff82169050919050565b600061028c82610261565b9050919050565b61029c81610281565b82525050565b60006020820190506102b76000830184610293565b92915050565b6000604051905090565b600080fd5b600080fd5b600080fd5b6000601f19601f8301169050919050565b7f4e487b7100000000000000000000000000000000000000000000000000000000600052604160045260246000fd5b61031f826102d6565b810181811067ffffffffffffffff8211171561033e5761033d6102e7565b5b80604052505050565b60006103516102bd565b905061035d8282610316565b919050565b600080fd5b60008115159050919050565b61037c81610367565b811461038757600080fd5b50565b60008135905061039981610373565b92915050565b6103a881610281565b81146103b357600080fd5b50565b6000813590506103c58161039f565b92915050565b600080fd5b600080fd5b600067ffffffffffffffff8211156103f0576103ef6102e7565b5b6103f9826102d6565b9050602081019050919050565b82818337600083830152505050565b6000610428610423846103d5565b610347565b905082815260208101848484011115610444576104436103d0565b5b61044f848285610406565b509392505050565b600082601f83011261046c5761046b6103cb565b5b813561047c848260208601610415565b91505092915050565b600063ffffffff82169050919050565b61049e81610485565b81146104a957600080fd5b50565b6000813590506104bb81610495565b92915050565b600067ffffffffffffffff8211156104dc576104db6102e7565b5b602082029050602081019050919050565b600080fd5b600067ffffffffffffffff82111561050d5761050c6102e7565b5b610516826102d6565b9050602081019050919050565b6000610536610531846104f2565b610347565b905082815260208101848484011115610552576105516103d0565b5b61055d848285610406565b509392505050565b600082601f83011261057a576105796103cb565b5b813561058a848260208601610523565b91505092915050565b60006105a66105a1846104c1565b610347565b905080838252602082019050602084028301858111156105c9576105c86104ed565b5b835b8181101561061057803567ffffffffffffffff8111156105ee576105ed6103cb565b5b8086016105fb8982610565565b855260208501945050506020810190506105cb565b5050509392505050565b600082601f83011261062f5761062e6103cb565b5b813561063f848260208601610593565b91505092915050565b60006101a0828403121561065f5761065e6102d1565b5b61066a6101a0610347565b9050600061067a8482850161038a565b600083015250602061068e8482850161038a565b60208301525060406106a28482850161038a565b60408301525060606106b6848285016103b6565b606083015250608082013567ffffffffffffffff8111156106da576106d9610362565b5b6106e684828501610457565b60808301525060a06106fa848285016104ac565b60a08301525060c061070e8482850161038a565b60c08301525060e06107228482850161038a565b60e0830152506101006107378482850161038a565b6101008301525061012061074d8482850161038a565b6101208301525061014082013567ffffffffffffffff81111561077357610772610362565b5b61077f8482850161061a565b6101408301525061016082013567ffffffffffffffff8111156107a5576107a4610362565b5b6107b18482850161061a565b6101608301525061018082013567ffffffffffffffff8111156107d7576107d6610362565b5b6107e38482850161061a565b6101808301525092915050565b60008060408385031215610807576108066102c7565b5b600083013567ffffffffffffffff811115610825576108246102cc565b5b61083185828601610648565b9250506020610842858286016103b6565b9150509250929050565b6000819050919050565b600061087161086c61086784610261565b61084c565b610261565b9050919050565b600061088382610856565b9050919050565b600061089582610878565b9050919050565b6108a58161088a565b82525050565b60006020820190506108c0600083018461089c565b92915050565b6000819050919050565b6108d9816108c6565b82525050565b60006020820190506108f460008301846108d0565b92915050565b61090381610367565b82525050565b61091281610281565b82525050565b600081519050919050565b600082825260208201905092915050565b60005b83811015610952578082015181840152602081019050610937565b60008484015250505050565b600061096982610918565b6109738185610923565b9350610983818560208601610934565b61098c816102d6565b840191505092915050565b6109a081610485565b82525050565b600081519050919050565b600082825260208201905092915050565b6000819050602082019050919050565b600081519050919050565b600082825260208201905092915050565b60006109f9826109d2565b610a0381856109dd565b9350610a13818560208601610934565b610a1c816102d6565b840191505092915050565b6000610a3383836109ee565b905092915050565b6000602082019050919050565b6000610a53826109a6565b610a5d81856109b1565b935083602082028501610a6f856109c2565b8060005b85811015610aab5784840389528151610a8c8582610a27565b9450610a9783610a3b565b925060208a01995050600181019050610a73565b50829750879550505050505092915050565b60006101a083016000830151610ad660008601826108fa565b506020830151610ae960208601826108fa565b506040830151610afc60408601826108fa565b506060830151610b0f6060860182610909565b5060808301518482036080860152610b27828261095e565b91505060a0830151610b3c60a0860182610997565b5060c0830151610b4f60c08601826108fa565b5060e0830151610b6260e08601826108fa565b50610100830151610b776101008601826108fa565b50610120830151610b8c6101208601826108fa565b50610140830151848203610140860152610ba68282610a48565b915050610160830151848203610160860152610bc28282610a48565b915050610180830151848203610180860152610bde8282610a48565b9150508091505092915050565b6000819050919050565b6000610c10610c0b610c0684610beb565b61084c565b6108c6565b9050919050565b610c2081610bf5565b82525050565b7f4e487b7100000000000000000000000000000000000000000000000000000000600052602260045260246000fd5b60006002820490506001821680610c6d57607f821691505b602082108103610c8057610c7f610c26565b5b50919050565b600082825260208201905092915050565b60008190508160005260206000209050919050565b60008154610cb981610c55565b610cc38186610c86565b94506001821660008114610cde5760018114610cf457610d27565b60ff198316865281151560200286019350610d27565b610cfd85610c97565b60005b83811015610d1f57815481890152600182019150602081019050610d00565b808801955050505b50505092915050565b610d3981610367565b82525050565b6000610100820190508181036000830152610d5a818b610abd565b9050610d69602083018a610293565b610d766040830189610c17565b8181036060830152610d888188610cac565b9050610d976080830187610d30565b610da460a0830186610293565b610db160c08301856108d0565b610dbe60e0830184610293565b9998505050505050505050565b610dd4816108c6565b8114610ddf57600080fd5b50565b600081519050610df181610dcb565b92915050565b600060208284031215610e0d57610e0c6102c7565b5b6000610e1b84828501610de2565b9150509291505056fea264697066735822122038e76d0671583703dadc8d539aa2a2b7c10e806714e84b478c81b09f3811334664736f6c6343000817003354686973206973206c6f79616c74792066656520666f7220746865206c6963656e73652e",
  "linkReferences": {},
  "deployedLinkReferences": {}
}