{
  "_format": "hh-sol-artifact-1",
  "contractName": "ModelNFT",
  "sourceName": "contracts/ModelNFT.sol",
  "abi": [
    {
      "inputs": [
        {
          "internalType": "string",
          "name": "name",
          "type": "string"
        },
        {
          "internalType": "string",
          "name": "symbol",
          "type": "string"
        }
      ],
      "stateMutability": "nonpayable",
      "type": "constructor"
    },
    {
      "inputs": [],
      "name": "ERC721EnumerableForbiddenBatchMint",
      "type": "error"
    },
    {
      "inputs": [
        {
          "internalType": "address",
          "name": "sender",
          "type": "address"
        },
        {
          "internalType": "uint256",
          "name": "tokenId",
          "type": "uint256"
        },
        {
          "internalType": "address",
          "name": "owner",
          "type": "address"
        }
      ],
      "name": "ERC721IncorrectOwner",
      "type": "error"
    },
    {
      "inputs": [
        {
          "internalType": "address",
          "name": "operator",
          "type": "address"
        },
        {
          "internalType": "uint256",
          "name": "tokenId",
          "type": "uint256"
        }
      ],
      "name": "ERC721InsufficientApproval",
      "type": "error"
    },
    {
      "inputs": [
        {
          "internalType": "address",
          "name": "approver",
          "type": "address"
        }
      ],
      "name": "ERC721InvalidApprover",
      "type": "error"
    },
    {
      "inputs": [
        {
          "internalType": "address",
          "name": "operator",
          "type": "address"
        }
      ],
      "name": "ERC721InvalidOperator",
      "type": "error"
    },
    {
      "inputs": [
        {
          "internalType": "address",
          "name": "owner",
          "type": "address"
        }
      ],
      "name": "ERC721InvalidOwner",
      "type": "error"
    },
    {
      "inputs": [
        {
          "internalType": "address",
          "name": "receiver",
          "type": "address"
        }
      ],
      "name": "ERC721InvalidReceiver",
      "type": "error"
    },
    {
      "inputs": [
        {
          "internalType": "address",
          "name": "sender",
          "type": "address"
        }
      ],
      "name": "ERC721InvalidSender",
      "type": "error"
    },
    {
      "inputs": [
        {
          "internalType": "uint256",
          "name": "tokenId",
          "type": "uint256"
        }
      ],
      "name": "ERC721NonexistentToken",
      "type": "error"
    },
    {
      "inputs": [
        {
          "internalType": "address",
          "name": "owner",
          "type": "address"
        },
        {
          "internalType": "uint256",
          "name": "index",
          "type": "uint256"
        }
      ],
      "name": "ERC721OutOfBoundsIndex",
      "type": "error"
    },
    {
      "inputs": [
        {
          "internalType": "address",
          "name": "owner",
          "type": "address"
        }
      ],
      "name": "OwnableInvalidOwner",
      "type": "error"
    },
    {
      "inputs": [
        {
          "internalType": "address",
          "name": "account",
          "type": "address"
        }
      ],
      "name": "OwnableUnauthorizedAccount",
      "type": "error"
    },
    {
      "anonymous": false,
      "inputs": [
        {
          "indexed": true,
          "internalType": "address",
          "name": "owner",
          "type": "address"
        },
        {
          "indexed": true,
          "internalType": "address",
          "name": "approved",
          "type": "address"
        },
        {
          "indexed": true,
          "internalType": "uint256",
          "name": "tokenId",
          "type": "uint256"
        }
      ],
      "name": "Approval",
      "type": "event"
    },
    {
      "anonymous": false,
      "inputs": [
        {
          "indexed": true,
          "internalType": "address",
          "name": "owner",
          "type": "address"
        },
        {
          "indexed": true,
          "internalType": "address",
          "name": "operator",
          "type": "address"
        },
        {
          "indexed": false,
          "internalType": "bool",
          "name": "approved",
          "type": "bool"
        }
      ],
      "name": "ApprovalForAll",
      "type": "event"
    },
    {
      "anonymous": false,
      "inputs": [
        {
          "indexed": true,
          "internalType": "address",
          "name": "previousOwner",
          "type": "address"
        },
        {
          "indexed": true,
          "internalType": "address",
          "name": "newOwner",
          "type": "address"
        }
      ],
      "name": "OwnershipTransferred",
      "type": "event"
    },
    {
      "anonymous": false,
      "inputs": [
        {
          "indexed": true,
          "internalType": "address",
          "name": "from",
          "type": "address"
        },
        {
          "indexed": true,
          "internalType": "address",
          "name": "to",
          "type": "address"
        },
        {
          "indexed": true,
          "internalType": "uint256",
          "name": "tokenId",
          "type": "uint256"
        }
      ],
      "name": "Transfer",
      "type": "event"
    },
    {
      "inputs": [
        {
          "internalType": "address",
          "name": "to",
          "type": "address"
        },
        {
          "internalType": "uint256",
          "name": "tokenId",
          "type": "uint256"
        }
      ],
      "name": "approve",
      "outputs": [],
      "stateMutability": "nonpayable",
      "type": "function"
    },
    {
      "inputs": [
        {
          "internalType": "address",
          "name": "owner",
          "type": "address"
        }
      ],
      "name": "balanceOf",
      "outputs": [
        {
          "internalType": "uint256",
          "name": "",
          "type": "uint256"
        }
      ],
      "stateMutability": "view",
      "type": "function"
    },
    {
      "inputs": [
        {
          "internalType": "uint256",
          "name": "tokenId",
          "type": "uint256"
        }
      ],
      "name": "getApproved",
      "outputs": [
        {
          "internalType": "address",
          "name": "",
          "type": "address"
        }
      ],
      "stateMutability": "view",
      "type": "function"
    },
    {
      "inputs": [
        {
          "internalType": "uint256",
          "name": "tokenId",
          "type": "uint256"
        }
      ],
      "name": "getModelInfo",
      "outputs": [
        {
          "components": [
            {
              "internalType": "address",
              "name": "creator",
              "type": "address"
            },
            {
              "internalType": "string",
              "name": "createdAt",
              "type": "string"
            },
            {
              "internalType": "string",
              "name": "numParams",
              "type": "string"
            },
            {
              "internalType": "string",
              "name": "modelName",
              "type": "string"
            }
          ],
          "internalType": "struct IModelNFT.ModelInfo",
          "name": "",
          "type": "tuple"
        }
      ],
      "stateMutability": "view",
      "type": "function"
    },
    {
      "inputs": [
        {
          "internalType": "address",
          "name": "owner",
          "type": "address"
        },
        {
          "internalType": "address",
          "name": "operator",
          "type": "address"
        }
      ],
      "name": "isApprovedForAll",
      "outputs": [
        {
          "internalType": "bool",
          "name": "",
          "type": "bool"
        }
      ],
      "stateMutability": "view",
      "type": "function"
    },
    {
      "inputs": [
        {
          "internalType": "address",
          "name": "to",
          "type": "address"
        },
        {
          "internalType": "uint256",
          "name": "tokenId",
          "type": "uint256"
        },
        {
          "components": [
            {
              "internalType": "address",
              "name": "creator",
              "type": "address"
            },
            {
              "internalType": "string",
              "name": "createdAt",
              "type": "string"
            },
            {
              "internalType": "string",
              "name": "numParams",
              "type": "string"
            },
            {
              "internalType": "string",
              "name": "modelName",
              "type": "string"
            }
          ],
          "internalType": "struct IModelNFT.ModelInfo",
          "name": "modelInfo",
          "type": "tuple"
        }
      ],
      "name": "mintWithModelInfo",
      "outputs": [],
      "stateMutability": "nonpayable",
      "type": "function"
    },
    {
      "inputs": [],
      "name": "name",
      "outputs": [
        {
          "internalType": "string",
          "name": "",
          "type": "string"
        }
      ],
      "stateMutability": "view",
      "type": "function"
    },
    {
      "inputs": [],
      "name": "owner",
      "outputs": [
        {
          "internalType": "address",
          "name": "",
          "type": "address"
        }
      ],
      "stateMutability": "view",
      "type": "function"
    },
    {
      "inputs": [
        {
          "internalType": "uint256",
          "name": "tokenId",
          "type": "uint256"
        }
      ],
      "name": "ownerOf",
      "outputs": [
        {
          "internalType": "address",
          "name": "",
          "type": "address"
        }
      ],
      "stateMutability": "view",
      "type": "function"
    },
    {
      "inputs": [],
      "name": "renounceOwnership",
      "outputs": [],
      "stateMutability": "nonpayable",
      "type": "function"
    },
    {
      "inputs": [
        {
          "internalType": "address",
          "name": "from",
          "type": "address"
        },
        {
          "internalType": "address",
          "name": "to",
          "type": "address"
        },
        {
          "internalType": "uint256",
          "name": "tokenId",
          "type": "uint256"
        }
      ],
      "name": "safeTransferFrom",
      "outputs": [],
      "stateMutability": "nonpayable",
      "type": "function"
    },
    {
      "inputs": [
        {
          "internalType": "address",
          "name": "from",
          "type": "address"
        },
        {
          "internalType": "address",
          "name": "to",
          "type": "address"
        },
        {
          "internalType": "uint256",
          "name": "tokenId",
          "type": "uint256"
        },
        {
          "internalType": "bytes",
          "name": "data",
          "type": "bytes"
        }
      ],
      "name": "safeTransferFrom",
      "outputs": [],
      "stateMutability": "nonpayable",
      "type": "function"
    },
    {
      "inputs": [
        {
          "internalType": "address",
          "name": "operator",
          "type": "address"
        },
        {
          "internalType": "bool",
          "name": "approved",
          "type": "bool"
        }
      ],
      "name": "setApprovalForAll",
      "outputs": [],
      "stateMutability": "nonpayable",
      "type": "function"
    },
    {
      "inputs": [
        {
          "internalType": "bytes4",
          "name": "interfaceId",
          "type": "bytes4"
        }
      ],
      "name": "supportsInterface",
      "outputs": [
        {
          "internalType": "bool",
          "name": "",
          "type": "bool"
        }
      ],
      "stateMutability": "view",
      "type": "function"
    },
    {
      "inputs": [],
      "name": "symbol",
      "outputs": [
        {
          "internalType": "string",
          "name": "",
          "type": "string"
        }
      ],
      "stateMutability": "view",
      "type": "function"
    },
    {
      "inputs": [
        {
          "internalType": "uint256",
          "name": "index",
          "type": "uint256"
        }
      ],
      "name": "tokenByIndex",
      "outputs": [
        {
          "internalType": "uint256",
          "name": "",
          "type": "uint256"
        }
      ],
      "stateMutability": "view",
      "type": "function"
    },
    {
      "inputs": [
        {
          "internalType": "address",
          "name": "owner",
          "type": "address"
        },
        {
          "internalType": "uint256",
          "name": "index",
          "type": "uint256"
        }
      ],
      "name": "tokenOfOwnerByIndex",
      "outputs": [
        {
          "internalType": "uint256",
          "name": "",
          "type": "uint256"
        }
      ],
      "stateMutability": "view",
      "type": "function"
    },
    {
      "inputs": [
        {
          "internalType": "uint256",
          "name": "tokenId",
          "type": "uint256"
        }
      ],
      "name": "tokenURI",
      "outputs": [
        {
          "internalType": "string",
          "name": "",
          "type": "string"
        }
      ],
      "stateMutability": "view",
      "type": "function"
    },
    {
      "inputs": [],
      "name": "totalSupply",
      "outputs": [
        {
          "internalType": "uint256",
          "name": "",
          "type": "uint256"
        }
      ],
      "stateMutability": "view",
      "type": "function"
    },
    {
      "inputs": [
        {
          "internalType": "address",
          "name": "from",
          "type": "address"
        },
        {
          "internalType": "address",
          "name": "to",
          "type": "address"
        },
        {
          "internalType": "uint256",
          "name": "tokenId",
          "type": "uint256"
        }
      ],
      "name": "transferFrom",
      "outputs": [],
      "stateMutability": "nonpayable",
      "type": "function"
    },
    {
      "inputs": [
        {
          "internalType": "address",
          "name": "newOwner",
          "type": "address"
        }
      ],
      "name": "transferOwnership",
      "outputs": [],
      "stateMutability": "nonpayable",
      "type": "function"
    }
  ],
  "bytecode": "0x60806040523480156200001157600080fd5b506040516200378338038062003783833981810160405281019062000037919062000348565b33828281600090816200004b919062000618565b5080600190816200005d919062000618565b505050600073ffffffffffffffffffffffffffffffffffffffff168173ffffffffffffffffffffffffffffffffffffffff1603620000d55760006040517f1e4fbdf7000000000000000000000000000000000000000000000000000000008152600401620000cc919062000744565b60405180910390fd5b620000e681620000ef60201b60201c565b50505062000761565b6000600a60009054906101000a900473ffffffffffffffffffffffffffffffffffffffff16905081600a60006101000a81548173ffffffffffffffffffffffffffffffffffffffff021916908373ffffffffffffffffffffffffffffffffffffffff1602179055508173ffffffffffffffffffffffffffffffffffffffff168173ffffffffffffffffffffffffffffffffffffffff167f8be0079c531659141344cd1fd0a4f28419497f9722a3daafe3b4186f6b6457e060405160405180910390a35050565b6000604051905090565b600080fd5b600080fd5b600080fd5b600080fd5b6000601f19601f8301169050919050565b7f4e487b7100000000000000000000000000000000000000000000000000000000600052604160045260246000fd5b6200021e82620001d3565b810181811067ffffffffffffffff8211171562000240576200023f620001e4565b5b80604052505050565b600062000255620001b5565b905062000263828262000213565b919050565b600067ffffffffffffffff821115620002865762000285620001e4565b5b6200029182620001d3565b9050602081019050919050565b60005b83811015620002be578082015181840152602081019050620002a1565b60008484015250505050565b6000620002e1620002db8462000268565b62000249565b9050828152602081018484840111156200030057620002ff620001ce565b5b6200030d8482856200029e565b509392505050565b600082601f8301126200032d576200032c620001c9565b5b81516200033f848260208601620002ca565b91505092915050565b60008060408385031215620003625762000361620001bf565b5b600083015167ffffffffffffffff811115620003835762000382620001c4565b5b620003918582860162000315565b925050602083015167ffffffffffffffff811115620003b557620003b4620001c4565b5b620003c38582860162000315565b9150509250929050565b600081519050919050565b7f4e487b7100000000000000000000000000000000000000000000000000000000600052602260045260246000fd5b600060028204905060018216806200042057607f821691505b602082108103620004365762000435620003d8565b5b50919050565b60008190508160005260206000209050919050565b60006020601f8301049050919050565b600082821b905092915050565b600060088302620004a07fffffffffffffffffffffffffffffffffffffffffffffffffffffffffffffffff8262000461565b620004ac868362000461565b95508019841693508086168417925050509392505050565b6000819050919050565b6000819050919050565b6000620004f9620004f3620004ed84620004c4565b620004ce565b620004c4565b9050919050565b6000819050919050565b6200051583620004d8565b6200052d620005248262000500565b8484546200046e565b825550505050565b600090565b6200054462000535565b620005518184846200050a565b505050565b5b8181101562000579576200056d6000826200053a565b60018101905062000557565b5050565b601f821115620005c85762000592816200043c565b6200059d8462000451565b81016020851015620005ad578190505b620005c5620005bc8562000451565b83018262000556565b50505b505050565b600082821c905092915050565b6000620005ed60001984600802620005cd565b1980831691505092915050565b6000620006088383620005da565b9150826002028217905092915050565b6200062382620003cd565b67ffffffffffffffff8111156200063f576200063e620001e4565b5b6200064b825462000407565b620006588282856200057d565b600060209050601f8311600181146200069057600084156200067b578287015190505b620006878582620005fa565b865550620006f7565b601f198416620006a0866200043c565b60005b82811015620006ca57848901518255600182019150602085019450602081019050620006a3565b86831015620006ea5784890151620006e6601f891682620005da565b8355505b6001600288020188555050505b505050505050565b600073ffffffffffffffffffffffffffffffffffffffff82169050919050565b60006200072c82620006ff565b9050919050565b6200073e816200071f565b82525050565b60006020820190506200075b600083018462000733565b92915050565b61301280620007716000396000f3fe608060405234801561001057600080fd5b50600436106101375760003560e01c806370a08231116100b8578063a7888fba1161007c578063a7888fba1461034e578063b88d4fde1461036a578063c87b56dd14610386578063e985e9c5146103b6578063efb66ee8146103e6578063f2fde38b1461041657610137565b806370a08231146102bc578063715018a6146102ec5780638da5cb5b146102f657806395d89b4114610314578063a22cb4651461033257610137565b806323b872dd116100ff57806323b872dd146101f45780632f745c591461021057806342842e0e146102405780634f6ccce71461025c5780636352211e1461028c57610137565b806301ffc9a71461013c57806306fdde031461016c578063081812fc1461018a578063095ea7b3146101ba57806318160ddd146101d6575b600080fd5b6101566004803603810190610151919061224b565b610432565b6040516101639190612293565b60405180910390f35b6101746104ac565b604051610181919061233e565b60405180910390f35b6101a4600480360381019061019f9190612396565b61053e565b6040516101b19190612404565b60405180910390f35b6101d460048036038101906101cf919061244b565b61055a565b005b6101de610570565b6040516101eb919061249a565b60405180910390f35b61020e600480360381019061020991906124b5565b61057d565b005b61022a6004803603810190610225919061244b565b61067f565b604051610237919061249a565b60405180910390f35b61025a600480360381019061025591906124b5565b610728565b005b61027660048036038101906102719190612396565b610748565b604051610283919061249a565b60405180910390f35b6102a660048036038101906102a19190612396565b6107be565b6040516102b39190612404565b60405180910390f35b6102d660048036038101906102d19190612508565b6107d0565b6040516102e3919061249a565b60405180910390f35b6102f461088a565b005b6102fe61089e565b60405161030b9190612404565b60405180910390f35b61031c6108c8565b604051610329919061233e565b60405180910390f35b61034c60048036038101906103479190612561565b61095a565b005b610368600480360381019061036391906127ac565b610970565b005b610384600480360381019061037f91906128bc565b610991565b005b6103a0600480360381019061039b9190612396565b6109ae565b6040516103ad919061233e565b60405180910390f35b6103d060048036038101906103cb919061293f565b610a17565b6040516103dd9190612293565b60405180910390f35b61040060048036038101906103fb9190612396565b610aab565b60405161040d9190612a49565b60405180910390f35b610430600480360381019061042b9190612508565b610ce4565b005b60007f780e9d63000000000000000000000000000000000000000000000000000000007bffffffffffffffffffffffffffffffffffffffffffffffffffffffff1916827bffffffffffffffffffffffffffffffffffffffffffffffffffffffff191614806104a557506104a482610d6a565b5b9050919050565b6060600080546104bb90612a9a565b80601f01602080910402602001604051908101604052809291908181526020018280546104e790612a9a565b80156105345780601f1061050957610100808354040283529160200191610534565b820191906000526020600020905b81548152906001019060200180831161051757829003601f168201915b5050505050905090565b600061054982610e4c565b5061055382610ed4565b9050919050565b61056c8282610567610f11565b610f19565b5050565b6000600880549050905090565b600073ffffffffffffffffffffffffffffffffffffffff168273ffffffffffffffffffffffffffffffffffffffff16036105ef5760006040517f64a0ae920000000000000000000000000000000000000000000000000000000081526004016105e69190612404565b60405180910390fd5b600061060383836105fe610f11565b610f2b565b90508373ffffffffffffffffffffffffffffffffffffffff168173ffffffffffffffffffffffffffffffffffffffff1614610679578382826040517f64283d7b00000000000000000000000000000000000000000000000000000000815260040161067093929190612acb565b60405180910390fd5b50505050565b600061068a836107d0565b82106106cf5782826040517fa57d13dc0000000000000000000000000000000000000000000000000000000081526004016106c6929190612b02565b60405180910390fd5b600660008473ffffffffffffffffffffffffffffffffffffffff1673ffffffffffffffffffffffffffffffffffffffff168152602001908152602001600020600083815260200190815260200160002054905092915050565b61074383838360405180602001604052806000815250610991565b505050565b6000610752610570565b8210610798576000826040517fa57d13dc00000000000000000000000000000000000000000000000000000000815260040161078f929190612b02565b60405180910390fd5b600882815481106107ac576107ab612b2b565b5b90600052602060002001549050919050565b60006107c982610e4c565b9050919050565b60008073ffffffffffffffffffffffffffffffffffffffff168273ffffffffffffffffffffffffffffffffffffffff16036108435760006040517f89c62b6400000000000000000000000000000000000000000000000000000000815260040161083a9190612404565b60405180910390fd5b600360008373ffffffffffffffffffffffffffffffffffffffff1673ffffffffffffffffffffffffffffffffffffffff168152602001908152602001600020549050919050565b610892611048565b61089c60006110cf565b565b6000600a60009054906101000a900473ffffffffffffffffffffffffffffffffffffffff16905090565b6060600180546108d790612a9a565b80601f016020809104026020016040519081016040528092919081815260200182805461090390612a9a565b80156109505780601f1061092557610100808354040283529160200191610950565b820191906000526020600020905b81548152906001019060200180831161093357829003601f168201915b5050505050905090565b61096c610965610f11565b8383611195565b5050565b610978611048565b6109828383611304565b61098c82826113fd565b505050565b61099c84848461057d565b6109a8848484846114a1565b50505050565b60606109b982610e4c565b5060006109c4611658565b905060008151116109e45760405180602001604052806000815250610a0f565b806109ee8461166f565b6040516020016109ff929190612b96565b6040516020818303038152906040525b915050919050565b6000600560008473ffffffffffffffffffffffffffffffffffffffff1673ffffffffffffffffffffffffffffffffffffffff16815260200190815260200160002060008373ffffffffffffffffffffffffffffffffffffffff1673ffffffffffffffffffffffffffffffffffffffff16815260200190815260200160002060009054906101000a900460ff16905092915050565b610ab36121a1565b600b60008381526020019081526020016000206040518060800160405290816000820160009054906101000a900473ffffffffffffffffffffffffffffffffffffffff1673ffffffffffffffffffffffffffffffffffffffff1673ffffffffffffffffffffffffffffffffffffffff168152602001600182018054610b3790612a9a565b80601f0160208091040260200160405190810160405280929190818152602001828054610b6390612a9a565b8015610bb05780601f10610b8557610100808354040283529160200191610bb0565b820191906000526020600020905b815481529060010190602001808311610b9357829003601f168201915b50505050508152602001600282018054610bc990612a9a565b80601f0160208091040260200160405190810160405280929190818152602001828054610bf590612a9a565b8015610c425780601f10610c1757610100808354040283529160200191610c42565b820191906000526020600020905b815481529060010190602001808311610c2557829003601f168201915b50505050508152602001600382018054610c5b90612a9a565b80601f0160208091040260200160405190810160405280929190818152602001828054610c8790612a9a565b8015610cd45780601f10610ca957610100808354040283529160200191610cd4565b820191906000526020600020905b815481529060010190602001808311610cb757829003601f168201915b5050505050815250509050919050565b610cec611048565b600073ffffffffffffffffffffffffffffffffffffffff168173ffffffffffffffffffffffffffffffffffffffff1603610d5e5760006040517f1e4fbdf7000000000000000000000000000000000000000000000000000000008152600401610d559190612404565b60405180910390fd5b610d67816110cf565b50565b60007f80ac58cd000000000000000000000000000000000000000000000000000000007bffffffffffffffffffffffffffffffffffffffffffffffffffffffff1916827bffffffffffffffffffffffffffffffffffffffffffffffffffffffff19161480610e3557507f5b5e139f000000000000000000000000000000000000000000000000000000007bffffffffffffffffffffffffffffffffffffffffffffffffffffffff1916827bffffffffffffffffffffffffffffffffffffffffffffffffffffffff1916145b80610e455750610e448261173d565b5b9050919050565b600080610e58836117a7565b9050600073ffffffffffffffffffffffffffffffffffffffff168173ffffffffffffffffffffffffffffffffffffffff1603610ecb57826040517f7e273289000000000000000000000000000000000000000000000000000000008152600401610ec2919061249a565b60405180910390fd5b80915050919050565b60006004600083815260200190815260200160002060009054906101000a900473ffffffffffffffffffffffffffffffffffffffff169050919050565b600033905090565b610f2683838360016117e4565b505050565b600080610f398585856119a9565b9050600073ffffffffffffffffffffffffffffffffffffffff168173ffffffffffffffffffffffffffffffffffffffff1603610f7d57610f7884611bc3565b610fbc565b8473ffffffffffffffffffffffffffffffffffffffff168173ffffffffffffffffffffffffffffffffffffffff1614610fbb57610fba8185611c0c565b5b5b600073ffffffffffffffffffffffffffffffffffffffff168573ffffffffffffffffffffffffffffffffffffffff1603610ffe57610ff984611d6d565b61103d565b8473ffffffffffffffffffffffffffffffffffffffff168173ffffffffffffffffffffffffffffffffffffffff161461103c5761103b8585611e3e565b5b5b809150509392505050565b611050610f11565b73ffffffffffffffffffffffffffffffffffffffff1661106e61089e565b73ffffffffffffffffffffffffffffffffffffffff16146110cd57611091610f11565b6040517f118cdaa70000000000000000000000000000000000000000000000000000000081526004016110c49190612404565b60405180910390fd5b565b6000600a60009054906101000a900473ffffffffffffffffffffffffffffffffffffffff16905081600a60006101000a81548173ffffffffffffffffffffffffffffffffffffffff021916908373ffffffffffffffffffffffffffffffffffffffff1602179055508173ffffffffffffffffffffffffffffffffffffffff168173ffffffffffffffffffffffffffffffffffffffff167f8be0079c531659141344cd1fd0a4f28419497f9722a3daafe3b4186f6b6457e060405160405180910390a35050565b600073ffffffffffffffffffffffffffffffffffffffff168273ffffffffffffffffffffffffffffffffffffffff160361120657816040517f5b08ba180000000000000000000000000000000000000000000000000000000081526004016111fd9190612404565b60405180910390fd5b80600560008573ffffffffffffffffffffffffffffffffffffffff1673ffffffffffffffffffffffffffffffffffffffff16815260200190815260200160002060008473ffffffffffffffffffffffffffffffffffffffff1673ffffffffffffffffffffffffffffffffffffffff16815260200190815260200160002060006101000a81548160ff0219169083151502179055508173ffffffffffffffffffffffffffffffffffffffff168373ffffffffffffffffffffffffffffffffffffffff167f17307eab39ab6107e8899845ad3d59bd9653f200f220920489ca2b5937696c31836040516112f79190612293565b60405180910390a3505050565b600073ffffffffffffffffffffffffffffffffffffffff168273ffffffffffffffffffffffffffffffffffffffff16036113765760006040517f64a0ae9200000000000000000000000000000000000000000000000000000000815260040161136d9190612404565b60405180910390fd5b600061138483836000610f2b565b9050600073ffffffffffffffffffffffffffffffffffffffff168173ffffffffffffffffffffffffffffffffffffffff16146113f85760006040517f73c6ac6e0000000000000000000000000000000000000000000000000000000081526004016113ef9190612404565b60405180910390fd5b505050565b80600b600084815260200190815260200160002060008201518160000160006101000a81548173ffffffffffffffffffffffffffffffffffffffff021916908373ffffffffffffffffffffffffffffffffffffffff160217905550602082015181600101908161146d9190612d66565b5060408201518160020190816114839190612d66565b5060608201518160030190816114999190612d66565b509050505050565b60008373ffffffffffffffffffffffffffffffffffffffff163b1115611652578273ffffffffffffffffffffffffffffffffffffffff1663150b7a026114e5610f11565b8685856040518563ffffffff1660e01b81526004016115079493929190612e8d565b6020604051808303816000875af192505050801561154357506040513d601f19601f820116820180604052508101906115409190612eee565b60015b6115c7573d8060008114611573576040519150601f19603f3d011682016040523d82523d6000602084013e611578565b606091505b5060008151036115bf57836040517f64a0ae920000000000000000000000000000000000000000000000000000000081526004016115b69190612404565b60405180910390fd5b805181602001fd5b63150b7a0260e01b7bffffffffffffffffffffffffffffffffffffffffffffffffffffffff1916817bffffffffffffffffffffffffffffffffffffffffffffffffffffffff19161461165057836040517f64a0ae920000000000000000000000000000000000000000000000000000000081526004016116479190612404565b60405180910390fd5b505b50505050565b606060405180602001604052806000815250905090565b60606000600161167e84611ec9565b01905060008167ffffffffffffffff81111561169d5761169c6125a6565b5b6040519080825280601f01601f1916602001820160405280156116cf5781602001600182028036833780820191505090505b509050600082602001820190505b600115611732578080600190039150507f3031323334353637383961626364656600000000000000000000000000000000600a86061a8153600a858161172657611725612f1b565b5b049450600085036116dd575b819350505050919050565b60007f01ffc9a7000000000000000000000000000000000000000000000000000000007bffffffffffffffffffffffffffffffffffffffffffffffffffffffff1916827bffffffffffffffffffffffffffffffffffffffffffffffffffffffff1916149050919050565b60006002600083815260200190815260200160002060009054906101000a900473ffffffffffffffffffffffffffffffffffffffff169050919050565b808061181d5750600073ffffffffffffffffffffffffffffffffffffffff168273ffffffffffffffffffffffffffffffffffffffff1614155b1561195157600061182d84610e4c565b9050600073ffffffffffffffffffffffffffffffffffffffff168373ffffffffffffffffffffffffffffffffffffffff161415801561189857508273ffffffffffffffffffffffffffffffffffffffff168173ffffffffffffffffffffffffffffffffffffffff1614155b80156118ab57506118a98184610a17565b155b156118ed57826040517fa9fbf51f0000000000000000000000000000000000000000000000000000000081526004016118e49190612404565b60405180910390fd5b811561194f57838573ffffffffffffffffffffffffffffffffffffffff168273ffffffffffffffffffffffffffffffffffffffff167f8c5be1e5ebec7d5bd14f71427d1e84f3dd0314c0f7b2291e5b200ac8c7c3b92560405160405180910390a45b505b836004600085815260200190815260200160002060006101000a81548173ffffffffffffffffffffffffffffffffffffffff021916908373ffffffffffffffffffffffffffffffffffffffff16021790555050505050565b6000806119b5846117a7565b9050600073ffffffffffffffffffffffffffffffffffffffff168373ffffffffffffffffffffffffffffffffffffffff16146119f7576119f681848661201c565b5b600073ffffffffffffffffffffffffffffffffffffffff168173ffffffffffffffffffffffffffffffffffffffff1614611a8857611a396000856000806117e4565b6001600360008373ffffffffffffffffffffffffffffffffffffffff1673ffffffffffffffffffffffffffffffffffffffff168152602001908152602001600020600082825403925050819055505b600073ffffffffffffffffffffffffffffffffffffffff168573ffffffffffffffffffffffffffffffffffffffff1614611b0b576001600360008773ffffffffffffffffffffffffffffffffffffffff1673ffffffffffffffffffffffffffffffffffffffff168152602001908152602001600020600082825401925050819055505b846002600086815260200190815260200160002060006101000a81548173ffffffffffffffffffffffffffffffffffffffff021916908373ffffffffffffffffffffffffffffffffffffffff160217905550838573ffffffffffffffffffffffffffffffffffffffff168273ffffffffffffffffffffffffffffffffffffffff167fddf252ad1be2c89b69c2b068fc378daa952ba7f163c4a11628f55a4df523b3ef60405160405180910390a4809150509392505050565b6008805490506009600083815260200190815260200160002081905550600881908060018154018082558091505060019003906000526020600020016000909190919091505550565b6000611c17836107d0565b9050600060076000848152602001908152602001600020549050818114611cfc576000600660008673ffffffffffffffffffffffffffffffffffffffff1673ffffffffffffffffffffffffffffffffffffffff168152602001908152602001600020600084815260200190815260200160002054905080600660008773ffffffffffffffffffffffffffffffffffffffff1673ffffffffffffffffffffffffffffffffffffffff168152602001908152602001600020600084815260200190815260200160002081905550816007600083815260200190815260200160002081905550505b6007600084815260200190815260200160002060009055600660008573ffffffffffffffffffffffffffffffffffffffff1673ffffffffffffffffffffffffffffffffffffffff16815260200190815260200160002060008381526020019081526020016000206000905550505050565b60006001600880549050611d819190612f79565b9050600060096000848152602001908152602001600020549050600060088381548110611db157611db0612b2b565b5b906000526020600020015490508060088381548110611dd357611dd2612b2b565b5b906000526020600020018190555081600960008381526020019081526020016000208190555060096000858152602001908152602001600020600090556008805480611e2257611e21612fad565b5b6001900381819060005260206000200160009055905550505050565b60006001611e4b846107d0565b611e559190612f79565b905081600660008573ffffffffffffffffffffffffffffffffffffffff1673ffffffffffffffffffffffffffffffffffffffff168152602001908152602001600020600083815260200190815260200160002081905550806007600084815260200190815260200160002081905550505050565b600080600090507a184f03e93ff9f4daa797ed6e38ed64bf6a1f0100000000000000008310611f27577a184f03e93ff9f4daa797ed6e38ed64bf6a1f0100000000000000008381611f1d57611f1c612f1b565b5b0492506040810190505b6d04ee2d6d415b85acef81000000008310611f64576d04ee2d6d415b85acef81000000008381611f5a57611f59612f1b565b5b0492506020810190505b662386f26fc100008310611f9357662386f26fc100008381611f8957611f88612f1b565b5b0492506010810190505b6305f5e1008310611fbc576305f5e1008381611fb257611fb1612f1b565b5b0492506008810190505b6127108310611fe1576127108381611fd757611fd6612f1b565b5b0492506004810190505b606483106120045760648381611ffa57611ff9612f1b565b5b0492506002810190505b600a8310612013576001810190505b80915050919050565b6120278383836120e0565b6120db57600073ffffffffffffffffffffffffffffffffffffffff168373ffffffffffffffffffffffffffffffffffffffff160361209c57806040517f7e273289000000000000000000000000000000000000000000000000000000008152600401612093919061249a565b60405180910390fd5b81816040517f177e802f0000000000000000000000000000000000000000000000000000000081526004016120d2929190612b02565b60405180910390fd5b505050565b60008073ffffffffffffffffffffffffffffffffffffffff168373ffffffffffffffffffffffffffffffffffffffff161415801561219857508273ffffffffffffffffffffffffffffffffffffffff168473ffffffffffffffffffffffffffffffffffffffff16148061215957506121588484610a17565b5b8061219757508273ffffffffffffffffffffffffffffffffffffffff1661217f83610ed4565b73ffffffffffffffffffffffffffffffffffffffff16145b5b90509392505050565b6040518060800160405280600073ffffffffffffffffffffffffffffffffffffffff1681526020016060815260200160608152602001606081525090565b6000604051905090565b600080fd5b600080fd5b60007fffffffff0000000000000000000000000000000000000000000000000000000082169050919050565b612228816121f3565b811461223357600080fd5b50565b6000813590506122458161221f565b92915050565b600060208284031215612261576122606121e9565b5b600061226f84828501612236565b91505092915050565b60008115159050919050565b61228d81612278565b82525050565b60006020820190506122a86000830184612284565b92915050565b600081519050919050565b600082825260208201905092915050565b60005b838110156122e85780820151818401526020810190506122cd565b60008484015250505050565b6000601f19601f8301169050919050565b6000612310826122ae565b61231a81856122b9565b935061232a8185602086016122ca565b612333816122f4565b840191505092915050565b600060208201905081810360008301526123588184612305565b905092915050565b6000819050919050565b61237381612360565b811461237e57600080fd5b50565b6000813590506123908161236a565b92915050565b6000602082840312156123ac576123ab6121e9565b5b60006123ba84828501612381565b91505092915050565b600073ffffffffffffffffffffffffffffffffffffffff82169050919050565b60006123ee826123c3565b9050919050565b6123fe816123e3565b82525050565b600060208201905061241960008301846123f5565b92915050565b612428816123e3565b811461243357600080fd5b50565b6000813590506124458161241f565b92915050565b60008060408385031215612462576124616121e9565b5b600061247085828601612436565b925050602061248185828601612381565b9150509250929050565b61249481612360565b82525050565b60006020820190506124af600083018461248b565b92915050565b6000806000606084860312156124ce576124cd6121e9565b5b60006124dc86828701612436565b93505060206124ed86828701612436565b92505060406124fe86828701612381565b9150509250925092565b60006020828403121561251e5761251d6121e9565b5b600061252c84828501612436565b91505092915050565b61253e81612278565b811461254957600080fd5b50565b60008135905061255b81612535565b92915050565b60008060408385031215612578576125776121e9565b5b600061258685828601612436565b92505060206125978582860161254c565b9150509250929050565b600080fd5b7f4e487b7100000000000000000000000000000000000000000000000000000000600052604160045260246000fd5b6125de826122f4565b810181811067ffffffffffffffff821117156125fd576125fc6125a6565b5b80604052505050565b60006126106121df565b905061261c82826125d5565b919050565b600080fd5b600080fd5b600080fd5b600067ffffffffffffffff82111561264b5761264a6125a6565b5b612654826122f4565b9050602081019050919050565b82818337600083830152505050565b600061268361267e84612630565b612606565b90508281526020810184848401111561269f5761269e61262b565b5b6126aa848285612661565b509392505050565b600082601f8301126126c7576126c6612626565b5b81356126d7848260208601612670565b91505092915050565b6000608082840312156126f6576126f56125a1565b5b6127006080612606565b9050600061271084828501612436565b600083015250602082013567ffffffffffffffff81111561273457612733612621565b5b612740848285016126b2565b602083015250604082013567ffffffffffffffff81111561276457612763612621565b5b612770848285016126b2565b604083015250606082013567ffffffffffffffff81111561279457612793612621565b5b6127a0848285016126b2565b60608301525092915050565b6000806000606084860312156127c5576127c46121e9565b5b60006127d386828701612436565b93505060206127e486828701612381565b925050604084013567ffffffffffffffff811115612805576128046121ee565b5b612811868287016126e0565b9150509250925092565b600067ffffffffffffffff821115612836576128356125a6565b5b61283f826122f4565b9050602081019050919050565b600061285f61285a8461281b565b612606565b90508281526020810184848401111561287b5761287a61262b565b5b612886848285612661565b509392505050565b600082601f8301126128a3576128a2612626565b5b81356128b384826020860161284c565b91505092915050565b600080600080608085870312156128d6576128d56121e9565b5b60006128e487828801612436565b94505060206128f587828801612436565b935050604061290687828801612381565b925050606085013567ffffffffffffffff811115612927576129266121ee565b5b6129338782880161288e565b91505092959194509250565b60008060408385031215612956576129556121e9565b5b600061296485828601612436565b925050602061297585828601612436565b9150509250929050565b612988816123e3565b82525050565b600082825260208201905092915050565b60006129aa826122ae565b6129b4818561298e565b93506129c48185602086016122ca565b6129cd816122f4565b840191505092915050565b60006080830160008301516129f0600086018261297f565b5060208301518482036020860152612a08828261299f565b91505060408301518482036040860152612a22828261299f565b91505060608301518482036060860152612a3c828261299f565b9150508091505092915050565b60006020820190508181036000830152612a6381846129d8565b905092915050565b7f4e487b7100000000000000000000000000000000000000000000000000000000600052602260045260246000fd5b60006002820490506001821680612ab257607f821691505b602082108103612ac557612ac4612a6b565b5b50919050565b6000606082019050612ae060008301866123f5565b612aed602083018561248b565b612afa60408301846123f5565b949350505050565b6000604082019050612b1760008301856123f5565b612b24602083018461248b565b9392505050565b7f4e487b7100000000000000000000000000000000000000000000000000000000600052603260045260246000fd5b600081905092915050565b6000612b70826122ae565b612b7a8185612b5a565b9350612b8a8185602086016122ca565b80840191505092915050565b6000612ba28285612b65565b9150612bae8284612b65565b91508190509392505050565b60008190508160005260206000209050919050565b60006020601f8301049050919050565b600082821b905092915050565b600060088302612c1c7fffffffffffffffffffffffffffffffffffffffffffffffffffffffffffffffff82612bdf565b612c268683612bdf565b95508019841693508086168417925050509392505050565b6000819050919050565b6000612c63612c5e612c5984612360565b612c3e565b612360565b9050919050565b6000819050919050565b612c7d83612c48565b612c91612c8982612c6a565b848454612bec565b825550505050565b600090565b612ca6612c99565b612cb1818484612c74565b505050565b5b81811015612cd557612cca600082612c9e565b600181019050612cb7565b5050565b601f821115612d1a57612ceb81612bba565b612cf484612bcf565b81016020851015612d03578190505b612d17612d0f85612bcf565b830182612cb6565b50505b505050565b600082821c905092915050565b6000612d3d60001984600802612d1f565b1980831691505092915050565b6000612d568383612d2c565b9150826002028217905092915050565b612d6f826122ae565b67ffffffffffffffff811115612d8857612d876125a6565b5b612d928254612a9a565b612d9d828285612cd9565b600060209050601f831160018114612dd05760008415612dbe578287015190505b612dc88582612d4a565b865550612e30565b601f198416612dde86612bba565b60005b82811015612e0657848901518255600182019150602085019450602081019050612de1565b86831015612e235784890151612e1f601f891682612d2c565b8355505b6001600288020188555050505b505050505050565b600081519050919050565b600082825260208201905092915050565b6000612e5f82612e38565b612e698185612e43565b9350612e798185602086016122ca565b612e82816122f4565b840191505092915050565b6000608082019050612ea260008301876123f5565b612eaf60208301866123f5565b612ebc604083018561248b565b8181036060830152612ece8184612e54565b905095945050505050565b600081519050612ee88161221f565b92915050565b600060208284031215612f0457612f036121e9565b5b6000612f1284828501612ed9565b91505092915050565b7f4e487b7100000000000000000000000000000000000000000000000000000000600052601260045260246000fd5b7f4e487b7100000000000000000000000000000000000000000000000000000000600052601160045260246000fd5b6000612f8482612360565b9150612f8f83612360565b9250828203905081811115612fa757612fa6612f4a565b5b92915050565b7f4e487b7100000000000000000000000000000000000000000000000000000000600052603160045260246000fdfea26469706673582212207f0f53578b1e12a96c0135a65f41b61507f1a8e41e6ee390823acf29d1c3b3de64736f6c63430008170033",
  "linkReferences": {},
  "deployedLinkReferences": {}
}