{
  "_format": "hh-sol-artifact-1",
  "contractName": "ModelNFT",
  "sourceName": "contracts/ModelNFT.sol",
  "abi": [
    {
      "inputs": [
        {
          "internalType": "string",
          "name": "name",
          "type": "string"
        },
        {
          "internalType": "string",
          "name": "symbol",
          "type": "string"
        }
      ],
      "stateMutability": "nonpayable",
      "type": "constructor"
    },
    {
      "inputs": [],
      "name": "ERC721EnumerableForbiddenBatchMint",
      "type": "error"
    },
    {
      "inputs": [
        {
          "internalType": "address",
          "name": "sender",
          "type": "address"
        },
        {
          "internalType": "uint256",
          "name": "tokenId",
          "type": "uint256"
        },
        {
          "internalType": "address",
          "name": "owner",
          "type": "address"
        }
      ],
      "name": "ERC721IncorrectOwner",
      "type": "error"
    },
    {
      "inputs": [
        {
          "internalType": "address",
          "name": "operator",
          "type": "address"
        },
        {
          "internalType": "uint256",
          "name": "tokenId",
          "type": "uint256"
        }
      ],
      "name": "ERC721InsufficientApproval",
      "type": "error"
    },
    {
      "inputs": [
        {
          "internalType": "address",
          "name": "approver",
          "type": "address"
        }
      ],
      "name": "ERC721InvalidApprover",
      "type": "error"
    },
    {
      "inputs": [
        {
          "internalType": "address",
          "name": "operator",
          "type": "address"
        }
      ],
      "name": "ERC721InvalidOperator",
      "type": "error"
    },
    {
      "inputs": [
        {
          "internalType": "address",
          "name": "owner",
          "type": "address"
        }
      ],
      "name": "ERC721InvalidOwner",
      "type": "error"
    },
    {
      "inputs": [
        {
          "internalType": "address",
          "name": "receiver",
          "type": "address"
        }
      ],
      "name": "ERC721InvalidReceiver",
      "type": "error"
    },
    {
      "inputs": [
        {
          "internalType": "address",
          "name": "sender",
          "type": "address"
        }
      ],
      "name": "ERC721InvalidSender",
      "type": "error"
    },
    {
      "inputs": [
        {
          "internalType": "uint256",
          "name": "tokenId",
          "type": "uint256"
        }
      ],
      "name": "ERC721NonexistentToken",
      "type": "error"
    },
    {
      "inputs": [
        {
          "internalType": "address",
          "name": "owner",
          "type": "address"
        },
        {
          "internalType": "uint256",
          "name": "index",
          "type": "uint256"
        }
      ],
      "name": "ERC721OutOfBoundsIndex",
      "type": "error"
    },
    {
      "anonymous": false,
      "inputs": [
        {
          "indexed": true,
          "internalType": "address",
          "name": "owner",
          "type": "address"
        },
        {
          "indexed": true,
          "internalType": "address",
          "name": "approved",
          "type": "address"
        },
        {
          "indexed": true,
          "internalType": "uint256",
          "name": "tokenId",
          "type": "uint256"
        }
      ],
      "name": "Approval",
      "type": "event"
    },
    {
      "anonymous": false,
      "inputs": [
        {
          "indexed": true,
          "internalType": "address",
          "name": "owner",
          "type": "address"
        },
        {
          "indexed": true,
          "internalType": "address",
          "name": "operator",
          "type": "address"
        },
        {
          "indexed": false,
          "internalType": "bool",
          "name": "approved",
          "type": "bool"
        }
      ],
      "name": "ApprovalForAll",
      "type": "event"
    },
    {
      "anonymous": false,
      "inputs": [
        {
          "indexed": true,
          "internalType": "uint256",
          "name": "tokenId",
          "type": "uint256"
        },
        {
          "indexed": true,
          "internalType": "address",
          "name": "to",
          "type": "address"
        }
      ],
      "name": "ModelNFTMint",
      "type": "event"
    },
    {
      "anonymous": false,
      "inputs": [
        {
          "indexed": true,
          "internalType": "address",
          "name": "from",
          "type": "address"
        },
        {
          "indexed": true,
          "internalType": "address",
          "name": "to",
          "type": "address"
        },
        {
          "indexed": true,
          "internalType": "uint256",
          "name": "tokenId",
          "type": "uint256"
        }
      ],
      "name": "Transfer",
      "type": "event"
    },
    {
      "inputs": [
        {
          "internalType": "address",
          "name": "to",
          "type": "address"
        },
        {
          "internalType": "uint256",
          "name": "tokenId",
          "type": "uint256"
        }
      ],
      "name": "approve",
      "outputs": [],
      "stateMutability": "nonpayable",
      "type": "function"
    },
    {
      "inputs": [
        {
          "internalType": "address",
          "name": "owner",
          "type": "address"
        }
      ],
      "name": "balanceOf",
      "outputs": [
        {
          "internalType": "uint256",
          "name": "",
          "type": "uint256"
        }
      ],
      "stateMutability": "view",
      "type": "function"
    },
    {
      "inputs": [],
      "name": "getAllModelInfo",
      "outputs": [
        {
          "components": [
            {
              "internalType": "uint256",
              "name": "tokenId",
              "type": "uint256"
            },
            {
              "components": [
                {
                  "internalType": "address",
                  "name": "creator",
                  "type": "address"
                },
                {
                  "internalType": "string",
                  "name": "createdAt",
                  "type": "string"
                },
                {
                  "internalType": "string",
                  "name": "numParams",
                  "type": "string"
                },
                {
                  "internalType": "string",
                  "name": "modelName",
                  "type": "string"
                }
              ],
              "internalType": "struct ModelNFT.ModelInfo",
              "name": "modelInfo",
              "type": "tuple"
            }
          ],
          "internalType": "struct ModelNFT.TokenModelInfo[]",
          "name": "",
          "type": "tuple[]"
        }
      ],
      "stateMutability": "view",
      "type": "function"
    },
    {
      "inputs": [
        {
          "internalType": "uint256",
          "name": "tokenId",
          "type": "uint256"
        }
      ],
      "name": "getApproved",
      "outputs": [
        {
          "internalType": "address",
          "name": "",
          "type": "address"
        }
      ],
      "stateMutability": "view",
      "type": "function"
    },
    {
      "inputs": [
        {
          "internalType": "uint256",
          "name": "tokenId",
          "type": "uint256"
        }
      ],
      "name": "getModelInfo",
      "outputs": [
        {
          "components": [
            {
              "internalType": "address",
              "name": "creator",
              "type": "address"
            },
            {
              "internalType": "string",
              "name": "createdAt",
              "type": "string"
            },
            {
              "internalType": "string",
              "name": "numParams",
              "type": "string"
            },
            {
              "internalType": "string",
              "name": "modelName",
              "type": "string"
            }
          ],
          "internalType": "struct ModelNFT.ModelInfo",
          "name": "",
          "type": "tuple"
        }
      ],
      "stateMutability": "view",
      "type": "function"
    },
    {
      "inputs": [
        {
          "internalType": "address",
          "name": "owner",
          "type": "address"
        },
        {
          "internalType": "address",
          "name": "operator",
          "type": "address"
        }
      ],
      "name": "isApprovedForAll",
      "outputs": [
        {
          "internalType": "bool",
          "name": "",
          "type": "bool"
        }
      ],
      "stateMutability": "view",
      "type": "function"
    },
    {
      "inputs": [
        {
          "internalType": "address",
          "name": "to",
          "type": "address"
        },
        {
          "components": [
            {
              "internalType": "address",
              "name": "creator",
              "type": "address"
            },
            {
              "internalType": "string",
              "name": "createdAt",
              "type": "string"
            },
            {
              "internalType": "string",
              "name": "numParams",
              "type": "string"
            },
            {
              "internalType": "string",
              "name": "modelName",
              "type": "string"
            }
          ],
          "internalType": "struct ModelNFT.ModelInfo",
          "name": "modelInfo",
          "type": "tuple"
        }
      ],
      "name": "mintWithModelInfo",
      "outputs": [
        {
          "internalType": "uint256",
          "name": "",
          "type": "uint256"
        }
      ],
      "stateMutability": "nonpayable",
      "type": "function"
    },
    {
      "inputs": [],
      "name": "name",
      "outputs": [
        {
          "internalType": "string",
          "name": "",
          "type": "string"
        }
      ],
      "stateMutability": "view",
      "type": "function"
    },
    {
      "inputs": [
        {
          "internalType": "uint256",
          "name": "tokenId",
          "type": "uint256"
        }
      ],
      "name": "ownerOf",
      "outputs": [
        {
          "internalType": "address",
          "name": "",
          "type": "address"
        }
      ],
      "stateMutability": "view",
      "type": "function"
    },
    {
      "inputs": [
        {
          "internalType": "address",
          "name": "from",
          "type": "address"
        },
        {
          "internalType": "address",
          "name": "to",
          "type": "address"
        },
        {
          "internalType": "uint256",
          "name": "tokenId",
          "type": "uint256"
        }
      ],
      "name": "safeTransferFrom",
      "outputs": [],
      "stateMutability": "nonpayable",
      "type": "function"
    },
    {
      "inputs": [
        {
          "internalType": "address",
          "name": "from",
          "type": "address"
        },
        {
          "internalType": "address",
          "name": "to",
          "type": "address"
        },
        {
          "internalType": "uint256",
          "name": "tokenId",
          "type": "uint256"
        },
        {
          "internalType": "bytes",
          "name": "data",
          "type": "bytes"
        }
      ],
      "name": "safeTransferFrom",
      "outputs": [],
      "stateMutability": "nonpayable",
      "type": "function"
    },
    {
      "inputs": [
        {
          "internalType": "address",
          "name": "operator",
          "type": "address"
        },
        {
          "internalType": "bool",
          "name": "approved",
          "type": "bool"
        }
      ],
      "name": "setApprovalForAll",
      "outputs": [],
      "stateMutability": "nonpayable",
      "type": "function"
    },
    {
      "inputs": [
        {
          "internalType": "bytes4",
          "name": "interfaceId",
          "type": "bytes4"
        }
      ],
      "name": "supportsInterface",
      "outputs": [
        {
          "internalType": "bool",
          "name": "",
          "type": "bool"
        }
      ],
      "stateMutability": "view",
      "type": "function"
    },
    {
      "inputs": [],
      "name": "symbol",
      "outputs": [
        {
          "internalType": "string",
          "name": "",
          "type": "string"
        }
      ],
      "stateMutability": "view",
      "type": "function"
    },
    {
      "inputs": [
        {
          "internalType": "uint256",
          "name": "index",
          "type": "uint256"
        }
      ],
      "name": "tokenByIndex",
      "outputs": [
        {
          "internalType": "uint256",
          "name": "",
          "type": "uint256"
        }
      ],
      "stateMutability": "view",
      "type": "function"
    },
    {
      "inputs": [
        {
          "internalType": "address",
          "name": "owner",
          "type": "address"
        },
        {
          "internalType": "uint256",
          "name": "index",
          "type": "uint256"
        }
      ],
      "name": "tokenOfOwnerByIndex",
      "outputs": [
        {
          "internalType": "uint256",
          "name": "",
          "type": "uint256"
        }
      ],
      "stateMutability": "view",
      "type": "function"
    },
    {
      "inputs": [
        {
          "internalType": "uint256",
          "name": "tokenId",
          "type": "uint256"
        }
      ],
      "name": "tokenURI",
      "outputs": [
        {
          "internalType": "string",
          "name": "",
          "type": "string"
        }
      ],
      "stateMutability": "view",
      "type": "function"
    },
    {
      "inputs": [],
      "name": "totalSupply",
      "outputs": [
        {
          "internalType": "uint256",
          "name": "",
          "type": "uint256"
        }
      ],
      "stateMutability": "view",
      "type": "function"
    },
    {
      "inputs": [
        {
          "internalType": "address",
          "name": "from",
          "type": "address"
        },
        {
          "internalType": "address",
          "name": "to",
          "type": "address"
        },
        {
          "internalType": "uint256",
          "name": "tokenId",
          "type": "uint256"
        }
      ],
      "name": "transferFrom",
      "outputs": [],
      "stateMutability": "nonpayable",
      "type": "function"
    }
  ],
  "bytecode": "0x60806040523480156200001157600080fd5b50604051620036c3380380620036c38339818101604052810190620000379190620001fa565b818181600090816200004a9190620004ca565b5080600190816200005c9190620004ca565b5050505050620005b1565b6000604051905090565b600080fd5b600080fd5b600080fd5b600080fd5b6000601f19601f8301169050919050565b7f4e487b7100000000000000000000000000000000000000000000000000000000600052604160045260246000fd5b620000d08262000085565b810181811067ffffffffffffffff82111715620000f257620000f162000096565b5b80604052505050565b60006200010762000067565b9050620001158282620000c5565b919050565b600067ffffffffffffffff82111562000138576200013762000096565b5b620001438262000085565b9050602081019050919050565b60005b838110156200017057808201518184015260208101905062000153565b60008484015250505050565b6000620001936200018d846200011a565b620000fb565b905082815260208101848484011115620001b257620001b162000080565b5b620001bf84828562000150565b509392505050565b600082601f830112620001df57620001de6200007b565b5b8151620001f18482602086016200017c565b91505092915050565b6000806040838503121562000214576200021362000071565b5b600083015167ffffffffffffffff81111562000235576200023462000076565b5b6200024385828601620001c7565b925050602083015167ffffffffffffffff81111562000267576200026662000076565b5b6200027585828601620001c7565b9150509250929050565b600081519050919050565b7f4e487b7100000000000000000000000000000000000000000000000000000000600052602260045260246000fd5b60006002820490506001821680620002d257607f821691505b602082108103620002e857620002e76200028a565b5b50919050565b60008190508160005260206000209050919050565b60006020601f8301049050919050565b600082821b905092915050565b600060088302620003527fffffffffffffffffffffffffffffffffffffffffffffffffffffffffffffffff8262000313565b6200035e868362000313565b95508019841693508086168417925050509392505050565b6000819050919050565b6000819050919050565b6000620003ab620003a56200039f8462000376565b62000380565b62000376565b9050919050565b6000819050919050565b620003c7836200038a565b620003df620003d682620003b2565b84845462000320565b825550505050565b600090565b620003f6620003e7565b62000403818484620003bc565b505050565b5b818110156200042b576200041f600082620003ec565b60018101905062000409565b5050565b601f8211156200047a576200044481620002ee565b6200044f8462000303565b810160208510156200045f578190505b620004776200046e8562000303565b83018262000408565b50505b505050565b600082821c905092915050565b60006200049f600019846008026200047f565b1980831691505092915050565b6000620004ba83836200048c565b9150826002028217905092915050565b620004d5826200027f565b67ffffffffffffffff811115620004f157620004f062000096565b5b620004fd8254620002b9565b6200050a8282856200042f565b600060209050601f8311600181146200054257600084156200052d578287015190505b620005398582620004ac565b865550620005a9565b601f1984166200055286620002ee565b60005b828110156200057c5784890151825560018201915060208501945060208101905062000555565b868310156200059c578489015162000598601f8916826200048c565b8355505b6001600288020188555050505b505050505050565b61310280620005c16000396000f3fe608060405234801561001057600080fd5b50600436106101215760003560e01c80636352211e116100ad578063b88d4fde11610071578063b88d4fde14610340578063c87b56dd1461035c578063d4d168a21461038c578063e985e9c5146103aa578063efb66ee8146103da57610121565b80636352211e1461027657806370a08231146102a65780638f140c73146102d657806395d89b4114610306578063a22cb4651461032457610121565b806318160ddd116100f457806318160ddd146101c057806323b872dd146101de5780632f745c59146101fa57806342842e0e1461022a5780634f6ccce71461024657610121565b806301ffc9a71461012657806306fdde0314610156578063081812fc14610174578063095ea7b3146101a4575b600080fd5b610140600480360381019061013b9190612165565b61040a565b60405161014d91906121ad565b60405180910390f35b61015e610484565b60405161016b9190612258565b60405180910390f35b61018e600480360381019061018991906122b0565b610516565b60405161019b919061231e565b60405180910390f35b6101be60048036038101906101b99190612365565b610532565b005b6101c8610548565b6040516101d591906123b4565b60405180910390f35b6101f860048036038101906101f391906123cf565b610555565b005b610214600480360381019061020f9190612365565b610657565b60405161022191906123b4565b60405180910390f35b610244600480360381019061023f91906123cf565b610700565b005b610260600480360381019061025b91906122b0565b610720565b60405161026d91906123b4565b60405180910390f35b610290600480360381019061028b91906122b0565b610796565b60405161029d919061231e565b60405180910390f35b6102c060048036038101906102bb9190612422565b6107a8565b6040516102cd91906123b4565b60405180910390f35b6102f060048036038101906102eb919061265a565b610862565b6040516102fd91906123b4565b60405180910390f35b61030e6108e0565b60405161031b9190612258565b60405180910390f35b61033e600480360381019061033991906126e2565b610972565b005b61035a600480360381019061035591906127c3565b610988565b005b610376600480360381019061037191906122b0565b6109a5565b6040516103839190612258565b60405180910390f35b610394610a0e565b6040516103a19190612a1e565b60405180910390f35b6103c460048036038101906103bf9190612a40565b610ae4565b6040516103d191906121ad565b60405180910390f35b6103f460048036038101906103ef91906122b0565b610b78565b6040516104019190612af1565b60405180910390f35b60007f780e9d63000000000000000000000000000000000000000000000000000000007bffffffffffffffffffffffffffffffffffffffffffffffffffffffff1916827bffffffffffffffffffffffffffffffffffffffffffffffffffffffff1916148061047d575061047c82610db1565b5b9050919050565b60606000805461049390612b42565b80601f01602080910402602001604051908101604052809291908181526020018280546104bf90612b42565b801561050c5780601f106104e15761010080835404028352916020019161050c565b820191906000526020600020905b8154815290600101906020018083116104ef57829003601f168201915b5050505050905090565b600061052182610e93565b5061052b82610f1b565b9050919050565b610544828261053f610f58565b610f60565b5050565b6000600880549050905090565b600073ffffffffffffffffffffffffffffffffffffffff168273ffffffffffffffffffffffffffffffffffffffff16036105c75760006040517f64a0ae920000000000000000000000000000000000000000000000000000000081526004016105be919061231e565b60405180910390fd5b60006105db83836105d6610f58565b610f72565b90508373ffffffffffffffffffffffffffffffffffffffff168173ffffffffffffffffffffffffffffffffffffffff1614610651578382826040517f64283d7b00000000000000000000000000000000000000000000000000000000815260040161064893929190612b73565b60405180910390fd5b50505050565b6000610662836107a8565b82106106a75782826040517fa57d13dc00000000000000000000000000000000000000000000000000000000815260040161069e929190612baa565b60405180910390fd5b600660008473ffffffffffffffffffffffffffffffffffffffff1673ffffffffffffffffffffffffffffffffffffffff168152602001908152602001600020600083815260200190815260200160002054905092915050565b61071b83838360405180602001604052806000815250610988565b505050565b600061072a610548565b8210610770576000826040517fa57d13dc000000000000000000000000000000000000000000000000000000008152600401610767929190612baa565b60405180910390fd5b6008828154811061078457610783612bd3565b5b90600052602060002001549050919050565b60006107a182610e93565b9050919050565b60008073ffffffffffffffffffffffffffffffffffffffff168273ffffffffffffffffffffffffffffffffffffffff160361081b5760006040517f89c62b64000000000000000000000000000000000000000000000000000000008152600401610812919061231e565b60405180910390fd5b600360008373ffffffffffffffffffffffffffffffffffffffff1673ffffffffffffffffffffffffffffffffffffffff168152602001908152602001600020549050919050565b600080600b600081548092919061087890612c31565b919050559050610888848261108f565b6108928184611188565b8373ffffffffffffffffffffffffffffffffffffffff16817f7c40a9dba3f72de3692f0ab32b86831d540641ead7986efc2a142bfec722f12f60405160405180910390a38091505092915050565b6060600180546108ef90612b42565b80601f016020809104026020016040519081016040528092919081815260200182805461091b90612b42565b80156109685780601f1061093d57610100808354040283529160200191610968565b820191906000526020600020905b81548152906001019060200180831161094b57829003601f168201915b5050505050905090565b61098461097d610f58565b838361122c565b5050565b610993848484610555565b61099f8484848461139b565b50505050565b60606109b082610e93565b5060006109bb611552565b905060008151116109db5760405180602001604052806000815250610a06565b806109e584611569565b6040516020016109f6929190612cb5565b6040516020818303038152906040525b915050919050565b60606000610a1a610548565b905060008167ffffffffffffffff811115610a3857610a37612454565b5b604051908082528060200260200182016040528015610a7157816020015b610a5e61209b565b815260200190600190039081610a565790505b50905060005b82811015610adb576000610a8a82610720565b90506000610a9782610b78565b9050604051806040016040528083815260200182815250848481518110610ac157610ac0612bd3565b5b602002602001018190525050508080600101915050610a77565b50809250505090565b6000600560008473ffffffffffffffffffffffffffffffffffffffff1673ffffffffffffffffffffffffffffffffffffffff16815260200190815260200160002060008373ffffffffffffffffffffffffffffffffffffffff1673ffffffffffffffffffffffffffffffffffffffff16815260200190815260200160002060009054906101000a900460ff16905092915050565b610b806120bb565b600a60008381526020019081526020016000206040518060800160405290816000820160009054906101000a900473ffffffffffffffffffffffffffffffffffffffff1673ffffffffffffffffffffffffffffffffffffffff1673ffffffffffffffffffffffffffffffffffffffff168152602001600182018054610c0490612b42565b80601f0160208091040260200160405190810160405280929190818152602001828054610c3090612b42565b8015610c7d5780601f10610c5257610100808354040283529160200191610c7d565b820191906000526020600020905b815481529060010190602001808311610c6057829003601f168201915b50505050508152602001600282018054610c9690612b42565b80601f0160208091040260200160405190810160405280929190818152602001828054610cc290612b42565b8015610d0f5780601f10610ce457610100808354040283529160200191610d0f565b820191906000526020600020905b815481529060010190602001808311610cf257829003601f168201915b50505050508152602001600382018054610d2890612b42565b80601f0160208091040260200160405190810160405280929190818152602001828054610d5490612b42565b8015610da15780601f10610d7657610100808354040283529160200191610da1565b820191906000526020600020905b815481529060010190602001808311610d8457829003601f168201915b5050505050815250509050919050565b60007f80ac58cd000000000000000000000000000000000000000000000000000000007bffffffffffffffffffffffffffffffffffffffffffffffffffffffff1916827bffffffffffffffffffffffffffffffffffffffffffffffffffffffff19161480610e7c57507f5b5e139f000000000000000000000000000000000000000000000000000000007bffffffffffffffffffffffffffffffffffffffffffffffffffffffff1916827bffffffffffffffffffffffffffffffffffffffffffffffffffffffff1916145b80610e8c5750610e8b82611637565b5b9050919050565b600080610e9f836116a1565b9050600073ffffffffffffffffffffffffffffffffffffffff168173ffffffffffffffffffffffffffffffffffffffff1603610f1257826040517f7e273289000000000000000000000000000000000000000000000000000000008152600401610f0991906123b4565b60405180910390fd5b80915050919050565b60006004600083815260200190815260200160002060009054906101000a900473ffffffffffffffffffffffffffffffffffffffff169050919050565b600033905090565b610f6d83838360016116de565b505050565b600080610f808585856118a3565b9050600073ffffffffffffffffffffffffffffffffffffffff168173ffffffffffffffffffffffffffffffffffffffff1603610fc457610fbf84611abd565b611003565b8473ffffffffffffffffffffffffffffffffffffffff168173ffffffffffffffffffffffffffffffffffffffff1614611002576110018185611b06565b5b5b600073ffffffffffffffffffffffffffffffffffffffff168573ffffffffffffffffffffffffffffffffffffffff16036110455761104084611c67565b611084565b8473ffffffffffffffffffffffffffffffffffffffff168173ffffffffffffffffffffffffffffffffffffffff1614611083576110828585611d38565b5b5b809150509392505050565b600073ffffffffffffffffffffffffffffffffffffffff168273ffffffffffffffffffffffffffffffffffffffff16036111015760006040517f64a0ae920000000000000000000000000000000000000000000000000000000081526004016110f8919061231e565b60405180910390fd5b600061110f83836000610f72565b9050600073ffffffffffffffffffffffffffffffffffffffff168173ffffffffffffffffffffffffffffffffffffffff16146111835760006040517f73c6ac6e00000000000000000000000000000000000000000000000000000000815260040161117a919061231e565b60405180910390fd5b505050565b80600a600084815260200190815260200160002060008201518160000160006101000a81548173ffffffffffffffffffffffffffffffffffffffff021916908373ffffffffffffffffffffffffffffffffffffffff16021790555060208201518160010190816111f89190612e85565b50604082015181600201908161120e9190612e85565b5060608201518160030190816112249190612e85565b509050505050565b600073ffffffffffffffffffffffffffffffffffffffff168273ffffffffffffffffffffffffffffffffffffffff160361129d57816040517f5b08ba18000000000000000000000000000000000000000000000000000000008152600401611294919061231e565b60405180910390fd5b80600560008573ffffffffffffffffffffffffffffffffffffffff1673ffffffffffffffffffffffffffffffffffffffff16815260200190815260200160002060008473ffffffffffffffffffffffffffffffffffffffff1673ffffffffffffffffffffffffffffffffffffffff16815260200190815260200160002060006101000a81548160ff0219169083151502179055508173ffffffffffffffffffffffffffffffffffffffff168373ffffffffffffffffffffffffffffffffffffffff167f17307eab39ab6107e8899845ad3d59bd9653f200f220920489ca2b5937696c318360405161138e91906121ad565b60405180910390a3505050565b60008373ffffffffffffffffffffffffffffffffffffffff163b111561154c578273ffffffffffffffffffffffffffffffffffffffff1663150b7a026113df610f58565b8685856040518563ffffffff1660e01b81526004016114019493929190612fac565b6020604051808303816000875af192505050801561143d57506040513d601f19601f8201168201806040525081019061143a919061300d565b60015b6114c1573d806000811461146d576040519150601f19603f3d011682016040523d82523d6000602084013e611472565b606091505b5060008151036114b957836040517f64a0ae920000000000000000000000000000000000000000000000000000000081526004016114b0919061231e565b60405180910390fd5b805181602001fd5b63150b7a0260e01b7bffffffffffffffffffffffffffffffffffffffffffffffffffffffff1916817bffffffffffffffffffffffffffffffffffffffffffffffffffffffff19161461154a57836040517f64a0ae92000000000000000000000000000000000000000000000000000000008152600401611541919061231e565b60405180910390fd5b505b50505050565b606060405180602001604052806000815250905090565b60606000600161157884611dc3565b01905060008167ffffffffffffffff81111561159757611596612454565b5b6040519080825280601f01601f1916602001820160405280156115c95781602001600182028036833780820191505090505b509050600082602001820190505b60011561162c578080600190039150507f3031323334353637383961626364656600000000000000000000000000000000600a86061a8153600a85816116205761161f61303a565b5b049450600085036115d7575b819350505050919050565b60007f01ffc9a7000000000000000000000000000000000000000000000000000000007bffffffffffffffffffffffffffffffffffffffffffffffffffffffff1916827bffffffffffffffffffffffffffffffffffffffffffffffffffffffff1916149050919050565b60006002600083815260200190815260200160002060009054906101000a900473ffffffffffffffffffffffffffffffffffffffff169050919050565b80806117175750600073ffffffffffffffffffffffffffffffffffffffff168273ffffffffffffffffffffffffffffffffffffffff1614155b1561184b57600061172784610e93565b9050600073ffffffffffffffffffffffffffffffffffffffff168373ffffffffffffffffffffffffffffffffffffffff161415801561179257508273ffffffffffffffffffffffffffffffffffffffff168173ffffffffffffffffffffffffffffffffffffffff1614155b80156117a557506117a38184610ae4565b155b156117e757826040517fa9fbf51f0000000000000000000000000000000000000000000000000000000081526004016117de919061231e565b60405180910390fd5b811561184957838573ffffffffffffffffffffffffffffffffffffffff168273ffffffffffffffffffffffffffffffffffffffff167f8c5be1e5ebec7d5bd14f71427d1e84f3dd0314c0f7b2291e5b200ac8c7c3b92560405160405180910390a45b505b836004600085815260200190815260200160002060006101000a81548173ffffffffffffffffffffffffffffffffffffffff021916908373ffffffffffffffffffffffffffffffffffffffff16021790555050505050565b6000806118af846116a1565b9050600073ffffffffffffffffffffffffffffffffffffffff168373ffffffffffffffffffffffffffffffffffffffff16146118f1576118f0818486611f16565b5b600073ffffffffffffffffffffffffffffffffffffffff168173ffffffffffffffffffffffffffffffffffffffff1614611982576119336000856000806116de565b6001600360008373ffffffffffffffffffffffffffffffffffffffff1673ffffffffffffffffffffffffffffffffffffffff168152602001908152602001600020600082825403925050819055505b600073ffffffffffffffffffffffffffffffffffffffff168573ffffffffffffffffffffffffffffffffffffffff1614611a05576001600360008773ffffffffffffffffffffffffffffffffffffffff1673ffffffffffffffffffffffffffffffffffffffff168152602001908152602001600020600082825401925050819055505b846002600086815260200190815260200160002060006101000a81548173ffffffffffffffffffffffffffffffffffffffff021916908373ffffffffffffffffffffffffffffffffffffffff160217905550838573ffffffffffffffffffffffffffffffffffffffff168273ffffffffffffffffffffffffffffffffffffffff167fddf252ad1be2c89b69c2b068fc378daa952ba7f163c4a11628f55a4df523b3ef60405160405180910390a4809150509392505050565b6008805490506009600083815260200190815260200160002081905550600881908060018154018082558091505060019003906000526020600020016000909190919091505550565b6000611b11836107a8565b9050600060076000848152602001908152602001600020549050818114611bf6576000600660008673ffffffffffffffffffffffffffffffffffffffff1673ffffffffffffffffffffffffffffffffffffffff168152602001908152602001600020600084815260200190815260200160002054905080600660008773ffffffffffffffffffffffffffffffffffffffff1673ffffffffffffffffffffffffffffffffffffffff168152602001908152602001600020600084815260200190815260200160002081905550816007600083815260200190815260200160002081905550505b6007600084815260200190815260200160002060009055600660008573ffffffffffffffffffffffffffffffffffffffff1673ffffffffffffffffffffffffffffffffffffffff16815260200190815260200160002060008381526020019081526020016000206000905550505050565b60006001600880549050611c7b9190613069565b9050600060096000848152602001908152602001600020549050600060088381548110611cab57611caa612bd3565b5b906000526020600020015490508060088381548110611ccd57611ccc612bd3565b5b906000526020600020018190555081600960008381526020019081526020016000208190555060096000858152602001908152602001600020600090556008805480611d1c57611d1b61309d565b5b6001900381819060005260206000200160009055905550505050565b60006001611d45846107a8565b611d4f9190613069565b905081600660008573ffffffffffffffffffffffffffffffffffffffff1673ffffffffffffffffffffffffffffffffffffffff168152602001908152602001600020600083815260200190815260200160002081905550806007600084815260200190815260200160002081905550505050565b600080600090507a184f03e93ff9f4daa797ed6e38ed64bf6a1f0100000000000000008310611e21577a184f03e93ff9f4daa797ed6e38ed64bf6a1f0100000000000000008381611e1757611e1661303a565b5b0492506040810190505b6d04ee2d6d415b85acef81000000008310611e5e576d04ee2d6d415b85acef81000000008381611e5457611e5361303a565b5b0492506020810190505b662386f26fc100008310611e8d57662386f26fc100008381611e8357611e8261303a565b5b0492506010810190505b6305f5e1008310611eb6576305f5e1008381611eac57611eab61303a565b5b0492506008810190505b6127108310611edb576127108381611ed157611ed061303a565b5b0492506004810190505b60648310611efe5760648381611ef457611ef361303a565b5b0492506002810190505b600a8310611f0d576001810190505b80915050919050565b611f21838383611fda565b611fd557600073ffffffffffffffffffffffffffffffffffffffff168373ffffffffffffffffffffffffffffffffffffffff1603611f9657806040517f7e273289000000000000000000000000000000000000000000000000000000008152600401611f8d91906123b4565b60405180910390fd5b81816040517f177e802f000000000000000000000000000000000000000000000000000000008152600401611fcc929190612baa565b60405180910390fd5b505050565b60008073ffffffffffffffffffffffffffffffffffffffff168373ffffffffffffffffffffffffffffffffffffffff161415801561209257508273ffffffffffffffffffffffffffffffffffffffff168473ffffffffffffffffffffffffffffffffffffffff16148061205357506120528484610ae4565b5b8061209157508273ffffffffffffffffffffffffffffffffffffffff1661207983610f1b565b73ffffffffffffffffffffffffffffffffffffffff16145b5b90509392505050565b6040518060400160405280600081526020016120b56120bb565b81525090565b6040518060800160405280600073ffffffffffffffffffffffffffffffffffffffff1681526020016060815260200160608152602001606081525090565b6000604051905090565b600080fd5b600080fd5b60007fffffffff0000000000000000000000000000000000000000000000000000000082169050919050565b6121428161210d565b811461214d57600080fd5b50565b60008135905061215f81612139565b92915050565b60006020828403121561217b5761217a612103565b5b600061218984828501612150565b91505092915050565b60008115159050919050565b6121a781612192565b82525050565b60006020820190506121c2600083018461219e565b92915050565b600081519050919050565b600082825260208201905092915050565b60005b838110156122025780820151818401526020810190506121e7565b60008484015250505050565b6000601f19601f8301169050919050565b600061222a826121c8565b61223481856121d3565b93506122448185602086016121e4565b61224d8161220e565b840191505092915050565b60006020820190508181036000830152612272818461221f565b905092915050565b6000819050919050565b61228d8161227a565b811461229857600080fd5b50565b6000813590506122aa81612284565b92915050565b6000602082840312156122c6576122c5612103565b5b60006122d48482850161229b565b91505092915050565b600073ffffffffffffffffffffffffffffffffffffffff82169050919050565b6000612308826122dd565b9050919050565b612318816122fd565b82525050565b6000602082019050612333600083018461230f565b92915050565b612342816122fd565b811461234d57600080fd5b50565b60008135905061235f81612339565b92915050565b6000806040838503121561237c5761237b612103565b5b600061238a85828601612350565b925050602061239b8582860161229b565b9150509250929050565b6123ae8161227a565b82525050565b60006020820190506123c960008301846123a5565b92915050565b6000806000606084860312156123e8576123e7612103565b5b60006123f686828701612350565b935050602061240786828701612350565b92505060406124188682870161229b565b9150509250925092565b60006020828403121561243857612437612103565b5b600061244684828501612350565b91505092915050565b600080fd5b7f4e487b7100000000000000000000000000000000000000000000000000000000600052604160045260246000fd5b61248c8261220e565b810181811067ffffffffffffffff821117156124ab576124aa612454565b5b80604052505050565b60006124be6120f9565b90506124ca8282612483565b919050565b600080fd5b600080fd5b600080fd5b600067ffffffffffffffff8211156124f9576124f8612454565b5b6125028261220e565b9050602081019050919050565b82818337600083830152505050565b600061253161252c846124de565b6124b4565b90508281526020810184848401111561254d5761254c6124d9565b5b61255884828561250f565b509392505050565b600082601f830112612575576125746124d4565b5b813561258584826020860161251e565b91505092915050565b6000608082840312156125a4576125a361244f565b5b6125ae60806124b4565b905060006125be84828501612350565b600083015250602082013567ffffffffffffffff8111156125e2576125e16124cf565b5b6125ee84828501612560565b602083015250604082013567ffffffffffffffff811115612612576126116124cf565b5b61261e84828501612560565b604083015250606082013567ffffffffffffffff811115612642576126416124cf565b5b61264e84828501612560565b60608301525092915050565b6000806040838503121561267157612670612103565b5b600061267f85828601612350565b925050602083013567ffffffffffffffff8111156126a05761269f612108565b5b6126ac8582860161258e565b9150509250929050565b6126bf81612192565b81146126ca57600080fd5b50565b6000813590506126dc816126b6565b92915050565b600080604083850312156126f9576126f8612103565b5b600061270785828601612350565b9250506020612718858286016126cd565b9150509250929050565b600067ffffffffffffffff82111561273d5761273c612454565b5b6127468261220e565b9050602081019050919050565b600061276661276184612722565b6124b4565b905082815260208101848484011115612782576127816124d9565b5b61278d84828561250f565b509392505050565b600082601f8301126127aa576127a96124d4565b5b81356127ba848260208601612753565b91505092915050565b600080600080608085870312156127dd576127dc612103565b5b60006127eb87828801612350565b94505060206127fc87828801612350565b935050604061280d8782880161229b565b925050606085013567ffffffffffffffff81111561282e5761282d612108565b5b61283a87828801612795565b91505092959194509250565b600081519050919050565b600082825260208201905092915050565b6000819050602082019050919050565b61287b8161227a565b82525050565b61288a816122fd565b82525050565b600082825260208201905092915050565b60006128ac826121c8565b6128b68185612890565b93506128c68185602086016121e4565b6128cf8161220e565b840191505092915050565b60006080830160008301516128f26000860182612881565b506020830151848203602086015261290a82826128a1565b9150506040830151848203604086015261292482826128a1565b9150506060830151848203606086015261293e82826128a1565b9150508091505092915050565b60006040830160008301516129636000860182612872565b506020830151848203602086015261297b82826128da565b9150508091505092915050565b6000612994838361294b565b905092915050565b6000602082019050919050565b60006129b482612846565b6129be8185612851565b9350836020820285016129d085612862565b8060005b85811015612a0c57848403895281516129ed8582612988565b94506129f88361299c565b925060208a019950506001810190506129d4565b50829750879550505050505092915050565b60006020820190508181036000830152612a3881846129a9565b905092915050565b60008060408385031215612a5757612a56612103565b5b6000612a6585828601612350565b9250506020612a7685828601612350565b9150509250929050565b6000608083016000830151612a986000860182612881565b5060208301518482036020860152612ab082826128a1565b91505060408301518482036040860152612aca82826128a1565b91505060608301518482036060860152612ae482826128a1565b9150508091505092915050565b60006020820190508181036000830152612b0b8184612a80565b905092915050565b7f4e487b7100000000000000000000000000000000000000000000000000000000600052602260045260246000fd5b60006002820490506001821680612b5a57607f821691505b602082108103612b6d57612b6c612b13565b5b50919050565b6000606082019050612b88600083018661230f565b612b9560208301856123a5565b612ba2604083018461230f565b949350505050565b6000604082019050612bbf600083018561230f565b612bcc60208301846123a5565b9392505050565b7f4e487b7100000000000000000000000000000000000000000000000000000000600052603260045260246000fd5b7f4e487b7100000000000000000000000000000000000000000000000000000000600052601160045260246000fd5b6000612c3c8261227a565b91507fffffffffffffffffffffffffffffffffffffffffffffffffffffffffffffffff8203612c6e57612c6d612c02565b5b600182019050919050565b600081905092915050565b6000612c8f826121c8565b612c998185612c79565b9350612ca98185602086016121e4565b80840191505092915050565b6000612cc18285612c84565b9150612ccd8284612c84565b91508190509392505050565b60008190508160005260206000209050919050565b60006020601f8301049050919050565b600082821b905092915050565b600060088302612d3b7fffffffffffffffffffffffffffffffffffffffffffffffffffffffffffffffff82612cfe565b612d458683612cfe565b95508019841693508086168417925050509392505050565b6000819050919050565b6000612d82612d7d612d788461227a565b612d5d565b61227a565b9050919050565b6000819050919050565b612d9c83612d67565b612db0612da882612d89565b848454612d0b565b825550505050565b600090565b612dc5612db8565b612dd0818484612d93565b505050565b5b81811015612df457612de9600082612dbd565b600181019050612dd6565b5050565b601f821115612e3957612e0a81612cd9565b612e1384612cee565b81016020851015612e22578190505b612e36612e2e85612cee565b830182612dd5565b50505b505050565b600082821c905092915050565b6000612e5c60001984600802612e3e565b1980831691505092915050565b6000612e758383612e4b565b9150826002028217905092915050565b612e8e826121c8565b67ffffffffffffffff811115612ea757612ea6612454565b5b612eb18254612b42565b612ebc828285612df8565b600060209050601f831160018114612eef5760008415612edd578287015190505b612ee78582612e69565b865550612f4f565b601f198416612efd86612cd9565b60005b82811015612f2557848901518255600182019150602085019450602081019050612f00565b86831015612f425784890151612f3e601f891682612e4b565b8355505b6001600288020188555050505b505050505050565b600081519050919050565b600082825260208201905092915050565b6000612f7e82612f57565b612f888185612f62565b9350612f988185602086016121e4565b612fa18161220e565b840191505092915050565b6000608082019050612fc1600083018761230f565b612fce602083018661230f565b612fdb60408301856123a5565b8181036060830152612fed8184612f73565b905095945050505050565b60008151905061300781612139565b92915050565b60006020828403121561302357613022612103565b5b600061303184828501612ff8565b91505092915050565b7f4e487b7100000000000000000000000000000000000000000000000000000000600052601260045260246000fd5b60006130748261227a565b915061307f8361227a565b925082820390508181111561309757613096612c02565b5b92915050565b7f4e487b7100000000000000000000000000000000000000000000000000000000600052603160045260246000fdfea2646970667358221220e94bd62f77b20ef68343e89ce7f32d252a88daaac15c014a47faf2529efd3b0364736f6c63430008170033",
  "linkReferences": {},
  "deployedLinkReferences": {}
}