{
  "_format": "hh-sol-artifact-1",
  "contractName": "ModelNFT",
  "sourceName": "contracts/ModelNFT.sol",
  "abi": [
    {
      "inputs": [
        {
          "internalType": "string",
          "name": "name",
          "type": "string"
        },
        {
          "internalType": "string",
          "name": "symbol",
          "type": "string"
        }
      ],
      "stateMutability": "nonpayable",
      "type": "constructor"
    },
    {
      "inputs": [],
      "name": "ERC721EnumerableForbiddenBatchMint",
      "type": "error"
    },
    {
      "inputs": [
        {
          "internalType": "address",
          "name": "sender",
          "type": "address"
        },
        {
          "internalType": "uint256",
          "name": "tokenId",
          "type": "uint256"
        },
        {
          "internalType": "address",
          "name": "owner",
          "type": "address"
        }
      ],
      "name": "ERC721IncorrectOwner",
      "type": "error"
    },
    {
      "inputs": [
        {
          "internalType": "address",
          "name": "operator",
          "type": "address"
        },
        {
          "internalType": "uint256",
          "name": "tokenId",
          "type": "uint256"
        }
      ],
      "name": "ERC721InsufficientApproval",
      "type": "error"
    },
    {
      "inputs": [
        {
          "internalType": "address",
          "name": "approver",
          "type": "address"
        }
      ],
      "name": "ERC721InvalidApprover",
      "type": "error"
    },
    {
      "inputs": [
        {
          "internalType": "address",
          "name": "operator",
          "type": "address"
        }
      ],
      "name": "ERC721InvalidOperator",
      "type": "error"
    },
    {
      "inputs": [
        {
          "internalType": "address",
          "name": "owner",
          "type": "address"
        }
      ],
      "name": "ERC721InvalidOwner",
      "type": "error"
    },
    {
      "inputs": [
        {
          "internalType": "address",
          "name": "receiver",
          "type": "address"
        }
      ],
      "name": "ERC721InvalidReceiver",
      "type": "error"
    },
    {
      "inputs": [
        {
          "internalType": "address",
          "name": "sender",
          "type": "address"
        }
      ],
      "name": "ERC721InvalidSender",
      "type": "error"
    },
    {
      "inputs": [
        {
          "internalType": "uint256",
          "name": "tokenId",
          "type": "uint256"
        }
      ],
      "name": "ERC721NonexistentToken",
      "type": "error"
    },
    {
      "inputs": [
        {
          "internalType": "address",
          "name": "owner",
          "type": "address"
        },
        {
          "internalType": "uint256",
          "name": "index",
          "type": "uint256"
        }
      ],
      "name": "ERC721OutOfBoundsIndex",
      "type": "error"
    },
    {
      "anonymous": false,
      "inputs": [
        {
          "indexed": true,
          "internalType": "address",
          "name": "owner",
          "type": "address"
        },
        {
          "indexed": true,
          "internalType": "address",
          "name": "approved",
          "type": "address"
        },
        {
          "indexed": true,
          "internalType": "uint256",
          "name": "tokenId",
          "type": "uint256"
        }
      ],
      "name": "Approval",
      "type": "event"
    },
    {
      "anonymous": false,
      "inputs": [
        {
          "indexed": true,
          "internalType": "address",
          "name": "owner",
          "type": "address"
        },
        {
          "indexed": true,
          "internalType": "address",
          "name": "operator",
          "type": "address"
        },
        {
          "indexed": false,
          "internalType": "bool",
          "name": "approved",
          "type": "bool"
        }
      ],
      "name": "ApprovalForAll",
      "type": "event"
    },
    {
      "anonymous": false,
      "inputs": [
        {
          "indexed": true,
          "internalType": "uint256",
          "name": "tokenId",
          "type": "uint256"
        },
        {
          "indexed": true,
          "internalType": "address",
          "name": "to",
          "type": "address"
        }
      ],
      "name": "ModelNFTMint",
      "type": "event"
    },
    {
      "anonymous": false,
      "inputs": [
        {
          "indexed": true,
          "internalType": "address",
          "name": "from",
          "type": "address"
        },
        {
          "indexed": true,
          "internalType": "address",
          "name": "to",
          "type": "address"
        },
        {
          "indexed": true,
          "internalType": "uint256",
          "name": "tokenId",
          "type": "uint256"
        }
      ],
      "name": "Transfer",
      "type": "event"
    },
    {
      "inputs": [
        {
          "internalType": "address",
          "name": "to",
          "type": "address"
        },
        {
          "internalType": "uint256",
          "name": "tokenId",
          "type": "uint256"
        }
      ],
      "name": "approve",
      "outputs": [],
      "stateMutability": "nonpayable",
      "type": "function"
    },
    {
      "inputs": [
        {
          "internalType": "address",
          "name": "owner",
          "type": "address"
        }
      ],
      "name": "balanceOf",
      "outputs": [
        {
          "internalType": "uint256",
          "name": "",
          "type": "uint256"
        }
      ],
      "stateMutability": "view",
      "type": "function"
    },
    {
      "inputs": [
        {
          "internalType": "uint256",
          "name": "tokenId",
          "type": "uint256"
        }
      ],
      "name": "getApproved",
      "outputs": [
        {
          "internalType": "address",
          "name": "",
          "type": "address"
        }
      ],
      "stateMutability": "view",
      "type": "function"
    },
    {
      "inputs": [
        {
          "internalType": "uint256",
          "name": "index",
          "type": "uint256"
        }
      ],
      "name": "getTokenByIndex",
      "outputs": [
        {
          "internalType": "uint256",
          "name": "",
          "type": "uint256"
        }
      ],
      "stateMutability": "view",
      "type": "function"
    },
    {
      "inputs": [],
      "name": "getTotalSupply",
      "outputs": [
        {
          "internalType": "uint256",
          "name": "",
          "type": "uint256"
        }
      ],
      "stateMutability": "view",
      "type": "function"
    },
    {
      "inputs": [
        {
          "internalType": "address",
          "name": "owner",
          "type": "address"
        },
        {
          "internalType": "address",
          "name": "operator",
          "type": "address"
        }
      ],
      "name": "isApprovedForAll",
      "outputs": [
        {
          "internalType": "bool",
          "name": "",
          "type": "bool"
        }
      ],
      "stateMutability": "view",
      "type": "function"
    },
    {
      "inputs": [
        {
          "internalType": "address",
          "name": "to",
          "type": "address"
        }
      ],
      "name": "mintWithModelInfo",
      "outputs": [
        {
          "internalType": "uint256",
          "name": "",
          "type": "uint256"
        }
      ],
      "stateMutability": "nonpayable",
      "type": "function"
    },
    {
      "inputs": [],
      "name": "name",
      "outputs": [
        {
          "internalType": "string",
          "name": "",
          "type": "string"
        }
      ],
      "stateMutability": "view",
      "type": "function"
    },
    {
      "inputs": [
        {
          "internalType": "uint256",
          "name": "tokenId",
          "type": "uint256"
        }
      ],
      "name": "ownerOf",
      "outputs": [
        {
          "internalType": "address",
          "name": "",
          "type": "address"
        }
      ],
      "stateMutability": "view",
      "type": "function"
    },
    {
      "inputs": [
        {
          "internalType": "address",
          "name": "from",
          "type": "address"
        },
        {
          "internalType": "address",
          "name": "to",
          "type": "address"
        },
        {
          "internalType": "uint256",
          "name": "tokenId",
          "type": "uint256"
        }
      ],
      "name": "safeTransferFrom",
      "outputs": [],
      "stateMutability": "nonpayable",
      "type": "function"
    },
    {
      "inputs": [
        {
          "internalType": "address",
          "name": "from",
          "type": "address"
        },
        {
          "internalType": "address",
          "name": "to",
          "type": "address"
        },
        {
          "internalType": "uint256",
          "name": "tokenId",
          "type": "uint256"
        },
        {
          "internalType": "bytes",
          "name": "data",
          "type": "bytes"
        }
      ],
      "name": "safeTransferFrom",
      "outputs": [],
      "stateMutability": "nonpayable",
      "type": "function"
    },
    {
      "inputs": [
        {
          "internalType": "address",
          "name": "operator",
          "type": "address"
        },
        {
          "internalType": "bool",
          "name": "approved",
          "type": "bool"
        }
      ],
      "name": "setApprovalForAll",
      "outputs": [],
      "stateMutability": "nonpayable",
      "type": "function"
    },
    {
      "inputs": [
        {
          "internalType": "bytes4",
          "name": "interfaceId",
          "type": "bytes4"
        }
      ],
      "name": "supportsInterface",
      "outputs": [
        {
          "internalType": "bool",
          "name": "",
          "type": "bool"
        }
      ],
      "stateMutability": "view",
      "type": "function"
    },
    {
      "inputs": [],
      "name": "symbol",
      "outputs": [
        {
          "internalType": "string",
          "name": "",
          "type": "string"
        }
      ],
      "stateMutability": "view",
      "type": "function"
    },
    {
      "inputs": [
        {
          "internalType": "uint256",
          "name": "index",
          "type": "uint256"
        }
      ],
      "name": "tokenByIndex",
      "outputs": [
        {
          "internalType": "uint256",
          "name": "",
          "type": "uint256"
        }
      ],
      "stateMutability": "view",
      "type": "function"
    },
    {
      "inputs": [
        {
          "internalType": "address",
          "name": "owner",
          "type": "address"
        },
        {
          "internalType": "uint256",
          "name": "index",
          "type": "uint256"
        }
      ],
      "name": "tokenOfOwnerByIndex",
      "outputs": [
        {
          "internalType": "uint256",
          "name": "",
          "type": "uint256"
        }
      ],
      "stateMutability": "view",
      "type": "function"
    },
    {
      "inputs": [
        {
          "internalType": "uint256",
          "name": "tokenId",
          "type": "uint256"
        }
      ],
      "name": "tokenURI",
      "outputs": [
        {
          "internalType": "string",
          "name": "",
          "type": "string"
        }
      ],
      "stateMutability": "view",
      "type": "function"
    },
    {
      "inputs": [],
      "name": "totalSupply",
      "outputs": [
        {
          "internalType": "uint256",
          "name": "",
          "type": "uint256"
        }
      ],
      "stateMutability": "view",
      "type": "function"
    },
    {
      "inputs": [
        {
          "internalType": "address",
          "name": "from",
          "type": "address"
        },
        {
          "internalType": "address",
          "name": "to",
          "type": "address"
        },
        {
          "internalType": "uint256",
          "name": "tokenId",
          "type": "uint256"
        }
      ],
      "name": "transferFrom",
      "outputs": [],
      "stateMutability": "nonpayable",
      "type": "function"
    }
  ],
  "bytecode": "0x60806040523480156200001157600080fd5b5060405162002bea38038062002bea8339818101604052810190620000379190620001fa565b818181600090816200004a9190620004ca565b5080600190816200005c9190620004ca565b5050505050620005b1565b6000604051905090565b600080fd5b600080fd5b600080fd5b600080fd5b6000601f19601f8301169050919050565b7f4e487b7100000000000000000000000000000000000000000000000000000000600052604160045260246000fd5b620000d08262000085565b810181811067ffffffffffffffff82111715620000f257620000f162000096565b5b80604052505050565b60006200010762000067565b9050620001158282620000c5565b919050565b600067ffffffffffffffff82111562000138576200013762000096565b5b620001438262000085565b9050602081019050919050565b60005b838110156200017057808201518184015260208101905062000153565b60008484015250505050565b6000620001936200018d846200011a565b620000fb565b905082815260208101848484011115620001b257620001b162000080565b5b620001bf84828562000150565b509392505050565b600082601f830112620001df57620001de6200007b565b5b8151620001f18482602086016200017c565b91505092915050565b6000806040838503121562000214576200021362000071565b5b600083015167ffffffffffffffff81111562000235576200023462000076565b5b6200024385828601620001c7565b925050602083015167ffffffffffffffff81111562000267576200026662000076565b5b6200027585828601620001c7565b9150509250929050565b600081519050919050565b7f4e487b7100000000000000000000000000000000000000000000000000000000600052602260045260246000fd5b60006002820490506001821680620002d257607f821691505b602082108103620002e857620002e76200028a565b5b50919050565b60008190508160005260206000209050919050565b60006020601f8301049050919050565b600082821b905092915050565b600060088302620003527fffffffffffffffffffffffffffffffffffffffffffffffffffffffffffffffff8262000313565b6200035e868362000313565b95508019841693508086168417925050509392505050565b6000819050919050565b6000819050919050565b6000620003ab620003a56200039f8462000376565b62000380565b62000376565b9050919050565b6000819050919050565b620003c7836200038a565b620003df620003d682620003b2565b84845462000320565b825550505050565b600090565b620003f6620003e7565b62000403818484620003bc565b505050565b5b818110156200042b576200041f600082620003ec565b60018101905062000409565b5050565b601f8211156200047a576200044481620002ee565b6200044f8462000303565b810160208510156200045f578190505b620004776200046e8562000303565b83018262000408565b50505b505050565b600082821c905092915050565b60006200049f600019846008026200047f565b1980831691505092915050565b6000620004ba83836200048c565b9150826002028217905092915050565b620004d5826200027f565b67ffffffffffffffff811115620004f157620004f062000096565b5b620004fd8254620002b9565b6200050a8282856200042f565b600060209050601f8311600181146200054257600084156200052d578287015190505b620005398582620004ac565b865550620005a9565b601f1984166200055286620002ee565b60005b828110156200057c5784890151825560018201915060208501945060208101905062000555565b868310156200059c578489015162000598601f8916826200048c565b8355505b6001600288020188555050505b505050505050565b61262980620005c16000396000f3fe608060405234801561001057600080fd5b50600436106101215760003560e01c80636352211e116100ad578063a22cb46511610071578063a22cb46514610354578063b88d4fde14610370578063c4e41b221461038c578063c87b56dd146103aa578063e985e9c5146103da57610121565b80636352211e14610276578063644b7a43146102a65780636e91a358146102d657806370a082311461030657806395d89b411461033657610121565b806318160ddd116100f457806318160ddd146101c057806323b872dd146101de5780632f745c59146101fa57806342842e0e1461022a5780634f6ccce71461024657610121565b806301ffc9a71461012657806306fdde0314610156578063081812fc14610174578063095ea7b3146101a4575b600080fd5b610140600480360381019061013b9190611d6a565b61040a565b60405161014d9190611db2565b60405180910390f35b61015e610484565b60405161016b9190611e5d565b60405180910390f35b61018e60048036038101906101899190611eb5565b610516565b60405161019b9190611f23565b60405180910390f35b6101be60048036038101906101b99190611f6a565b610532565b005b6101c8610548565b6040516101d59190611fb9565b60405180910390f35b6101f860048036038101906101f39190611fd4565b610555565b005b610214600480360381019061020f9190611f6a565b610657565b6040516102219190611fb9565b60405180910390f35b610244600480360381019061023f9190611fd4565b610700565b005b610260600480360381019061025b9190611eb5565b610720565b60405161026d9190611fb9565b60405180910390f35b610290600480360381019061028b9190611eb5565b610796565b60405161029d9190611f23565b60405180910390f35b6102c060048036038101906102bb9190611eb5565b6107a8565b6040516102cd9190611fb9565b60405180910390f35b6102f060048036038101906102eb9190612027565b6107ba565b6040516102fd9190611fb9565b60405180910390f35b610320600480360381019061031b9190612027565b61082d565b60405161032d9190611fb9565b60405180910390f35b61033e6108e7565b60405161034b9190611e5d565b60405180910390f35b61036e60048036038101906103699190612080565b610979565b005b61038a600480360381019061038591906121f5565b61098f565b005b6103946109ac565b6040516103a19190611fb9565b60405180910390f35b6103c460048036038101906103bf9190611eb5565b6109bb565b6040516103d19190611e5d565b60405180910390f35b6103f460048036038101906103ef9190612278565b610a24565b6040516104019190611db2565b60405180910390f35b60007f780e9d63000000000000000000000000000000000000000000000000000000007bffffffffffffffffffffffffffffffffffffffffffffffffffffffff1916827bffffffffffffffffffffffffffffffffffffffffffffffffffffffff1916148061047d575061047c82610ab8565b5b9050919050565b606060008054610493906122e7565b80601f01602080910402602001604051908101604052809291908181526020018280546104bf906122e7565b801561050c5780601f106104e15761010080835404028352916020019161050c565b820191906000526020600020905b8154815290600101906020018083116104ef57829003601f168201915b5050505050905090565b600061052182610b9a565b5061052b82610c22565b9050919050565b610544828261053f610c5f565b610c67565b5050565b6000600880549050905090565b600073ffffffffffffffffffffffffffffffffffffffff168273ffffffffffffffffffffffffffffffffffffffff16036105c75760006040517f64a0ae920000000000000000000000000000000000000000000000000000000081526004016105be9190611f23565b60405180910390fd5b60006105db83836105d6610c5f565b610c79565b90508373ffffffffffffffffffffffffffffffffffffffff168173ffffffffffffffffffffffffffffffffffffffff1614610651578382826040517f64283d7b00000000000000000000000000000000000000000000000000000000815260040161064893929190612318565b60405180910390fd5b50505050565b60006106628361082d565b82106106a75782826040517fa57d13dc00000000000000000000000000000000000000000000000000000000815260040161069e92919061234f565b60405180910390fd5b600660008473ffffffffffffffffffffffffffffffffffffffff1673ffffffffffffffffffffffffffffffffffffffff168152602001908152602001600020600083815260200190815260200160002054905092915050565b61071b8383836040518060200160405280600081525061098f565b505050565b600061072a610548565b8210610770576000826040517fa57d13dc00000000000000000000000000000000000000000000000000000000815260040161076792919061234f565b60405180910390fd5b6008828154811061078457610783612378565b5b90600052602060002001549050919050565b60006107a182610b9a565b9050919050565b60006107b382610720565b9050919050565b600080600a60008154809291906107d0906123d6565b9190505590506107e08382610d96565b8273ffffffffffffffffffffffffffffffffffffffff16817f7c40a9dba3f72de3692f0ab32b86831d540641ead7986efc2a142bfec722f12f60405160405180910390a380915050919050565b60008073ffffffffffffffffffffffffffffffffffffffff168273ffffffffffffffffffffffffffffffffffffffff16036108a05760006040517f89c62b640000000000000000000000000000000000000000000000000000000081526004016108979190611f23565b60405180910390fd5b600360008373ffffffffffffffffffffffffffffffffffffffff1673ffffffffffffffffffffffffffffffffffffffff168152602001908152602001600020549050919050565b6060600180546108f6906122e7565b80601f0160208091040260200160405190810160405280929190818152602001828054610922906122e7565b801561096f5780601f106109445761010080835404028352916020019161096f565b820191906000526020600020905b81548152906001019060200180831161095257829003601f168201915b5050505050905090565b61098b610984610c5f565b8383610e8f565b5050565b61099a848484610555565b6109a684848484610ffe565b50505050565b60006109b6610548565b905090565b60606109c682610b9a565b5060006109d16111b5565b905060008151116109f15760405180602001604052806000815250610a1c565b806109fb846111cc565b604051602001610a0c92919061245a565b6040516020818303038152906040525b915050919050565b6000600560008473ffffffffffffffffffffffffffffffffffffffff1673ffffffffffffffffffffffffffffffffffffffff16815260200190815260200160002060008373ffffffffffffffffffffffffffffffffffffffff1673ffffffffffffffffffffffffffffffffffffffff16815260200190815260200160002060009054906101000a900460ff16905092915050565b60007f80ac58cd000000000000000000000000000000000000000000000000000000007bffffffffffffffffffffffffffffffffffffffffffffffffffffffff1916827bffffffffffffffffffffffffffffffffffffffffffffffffffffffff19161480610b8357507f5b5e139f000000000000000000000000000000000000000000000000000000007bffffffffffffffffffffffffffffffffffffffffffffffffffffffff1916827bffffffffffffffffffffffffffffffffffffffffffffffffffffffff1916145b80610b935750610b928261129a565b5b9050919050565b600080610ba683611304565b9050600073ffffffffffffffffffffffffffffffffffffffff168173ffffffffffffffffffffffffffffffffffffffff1603610c1957826040517f7e273289000000000000000000000000000000000000000000000000000000008152600401610c109190611fb9565b60405180910390fd5b80915050919050565b60006004600083815260200190815260200160002060009054906101000a900473ffffffffffffffffffffffffffffffffffffffff169050919050565b600033905090565b610c748383836001611341565b505050565b600080610c87858585611506565b9050600073ffffffffffffffffffffffffffffffffffffffff168173ffffffffffffffffffffffffffffffffffffffff1603610ccb57610cc684611720565b610d0a565b8473ffffffffffffffffffffffffffffffffffffffff168173ffffffffffffffffffffffffffffffffffffffff1614610d0957610d088185611769565b5b5b600073ffffffffffffffffffffffffffffffffffffffff168573ffffffffffffffffffffffffffffffffffffffff1603610d4c57610d47846118ca565b610d8b565b8473ffffffffffffffffffffffffffffffffffffffff168173ffffffffffffffffffffffffffffffffffffffff1614610d8a57610d89858561199b565b5b5b809150509392505050565b600073ffffffffffffffffffffffffffffffffffffffff168273ffffffffffffffffffffffffffffffffffffffff1603610e085760006040517f64a0ae92000000000000000000000000000000000000000000000000000000008152600401610dff9190611f23565b60405180910390fd5b6000610e1683836000610c79565b9050600073ffffffffffffffffffffffffffffffffffffffff168173ffffffffffffffffffffffffffffffffffffffff1614610e8a5760006040517f73c6ac6e000000000000000000000000000000000000000000000000000000008152600401610e819190611f23565b60405180910390fd5b505050565b600073ffffffffffffffffffffffffffffffffffffffff168273ffffffffffffffffffffffffffffffffffffffff1603610f0057816040517f5b08ba18000000000000000000000000000000000000000000000000000000008152600401610ef79190611f23565b60405180910390fd5b80600560008573ffffffffffffffffffffffffffffffffffffffff1673ffffffffffffffffffffffffffffffffffffffff16815260200190815260200160002060008473ffffffffffffffffffffffffffffffffffffffff1673ffffffffffffffffffffffffffffffffffffffff16815260200190815260200160002060006101000a81548160ff0219169083151502179055508173ffffffffffffffffffffffffffffffffffffffff168373ffffffffffffffffffffffffffffffffffffffff167f17307eab39ab6107e8899845ad3d59bd9653f200f220920489ca2b5937696c3183604051610ff19190611db2565b60405180910390a3505050565b60008373ffffffffffffffffffffffffffffffffffffffff163b11156111af578273ffffffffffffffffffffffffffffffffffffffff1663150b7a02611042610c5f565b8685856040518563ffffffff1660e01b815260040161106494939291906124d3565b6020604051808303816000875af19250505080156110a057506040513d601f19601f8201168201806040525081019061109d9190612534565b60015b611124573d80600081146110d0576040519150601f19603f3d011682016040523d82523d6000602084013e6110d5565b606091505b50600081510361111c57836040517f64a0ae920000000000000000000000000000000000000000000000000000000081526004016111139190611f23565b60405180910390fd5b805181602001fd5b63150b7a0260e01b7bffffffffffffffffffffffffffffffffffffffffffffffffffffffff1916817bffffffffffffffffffffffffffffffffffffffffffffffffffffffff1916146111ad57836040517f64a0ae920000000000000000000000000000000000000000000000000000000081526004016111a49190611f23565b60405180910390fd5b505b50505050565b606060405180602001604052806000815250905090565b6060600060016111db84611a26565b01905060008167ffffffffffffffff8111156111fa576111f96120ca565b5b6040519080825280601f01601f19166020018201604052801561122c5781602001600182028036833780820191505090505b509050600082602001820190505b60011561128f578080600190039150507f3031323334353637383961626364656600000000000000000000000000000000600a86061a8153600a858161128357611282612561565b5b0494506000850361123a575b819350505050919050565b60007f01ffc9a7000000000000000000000000000000000000000000000000000000007bffffffffffffffffffffffffffffffffffffffffffffffffffffffff1916827bffffffffffffffffffffffffffffffffffffffffffffffffffffffff1916149050919050565b60006002600083815260200190815260200160002060009054906101000a900473ffffffffffffffffffffffffffffffffffffffff169050919050565b808061137a5750600073ffffffffffffffffffffffffffffffffffffffff168273ffffffffffffffffffffffffffffffffffffffff1614155b156114ae57600061138a84610b9a565b9050600073ffffffffffffffffffffffffffffffffffffffff168373ffffffffffffffffffffffffffffffffffffffff16141580156113f557508273ffffffffffffffffffffffffffffffffffffffff168173ffffffffffffffffffffffffffffffffffffffff1614155b801561140857506114068184610a24565b155b1561144a57826040517fa9fbf51f0000000000000000000000000000000000000000000000000000000081526004016114419190611f23565b60405180910390fd5b81156114ac57838573ffffffffffffffffffffffffffffffffffffffff168273ffffffffffffffffffffffffffffffffffffffff167f8c5be1e5ebec7d5bd14f71427d1e84f3dd0314c0f7b2291e5b200ac8c7c3b92560405160405180910390a45b505b836004600085815260200190815260200160002060006101000a81548173ffffffffffffffffffffffffffffffffffffffff021916908373ffffffffffffffffffffffffffffffffffffffff16021790555050505050565b60008061151284611304565b9050600073ffffffffffffffffffffffffffffffffffffffff168373ffffffffffffffffffffffffffffffffffffffff161461155457611553818486611b79565b5b600073ffffffffffffffffffffffffffffffffffffffff168173ffffffffffffffffffffffffffffffffffffffff16146115e557611596600085600080611341565b6001600360008373ffffffffffffffffffffffffffffffffffffffff1673ffffffffffffffffffffffffffffffffffffffff168152602001908152602001600020600082825403925050819055505b600073ffffffffffffffffffffffffffffffffffffffff168573ffffffffffffffffffffffffffffffffffffffff1614611668576001600360008773ffffffffffffffffffffffffffffffffffffffff1673ffffffffffffffffffffffffffffffffffffffff168152602001908152602001600020600082825401925050819055505b846002600086815260200190815260200160002060006101000a81548173ffffffffffffffffffffffffffffffffffffffff021916908373ffffffffffffffffffffffffffffffffffffffff160217905550838573ffffffffffffffffffffffffffffffffffffffff168273ffffffffffffffffffffffffffffffffffffffff167fddf252ad1be2c89b69c2b068fc378daa952ba7f163c4a11628f55a4df523b3ef60405160405180910390a4809150509392505050565b6008805490506009600083815260200190815260200160002081905550600881908060018154018082558091505060019003906000526020600020016000909190919091505550565b60006117748361082d565b9050600060076000848152602001908152602001600020549050818114611859576000600660008673ffffffffffffffffffffffffffffffffffffffff1673ffffffffffffffffffffffffffffffffffffffff168152602001908152602001600020600084815260200190815260200160002054905080600660008773ffffffffffffffffffffffffffffffffffffffff1673ffffffffffffffffffffffffffffffffffffffff168152602001908152602001600020600084815260200190815260200160002081905550816007600083815260200190815260200160002081905550505b6007600084815260200190815260200160002060009055600660008573ffffffffffffffffffffffffffffffffffffffff1673ffffffffffffffffffffffffffffffffffffffff16815260200190815260200160002060008381526020019081526020016000206000905550505050565b600060016008805490506118de9190612590565b905060006009600084815260200190815260200160002054905060006008838154811061190e5761190d612378565b5b9060005260206000200154905080600883815481106119305761192f612378565b5b90600052602060002001819055508160096000838152602001908152602001600020819055506009600085815260200190815260200160002060009055600880548061197f5761197e6125c4565b5b6001900381819060005260206000200160009055905550505050565b600060016119a88461082d565b6119b29190612590565b905081600660008573ffffffffffffffffffffffffffffffffffffffff1673ffffffffffffffffffffffffffffffffffffffff168152602001908152602001600020600083815260200190815260200160002081905550806007600084815260200190815260200160002081905550505050565b600080600090507a184f03e93ff9f4daa797ed6e38ed64bf6a1f0100000000000000008310611a84577a184f03e93ff9f4daa797ed6e38ed64bf6a1f0100000000000000008381611a7a57611a79612561565b5b0492506040810190505b6d04ee2d6d415b85acef81000000008310611ac1576d04ee2d6d415b85acef81000000008381611ab757611ab6612561565b5b0492506020810190505b662386f26fc100008310611af057662386f26fc100008381611ae657611ae5612561565b5b0492506010810190505b6305f5e1008310611b19576305f5e1008381611b0f57611b0e612561565b5b0492506008810190505b6127108310611b3e576127108381611b3457611b33612561565b5b0492506004810190505b60648310611b615760648381611b5757611b56612561565b5b0492506002810190505b600a8310611b70576001810190505b80915050919050565b611b84838383611c3d565b611c3857600073ffffffffffffffffffffffffffffffffffffffff168373ffffffffffffffffffffffffffffffffffffffff1603611bf957806040517f7e273289000000000000000000000000000000000000000000000000000000008152600401611bf09190611fb9565b60405180910390fd5b81816040517f177e802f000000000000000000000000000000000000000000000000000000008152600401611c2f92919061234f565b60405180910390fd5b505050565b60008073ffffffffffffffffffffffffffffffffffffffff168373ffffffffffffffffffffffffffffffffffffffff1614158015611cf557508273ffffffffffffffffffffffffffffffffffffffff168473ffffffffffffffffffffffffffffffffffffffff161480611cb65750611cb58484610a24565b5b80611cf457508273ffffffffffffffffffffffffffffffffffffffff16611cdc83610c22565b73ffffffffffffffffffffffffffffffffffffffff16145b5b90509392505050565b6000604051905090565b600080fd5b600080fd5b60007fffffffff0000000000000000000000000000000000000000000000000000000082169050919050565b611d4781611d12565b8114611d5257600080fd5b50565b600081359050611d6481611d3e565b92915050565b600060208284031215611d8057611d7f611d08565b5b6000611d8e84828501611d55565b91505092915050565b60008115159050919050565b611dac81611d97565b82525050565b6000602082019050611dc76000830184611da3565b92915050565b600081519050919050565b600082825260208201905092915050565b60005b83811015611e07578082015181840152602081019050611dec565b60008484015250505050565b6000601f19601f8301169050919050565b6000611e2f82611dcd565b611e398185611dd8565b9350611e49818560208601611de9565b611e5281611e13565b840191505092915050565b60006020820190508181036000830152611e778184611e24565b905092915050565b6000819050919050565b611e9281611e7f565b8114611e9d57600080fd5b50565b600081359050611eaf81611e89565b92915050565b600060208284031215611ecb57611eca611d08565b5b6000611ed984828501611ea0565b91505092915050565b600073ffffffffffffffffffffffffffffffffffffffff82169050919050565b6000611f0d82611ee2565b9050919050565b611f1d81611f02565b82525050565b6000602082019050611f386000830184611f14565b92915050565b611f4781611f02565b8114611f5257600080fd5b50565b600081359050611f6481611f3e565b92915050565b60008060408385031215611f8157611f80611d08565b5b6000611f8f85828601611f55565b9250506020611fa085828601611ea0565b9150509250929050565b611fb381611e7f565b82525050565b6000602082019050611fce6000830184611faa565b92915050565b600080600060608486031215611fed57611fec611d08565b5b6000611ffb86828701611f55565b935050602061200c86828701611f55565b925050604061201d86828701611ea0565b9150509250925092565b60006020828403121561203d5761203c611d08565b5b600061204b84828501611f55565b91505092915050565b61205d81611d97565b811461206857600080fd5b50565b60008135905061207a81612054565b92915050565b6000806040838503121561209757612096611d08565b5b60006120a585828601611f55565b92505060206120b68582860161206b565b9150509250929050565b600080fd5b600080fd5b7f4e487b7100000000000000000000000000000000000000000000000000000000600052604160045260246000fd5b61210282611e13565b810181811067ffffffffffffffff82111715612121576121206120ca565b5b80604052505050565b6000612134611cfe565b905061214082826120f9565b919050565b600067ffffffffffffffff8211156121605761215f6120ca565b5b61216982611e13565b9050602081019050919050565b82818337600083830152505050565b600061219861219384612145565b61212a565b9050828152602081018484840111156121b4576121b36120c5565b5b6121bf848285612176565b509392505050565b600082601f8301126121dc576121db6120c0565b5b81356121ec848260208601612185565b91505092915050565b6000806000806080858703121561220f5761220e611d08565b5b600061221d87828801611f55565b945050602061222e87828801611f55565b935050604061223f87828801611ea0565b925050606085013567ffffffffffffffff8111156122605761225f611d0d565b5b61226c878288016121c7565b91505092959194509250565b6000806040838503121561228f5761228e611d08565b5b600061229d85828601611f55565b92505060206122ae85828601611f55565b9150509250929050565b7f4e487b7100000000000000000000000000000000000000000000000000000000600052602260045260246000fd5b600060028204905060018216806122ff57607f821691505b602082108103612312576123116122b8565b5b50919050565b600060608201905061232d6000830186611f14565b61233a6020830185611faa565b6123476040830184611f14565b949350505050565b60006040820190506123646000830185611f14565b6123716020830184611faa565b9392505050565b7f4e487b7100000000000000000000000000000000000000000000000000000000600052603260045260246000fd5b7f4e487b7100000000000000000000000000000000000000000000000000000000600052601160045260246000fd5b60006123e182611e7f565b91507fffffffffffffffffffffffffffffffffffffffffffffffffffffffffffffffff8203612413576124126123a7565b5b600182019050919050565b600081905092915050565b600061243482611dcd565b61243e818561241e565b935061244e818560208601611de9565b80840191505092915050565b60006124668285612429565b91506124728284612429565b91508190509392505050565b600081519050919050565b600082825260208201905092915050565b60006124a58261247e565b6124af8185612489565b93506124bf818560208601611de9565b6124c881611e13565b840191505092915050565b60006080820190506124e86000830187611f14565b6124f56020830186611f14565b6125026040830185611faa565b8181036060830152612514818461249a565b905095945050505050565b60008151905061252e81611d3e565b92915050565b60006020828403121561254a57612549611d08565b5b60006125588482850161251f565b91505092915050565b7f4e487b7100000000000000000000000000000000000000000000000000000000600052601260045260246000fd5b600061259b82611e7f565b91506125a683611e7f565b92508282039050818111156125be576125bd6123a7565b5b92915050565b7f4e487b7100000000000000000000000000000000000000000000000000000000600052603160045260246000fdfea26469706673582212209f86359247fb8a260869b90e74f19fb1b897ba5e8219dd67713cdf0e11e05a1d64736f6c63430008170033",
  "linkReferences": {},
  "deployedLinkReferences": {}
}